:020000040000FA
:0300000002005F9C
:0300130002128155
:10001B0002129A00000080FBE4900200782979011B
:10002B008002F0A3D8FCD9FA7A287B0290006E7874
:10003B00EE79018015E493A3AD82AE838A828B8324
:10004B00F0A3AA82AB838D828E83D8E9D9E71211F4
:10005B002E12001E75D0007581BF75100075110230
:10006B00020023E803000074656D7065726174759E
:10007B0072653A252E326C6620430D0A007072654C
:10008B00737572653A252E326C66206D6261720D46
:10009B000A006865696768743A252E326C66206DB4
:1000AB000D0A000000C842002A2D47000000000086
:1000BB000020410100B0423BAAB83F0000003F8C3A
:1000CB00906339AA0CA33A00941E3C8042633DCF47
:1000DB00FE753E1572313F0000803FF304353F80C3
:1000EB0096184B3031323334353637383941424339
:1000FB0044454600286E756C6C20706F696E746594
:10010B007229003031323334353637383961626316
:10011B00646566003F3F3F000000807FF902155089
:10012B00B743BA5100E7DB2E0000A04001000000EE
:10013B00000080BF2292D43EDD9B2A3F040000408A
:10014B00FFFF7F7FFFFF7FFF010080341872313F7D
:10015B00C008C3E096F50808A3E096420808A3E0A0
:10016B0096420808A3E0964208A2D265D033E50870
:10017B007001D3D00822C3E7960809E7960809E770
:10018B00960809E79622080808E630E7111209CB12
:10019B001201A9080808C64480C618181822181896
:1001AB0018E9799EC608CAC608CBC608CCC6C37068
:1001BB00207996CACBCC7019798ECBCC70137986FB
:1001CB00CC700EF9802ACA33CACB33CBCC33CC33A9
:1001DB001930E7F2CCCBCA3350147004EA30E00D7F
:1001EB00E4CA3ACACB3BCBCC3CCC500209C3E91393
:1001FB00C6CC182313C6CB18C6CA18C6F9221202CE
:10020B004920F01430E72B74FFFCFBFA747F80223B
:10021B00E4FCFBFA7480801AB48008BC00F2BB00CB
:10022B00EF800F50EBF9E4C39AFAE49BFBE49CFCE0
:10023B00E499C6CC18C6CB18C6CA18C6F922E4C9AD
:10024B00C608CAC608CBC6D3330308CCC63392F054
:10025B00C3947F402E94184019C9B90704CACBCC5C
:10026B00225025C309CA33CACB33CBCC33CC33D9B9
:10027B00F422F4600DC9CCC313CB13CBCA13CAD968
:10028B00F6CC22E4FCFBFA2214FCFBFA22E626183D
:10029B00461846184622E7271947194719472218C7
:1002AB001818E60846087009E626087005E633F4C8
:1002BB00220822191919E70947097009E72709705C
:1002CB0005E733F4220922E6084608C31346083330
:1002DB006002E633F422E7094709C3134709336089
:1002EB0002E733F4221202D260251202E1602012DF
:1002FB00029870030202A1080808E766701018192B
:10030B00E766700A1819E76670041819E76622F495
:10031B00221202D2601C1202E160171202987007BF
:10032B001202A17001D322C0D01202A17006D0D04C
:10033B00B322C32233D0D0501430E0F6C3E7960873
:10034B0009E7960809E7960809E796B32220E0D556
:10035B00E6970809E6970809E6970809E697B32296
:10036B001202D2601B1202E1601612029870071281
:10037B0002A1600CB322C0D01202A17005D0D02212
:10038B00C32233D0D0501330E0EBC3E7960809E714
:10039B00960809E7960809E7962220E0E4E6970815
:1003AB0009E6970809E6970809E69722001202D298
:1003BB00604F1202E16012E7548066F61202AA70D7
:1003CB00111202A1703B090909F4F618F618F61878
:1003DB00F6221202BE701512029808080860EAE6AF
:1003EB00447FF618768018E4F618F622120298600D
:1003FB00161202A17012E4F608F608F608E654800D
:10040B00F609090918181822EAC0E0EBC0E0ECC0A5
:10041B00E0EDC0E0E687F0A4FBACF008E687F0A4C3
:10042B002CFCE435F0FA1809E687F0A42C4B60029B
:10043B007401CA35F0FCE433FB09E687F0D2F7A46C
:10044B002CCB35F0FC1908E687F0A42BCC35F0FB50
:10045B00E433FD0819E687F0D2E7A42C4ACB35F03C
:10046B00CD3400FC09E687F0D2E7A42DCC35F0FDA6
:10047B00E433FA0918E687F0D2F7A42CCD35F0CA8D
:10048B003400FC08E687F0D2E7D2F7A42ACC35F08B
:10049B007A7E20E70B0ACB33CBCD33CDCC33CC33A9
:1004AB00CB3350147004ED30E00ED2F1E4CD3DCDE2
:1004BB00CC3CCC3B5005DA05C2F1EB547FC633087C
:1004CB00E63392F0FBE73309E733C39A502D2B70D9
:1004DB00190C0D4C4D70151806E608C333700D2022
:1004EB00F10AA2F013F6E418800B4024E4F630F086
:1004FB0002768018F618F618F68024D33B145010A9
:10050B0074FFA2F013F6187680E418F618F6800F35
:10051B00A2F013F618E63303F618ECF618EDF6D046
:10052B00E0FDD0E0FCD0E0FBD0E0FA221202E1606B
:10053B00461202D2603DE9687008F618F618F618F4
:10054B00F622748067F712056B090909748067F747
:10055B00221202D2601D1202E17005191919801ABC
:10056B001202AA701F1202BEC37003E66733191979
:10057B001940071818182208080874FFF618F618FF
:10058B00F618F6221202BE60171202A1702192F029
:10059B001202987019501720F0140808080909095D
:1005AB00E7F61819E7F61819E7F61819E7F6221205
:1005BB00029860E6E869701F0808E62480F608E4F4
:1005CB0036F618547FB47F0CE654806007F6E418B7
:1005DB00F618F622181822E9C6CC08C6CD08C6CEE6
:1005EB0008C6CFC0E0E8C0E0EAC0E0EBC0E009E934
:1005FB00F809E7FA09E7FBE6F918E6F8C3EC98ED1A
:10060B0099EE9AEBC2E7F5F0EFC2E795F0500E606A
:10061B000CEBCFFBEACEFAE9CDF9E8CCF8EAA2E78E
:10062B00D2E7FAEB33FB13F5F0EEA2E7D2E7FEEFDE
:10063B0033FFC5F013A2E730E601B313C5F0C3C017
:10064B00E0C0F07F00C39BFB605E9418600F401D01
:10065B0014601AD0E023F9D0E0F802073D8AF0E9E4
:10066B00486003D2F0E4AFF0FAF9F8803BEB30E4EA
:10067B000D89F0EA6003D2F0E4AFF0F9CAF8EB3081
:10068B00E30D88F0EF6002D2F0AFF0E4CAC9F8EBEB
:10069B0054076014FBC3EA13FAE913F9E813F8EFF4
:1006AB00135002D2E0FFDBEDD0E0C0E030E739C3FE
:1006BB00E49FFFF5F0EC98FC42F0ED99FD42F0EE73
:1006CB009AFE42F0D0E0F9D0E0F8E5F0607AE92349
:1006DB00F9EE20E742D8028067C3EF33FFEC33FC1F
:1006EB00ED33FDEE33FE80EAEC28FCED39FDEE3AFE
:1006FB00FED0E023F9D0E0F84002801BC3EE13FEDE
:10070B00ED13FDEC13FCEF135002D2E0FF08B80021
:10071B00067F7F74FF802EEF3350178CF020F00292
:10072B0060100CBC000C0DBD00080EBE000408E8E8
:10073B0060DFE933E813FFEE2313FE4F4D4C8008C7
:10074B00E95480FFE4FEFDFCEE33EF33F47004FC60
:10075B00FD7E80D0E0FBD0E0FAD0E0F8D0E0CFC651
:10076B0018CEC618CDC618CCC6F9221202D2700408
:10077B00181818221202E1700D74FFF61819F618EA
:10078B0019F61819F622E7548066F6120298700FC4
:10079B001202A170F014F608F608F608F680D112D2
:1007AB0002A1700CF608F608768008E6447F80EC10
:1007BB001202C1700C1202AD60BFE65480F6E480E9
:1007CB00BB1202AD700519191980A5E869700C767A
:1007DB003F18768018F618F6E8F922E6CDC0E01837
:1007EB00ECC0E0E633CD33CDD313F6E719FCE719B4
:1007FB001933CC33C3947F400ECD9D502408E6545F
:10080B0080F6E418F6800FF4043D14501408E64407
:10081B007FF6187680E418F618F6D0E0FCD0E0FDF1
:10082B0022CCD313CCFD18E4C6CBC0E018E4C6CA67
:10083B00C0E00808ED08C633E613F618E433C675B6
:10084B00F003C3CA97CA09CB97CB199C40047D0808
:10085B00802EBD000302091F16B6FF0506060816FB
:10086B0018C3CA33CACB33CB33CA27CA09CB37CB4E
:10087B00193CC37D08803E187D0820E75CC633C653
:10088B00CA33CACB33CB33DDF1D5F0EB30E77BCAC0
:10089B0097CA09CB974ACB199C406F4B7025E62022
:1008AB00E0218066187D08C3CA97CA09CB97CB197C
:1008BB009CD3C633C6CA33CACB33CB3350C9DDE75F
:1008CB00D5F0E1D3E4C636C608C636C608C636C66A
:1008DB0008C636C61818188031C3CA97CA09CB97F1
:1008EB00CB199CB34097C633C6CA33CACB33CB3371
:1008FB00DD34D5F02EC6A2E0C640C8CA27CA09CB44
:10090B0037194A70BECB3CB480B90808E63308E609
:10091B0033601F181818D0E0FAD0E0FBD0E0FCD001
:10092B00E0FD22187D08CA27CA09CB37CB193CD367
:10093B00808013F618E4B67F11F618B6FF0EF61882
:10094B00C60470D20808768080CAF618F618F680AE
:10095B00C5E4CFC0E0E4CEC0E0E4CDC0E0E4CCC061
:10096B00E075F020E626F608E633F608E633F608DF
:10097B00E633F6181818EC33FCED33FDEE33FEEFCF
:10098B0033FFC3EC9709ED9709EE9709EF97191908
:10099B0019400FFFEC97FC09ED97FD09EE97FE1937
:1009AB001906D5F0BFECF709EDF709EEF709EFF7EC
:1009BB00191919D0E0FCD0E0FDD0E0FED0E0FF2209
:1009CB00181818E4C396F608E496F608E496F608A9
:1009DB00E496F622E0F608A3E0F608A3E0F608A3F7
:1009EB00E0F622E6F008A3E6F008A3E6F008A3E69B
:1009FB00F022E0FAA3E0FBA3E0FCA3E0FD22EAF087
:100A0B00A3EBF0A3ECF0A3EDF022E0F8A3E0F9A345
:100A1B00E0FAA3E0FB22E8F0A3E9F0A3EAF0A3EBF2
:100A2B00F022CAC0E0E6F0A308DAFAD0E0FA22CA54
:100A3B00C0E0E0A3C582CCC582C583CDC583F0A33E
:100A4B00C582CCC582C583CDC583DAE6D0E0CA2288
:100A5B00C3E498F8E499F9120A9C8026C3E49AFA45
:100A6B00E49BFBE920E7E9120A9CE498F8E499F986
:100A7B0022C3E498F8E499F9120A9CE498F8E499F3
:100A8B00F9C3E49AFAE49BFB22EB20E7CFE920E7DA
:100A9B00E0B90010BB0008E88AF084F8AAF022E461
:100AAB00FBC8FA22EB70227B10C833C8C933C93399
:100ABB005007C39AC3DBF280069A50012ADBEAC8BF
:100ACB0033F4C8C933F4C9FA2275F008E4C833C843
:100ADB00C933C933C99AC99B5004C92AC93BD5F03C
:100AEB00ECFBC833F4C8E4C9FA22700422600D1879
:100AFB00C6C333C608C633C6D5E0F418222510107A
:100B0B00AF08F510400C15118008F51040021511B7
:100B1B00D2AF2200C0D0251010AF08F510500C0535
:100B2B00118008F51050020511D2AFD0D02225103C
:100B3B00F58210AF08F510400C15118008F5104028
:100B4B00021511D2AF851183222510F582E43511E0
:100B5B00F583222510F8E43511F922E4732510C52D
:100B6B0082C0E0E51134FFC583C0E0E510C3958278
:100B7B0024F910AF088583118582108008858311B5
:100B8B00858210D2AFCEF0A3E520F0A37808E6085B
:100B9B00F0A3DEFAEFF0A3E58124FBF8E608F0A35F
:100BAB00E608F0A30808E608F0A3E608F0A3158111
:100BBB001581D0E0FED0E0F815811581E8C0E0EE9C
:100BCB00C0E022851183851082E0A3FEE0A3F5200F
:100BDB007808E0A3F608DFFAE0A3FFE0A3C0E0E0AB
:100BEB00A3C0E0E0A3C0E0E0A3C0E010AF088582A3
:100BFB00108583118008858210858311D2AFD08335
:100C0B00D08222C0D02510C582C0E0E51134FFC5CB
:100C1B0083C0E0E510C3958224F310AF08858311E0
:100C2B008582108008858311858210D2AFC8F0A30E
:100C3B00E9F0A3EAF0A3EBF0A37908E709F0A3D856
:100C4B00FAECF0A3EDF0A3EEF0A3EFF0A3D0E0F0FD
:100C5B00A3D0E0F0A3D0E0F0A3E520F0A3E5F0F003
:100C6B00A322851183851082E0C0E0A3E0F9A3E005
:100C7B00FAA3E0FBA37808E0F608A3DFFAE0FCA3F5
:100C8B00E0FDA3E0FEA3E0FFA3E0C0E0A3E0C0E033
:100C9B00A3E0F5D0A3E0F520A3E0A3F5F010AF0897
:100CAB008583118582108008858311858210D2AFD0
:100CBB00D082D083D0E0F8D0E03274048006740286
:100CCB0080027401C0E0F404120B39D0E0120A2D3B
:100CDB00227404800474028000CCC0E0EDC0E0E517
:100CEB0010C39CCCAD1150011D10AF068C108D1193
:100CFB0080068C108D11D2AF120A3AD0E0FDD0E0F5
:100D0B00FC227586C053F1FE53BEFBE59DA2E65057
:100D1B00FA007800790080060008E8700109C3E842
:100D2B0094F8E9940140F175C600E59E70FC43BE52
:100D3B000443FE0143FE0243FE10438F01E5F1A283
:100D4B00E0500543F430800343F30CE5C654032411
:100D5B0008F5C575C23B43868043C482D2E94386FE
:100D6B004043A8842275F10043F33043FA3B43FC24
:100D7B000843FB8043F8C0C2EAC28FD2ABD2AF228A
:100D8B00E9F8740A687007A2E950FC75C10DA2E975
:100D9B0050FCC2E9E8F989C122EBC313FBEA13FA51
:100DAB00EAF8EBF9E824FFFAE934FFFBE8496013B2
:100DBB000000000000000000000000000000000028
:100DCB000080DD2243FE027A057B00120DA4D29136
:100DDB00D2907A057B00120DA4C2917A057B00128A
:100DEB000DA4C2907A057B00020DA4C2907A017B00
:100DFB0000120DA443FE027A017B00120DA4C291D6
:100E0B007A057B00120DA4D2917A057B00020DA40A
:100E1B00C2907A057B00120DA443FE02D29153FEC1
:100E2B00FD7A057B00120DA4D2907A057B00120D82
:100E3B00A4A2915005C290790022C290790122742C
:100E4B00F8120B68E9FF43FE027E00801BEFC333F1
:100E5B00FFA2D79291D2907A057B00120DA4C2907B
:100E6B007A057B00120DA40EEEC3940840DF120E20
:100E7B001BE97F01020BCE74F8120B68E9FFEAFE47
:100E8B00120DCF793C120E4AEFF9120E4AEEF912FF
:100E9B000E4A120DF67F01020BCE7A007902120E6A
:100EAB00827A007901020E8280200000000000008F
:100EBB000000000000000000000000000000000027
:100ECB0000000000000000000000EAF8EBF9E82445
:100EDB00FFFAE934FFFBE84970D022120F07120F1B
:100EEB00137A327B00120EB3120F0D7A327B001283
:100EFB000EB3120F197A327B00020EB343FE04D2EB
:100F0B00922243FE04C2922243FE08D2932243FE56
:100F1B0008C2932253FEFB22120F0D120F197A32C5
:100F2B007B00120EB3120F137A327B00120EB30238
:100F3B000F07120F0D120F137A327B00120EB31222
:100F4B000F197A327B00020EB3120F07120F137AAE
:100F5B00327B00120EB3120F197A327B00020EB3E2
:100F6B00120F07120F137A327B00120EB3A292925A
:100F7B00D57A327B00120EB3120F197A327B001224
:100F8B000EB3A2D55003790022790122EEC0E0E91D
:100F9B00FEEE6005120F0D8003120F077A327B00F5
:100FAB00120EB3120F137A327B00120EB3120F19FB
:100FBB007A327B00120EB3D0E0FE2274F7120B686C
:100FCB00E9FF7E008004120F3D0EEEC3940850170C
:100FDB00EFF508750900EE7808120AF5E50854805C
:100FEB0060E4120F5480E27F02020BCE74F7120BF7
:100FFB0068EAFEEBFF750800120F07750900800801
:10100B00E508C333F5080509E509C39408502E120A
:10101B000F197A327B00120EB3120F137A327B0048
:10102B00120EB3120F1FA29292D5A2D550D2E50881
:10103B00C333F508D3E50892E0F50880C9120F1900
:10104B00EE4F70077900120F9780057901120F97F9
:10105B00A9087F02020BCE74F1120B6874FC120B01
:10106B00088A0C8B0D8C0E8D0F7402120B547400AE
:10107B00F0A37400F0802C851082851183E024FF8F
:10108B00F0A3E034FFF0851082851183E0F8A3E034
:10109B00F9E84970E27402120B54E02401F0A3E06A
:1010AB003400F07402120B54E0F508A3E0F509E4E8
:1010BB00F50AF50B780C7908120181500F85108217
:1010CB00851183740BF0A37400F080BA7404120BB7
:1010DB001E7F08020BCE74F8120B6874FE120B08FD
:1010EB00EAFEEBFF8510828511837400F0A3740078
:1010FB00F080189002281209FD121062851082856B
:10110B001183E02401F0A3E03400F08510828511F7
:10111B0083C3E09EA3E09F40DA7402120B1E7F0193
:10112B00020BCE74F4120B08120D0D120D70120E71
:10113B00A57A327B001210E11212BF1212D7750C76
:10114B0000750D00750E00750F007404120B5474AE
:10115B0000F0A37400F0A37400F0A37400F08510EA
:10116B00828511837400F0A37400F0A37400F0A3C4
:10117B007400F07408120B5474B4F0A374C9F0A388
:10118B007442F0A3743EF090022278081209DF90AB
:10119B000268780C1209DF7808790C120776740450
:1011AB00120B5478081209EE90021E78081209DF10
:1011BB00900268780C1209DF7808790C1207768593
:1011CB00108285118378081209EE750800750900E5
:1011DB00750A80750B3FC008C009C00AC00B7408A4
:1011EB00120B54120CDC750C00750D50750E7D75C1
:1011FB000F447404120B5478081209DF780C790829
:10120B00120776AA0CAB0DAC0EAD0F122A1074049C
:10121B00120B1E8A088B098C0A8D0BD00FD00ED0A7
:10122B000DD00C780C790812053790026C780812E7
:10123B0009DF780C79081203B77404120B54120CE3
:10124B00DC7A2C7B02122DF67404120B1E85108295
:10125B00851183120CDC7A427B02122DF674041278
:10126B000B1E780C120CC57A577B02122DF67404E8
:10127B00120B1E021192C0E0C0D0C082C083C28B81
:10128B00E5C1900200F0D083D082D0D0D0E032C044
:10129B00E074F2120C0EE5F9900201F0900201E0FD
:1012AB00F9120D8BE97F01020C6DC2E9EAF5C1A2BF
:1012BB00E950FC22120EE679EE120FC6120F6BE903
:1012CB00791E120FC6120F6BE9020F2374F6120B65
:1012DB0068750A00750A00021391120EE679EE1278
:1012EB000FC6120F6BE97A647B00120EB375F00216
:1012FB00E50AA424A0F9120FC6120F6BE97A647BDE
:10130B0000120EB3120F237A647B00120EB3120E6F
:10131B00E679EF120FC6120F6BE97A647B00120E9F
:10132B00B37A017B00120FF7E9FE7F007A007B0096
:10133B00120FF7E9F508750900120F237AE87B0302
:10134B00120EB3E4CEFFEE4508F8EF4509F9E8FCC1
:10135B00E9FDE4FEFFE50AF87900E875F004A4C89E
:10136B00AAF075F000A42AFA75F004E9A42AF9741E
:10137B000228F582740239F583ECF0A3EDF0A3EEAD
:10138B00F0A3EFF0050AE50AC3940750030212E538
:10139B007AE87B03120EB37F03020BCEC3EB9400F0
:1013AB00A2D265D0334005EAF8EB8006C3E49AF885
:1013BB00E49BF9E8FAE9FB2274F1120B6874F8125A
:1013CB000B08851082851183EAF0A3EBF0A3ECF0F8
:1013DB00A3ED12168F1209DF900270780C1209DF41
:1013EB007808790C1202F0700B7A007B007C807D00
:1013FB003F02168585108285118378081209DFED6F
:10140B00C2E7F50B900278780C1209DF7808790C9B
:10141B0012031C50449002267422F0A3E412168F80
:10142B001209DF900270780C1209DF7808790C1220
:10143B00036B500E750800750900750A00750B00DB
:10144B00800C7508FF7509FF750A7F750B7FAA085D
:10145B00AB09AC0AAD0B021685851082851183781A
:10146B00081209DF90027C780C1209DF7808790CDE
:10147B001203B785108285118378081209EE851047
:10148B008285118378081209DFE50BC2E7F50B782B
:10149B0008120209E508FA851082851183780C126F
:1014AB0009DF90027078081209DF780C79081203B3
:1014BB006B503985108285118378081209DFEAF5A4
:1014CB000C3395E0F50DF50EF50F780C12019178B4
:1014DB0008790C120537900270780C1209DF780826
:1014EB00790C1202F060010AEAF404FA8510828585
:1014FB001183780C1209DFEAF5083395E0F509F54D
:10150B000AF50B7808120191780C790812053774DB
:10151B0004120B54780C1209EE7404120B54780C51
:10152B001209DF90028078081209DF780C79081213
:10153B00036B50277404120B54780C1209DF9002C2
:10154B008078081209DF780C790812055C74041294
:10155B000B54780C1209EED2008002C200740412F4
:10156B000B5478081209DF900284780C1209DF788B
:10157B0008790C1203B7900288780C1209DF7808EF
:10158B00790C12055C7404120B54780C1209DF7879
:10159B0008790C1203B790028C780C1209DF7808CB
:1015AB00790C12055C7404120B54780C1209DF7859
:1015BB0008790C1203B7900290780C1209DF7808A7
:1015CB00790C12055C7404120B54780C1209DF7839
:1015DB0008790C1203B7900294780C1209DF780883
:1015EB00790C12055C7404120B54780C1209DF7819
:1015FB0008790C1203B7900298780C1209DF78085F
:10160B00790C12055C7404120B54780C1209DF78F8
:10161B0008790C1203B790029C780C1209DF78083A
:10162B00790C12055C85108285118378081209EEFE
:10163B00A2005025851082851183780C1209DF904A
:10164B0002A078081209DF780C79081203B785100D
:10165B0082851183780C1209EEEAF98510828511C7
:10166B008378081209DFAA08AB09AC0AAD0BE9A213
:10167B00E713F9E4132CFCE93DFD7408120B1E7FF4
:10168B0008020BCEF085108285118378082274F145
:10169B00120B6874F8120B08851082851183EAF01F
:1016AB00A3EBF0A3ECF0A3EDF0851082851183780A
:1016BB00081209DFEDC2E7F50B9002A4780C1209B2
:1016CB00DF7808790C12031C851082851183500674
:1016DB001209FD0217AD78081209DF900270780C21
:1016EB001209DF7808790C12036B85108285118340
:1016FB0078081209DF400302179BEDC2E7F50B8553
:10170B00108285118378081209EE8510828511836A
:10171B0078081209DF78081202097808120191740F
:10172B0004120B5478081209EE8510828511837808
:10173B00081209DF7404120B54780C1209DF7808B5
:10174B00790C120537900270780C1209DF78087942
:10175B000C1202F060237404120B5478081209DF88
:10176B0090029C780C1209DF7808790C12055C74D6
:10177B0004120B5478081209EE7404120B547808F7
:10178B001209DFAA08AB09AC0AE50BB2E7FD801220
:10179B0078081202097808120191AA08AB09AC0A61
:1017AB00AD0B7408120B1E7F08020BCE74F1120BDB
:1017BB00688A088B098C0A8D0B740F120B54E0F896
:1017CB00A3E0F9E8FAE9FB900270780C1209DF78D4
:1017DB0008790C1202F0700E8A828B83E4F0A3F06E
:1017EB00FAFBFCFD8022EC33ED332482F83395E0D9
:1017FB00F98A828B83E8F0A3E9F0AA08AB09ED54D0
:10180B0080443FFDECC2E7FC7F08020BCE74F11263
:10181B000B6874FD120B087402120B54E9F08A0862
:10182B008B098C0A8D0B7414120B54E0FEA3E0FF92
:10183B00851082851183E4F0A3F0EE2403FAE43FD4
:10184B00FB8E828F83A3AC82AD839002DD780C126A
:10185B0009DF7808790C1202F070188E828F83746E
:10186B0069F08C828D83746EF08E828F83A3A37448
:10187B0066801F780879081202F0601A8E828F83B7
:10188B00746EF08C828D837461F08E828F83A3A330
:10189B00746EF0021CAB90029C780C1209DF780876
:1018AB00790C12031C5003021954900270780C121D
:1018BB0009DF7808790C1202F060030219A874167C
:1018CB00120B54E070030219EA851082851183C054
:1018DB0082C0837412120B541226D7D083D082127B
:1018EB001CE6502E851082851183C3E094FCA3E087
:1018FB0094FFA2D265D03340197402120B54E41238
:10190B0027B91226D77412120B54C3E098F0A3E038
:10191B0099F07412120B54121D1D7417120B54E014
:10192B0070030219E77416120B54E40219E99002C2
:10193B00E1780C1209DF7808790C12077685108292
:10194B00851183E0240A1227D39002E5780C120943
:10195B00DF7808790C12031C40D4900274780C12B7
:10196B0009DF7808790C12031C40030218C9900296
:10197B0074780C1209DF7808790C1207761227CAD3
:10198B0080D89002E1780C1209DF7808790C1203E9
:10199B00B7851082851183E024F6121D209002E991
:1019AB00780C1209DF7808790C12036B40D4900283
:1019BB009C780C1209DF7808790C12036B40030238
:1019CB0018C9900274780C1209DF7808790C12038D
:1019DB00B7851082851183121D1D80D27401F0749E
:1019EB0002120B54E060047A00807F121CF2507ECE
:1019FB008E828F837430F0ECFEEDFF7412120B5459
:101A0B00E0FCA3E0FDEC4D70087417120B54E06082
:101A1B000B8E828F83742EF0A30EAF837A007B0024
:101A2B0080118E828F837430121D167412120B5418
:101A3B00121D1DEA24FF1AEB34FFFB851082851162
:101A4B0083121CDA500B7412120B541226FD4970C0
:101A5B00D185108285118374FFC39CF874FF9DF9A7
:101A6B00121CE65003021BBD7A017B008071121C15
:101A7B00CBFAE499FB806885080C85090D850A0E65
:101A8B00850B0F780C120209AC0CE50D3395E0F5C4
:101A9B000EF50F780C1201917808790C120537901E
:101AAB000274780C1209DF7808790C1203B7EC1268
:101ABB001D10EAF8EBF9E824010AE439FBE8497058
:101ACB001E7412120B541226FD4970087417120B58
:101ADB0054E0600B8E828F83742EF0A30EAF837451
:101AEB0012120B54121CDA508E9002ED780C120964
:101AFB00DF7808790C12031C4003021BBD7C01EE3E
:101B0B0024FFF8EF34FFF97414120B54E0F508A31B
:101B1B00E0F50988828983E0642E6010E02CF06484
:101B2B003A70077430F07C0180027C00E8FAE9FB24
:101B3B00EA24FF18EB34FFF9C3E5089AE5099B404B
:101B4B00D2ECA2E0506C7402120B54E0603BEEF846
:101B5B00EF800DEC88828983F0E824FF18E934FFCD
:101B6B00F9C3E50898E50999501A121CB5E0FC7405
:101B7B002E6C70DFE824FEF582E934FFF583121C2E
:101B8B00C2F980D51227CA801E8E828F83A3AE82A4
:101B9B00AF83EEF8EF8006121CB5121CC2F9C3E539
:101BAB000898E5099940F07414120B5412270C7421
:101BBB0031F07416120B54E07005801C1EAF83EECF
:101BCB0024FFF582EF34FFF583E0F874306860ECA6
:101BDB00742E6870031EAF837402120B54E07003F3
:101BEB00021CA78E828F83F0EE2402E43FF9A3AA96
:101BFB0082AB83121CF28A828B835012742DF00EEF
:101C0B000EE9FF121CCBF8E499121D038007742B0D
:101C1B00F00E0EE9FF7C007D00EE240AFE50010F52
:101C2B000CEC70010D121CD2120A94EA121D101248
:101C3B001CD2120A94121D04851082851183E0496F
:101C4B0070DEC3EC9402ED1226AC40D4ECFAEDFB43
:101C5B00C3E49CF8E49DF9EE28F582EF39F583E0B7
:101C6B00C0E0C3E49AF8E49BF9EE28F8EF39F9E801
:101C7B002CF8E93DF9E824F5F582E934FFF583D03A
:101C8B00E0F0EC24FF1CED34FFFDC3EC9401ED12EE
:101C9B0026AC50BCEE24F6FEEF34FFFFEEFAEFFB62
:101CAB007403120B1E7F08020BCEE824FFFAE934F3
:101CBB00FFFB8A828B8322E088828983F018EB22D8
:101CCB00122765C3E498221227657A0A7B0022C388
:101CDB00E09AA3E09BA2D265D03322C3E098A3E0A5
:101CEB0099A2D265D03322851082851183C3A3E0DC
:101CFB001226B022A3E03400F9851082851183E807
:101D0B00F0A3E9F02224308E828F83F0A3AE82AF52
:101D1B008322E024FFF0A3E034FFF02274F1120BD6
:101D2B006874B2120B08851082851183122779749F
:101D3B0013120B54ECF0A3EDF0740B120B54E4F0F4
:101D4B00A38020745D120B541226ED7413120B54E6
:101D5B0012270C120B66740B120B54E02401F0A328
:101D6B00E03400F012273AF9851082851183E024C4
:101D7B0001FAA3E03400FB851082851183122779C9
:101D8B007425696010E970BB740B120B541226EDAD
:101D9B00744E021CAD12273A64257019851082858A
:101DAB001183E0240108121CFF745D120B541226E0
:101DBB00ED79258096740A120B54E4F07409120B1A
:101DCB0054E4F07408120B54E4F07405120B54E451
:101DDB00F0741C120B5E7402120B54121D0A741A4F
:101DEB00120B5474A8F0A3740280197405120B54CF
:101DFB00E070077405120B54EAF08510828511838D
:101E0B00E8F0A3E91227DA122735FA24E060DC2484
:101E1B00FD601724F860DC24FE600624FD600F8053
:101E2B00117408120B54E00480CF740980F5740A06
:101E3B0080F1851082851183122735642A705C74BA
:101E4B005F120B54122735FAA3E0FB8A828B83E0D7
:101E5B00FCA3E0FD7406120B54ECF0A3EDF0EA24A6
:101E6B0002FA50010B745F120B5412277174061295
:101E7B000B54121CF8501F7406120B541226EDC390
:101E8B00E49AFAE49BFB7406120B5412277974083C
:101E9B00120B54E004F0121D0480427406120B5412
:101EAB00E4F0A3802C7406120B541226FD75F00A75
:101EBB00A4F8ABF075F00AE9A42BF9E82AF8E43999
:101ECB00F9E824D0F8E934FFF97406120B54122701
:101EDB00F51227B2FA74D02AC3940A40C8740812B8
:101EEB000B54E06007740A120B54E4F012273A64A7
:101EFB002E707B851082851183E024010812270246
:101F0B00E8F0A3E91227B2642A7027745F120B540E
:101F1B00122744F988828983E0FEA3E0FFE82402BC
:101F2B00F8500109745F120B541227241227F5F095
:101F3B0080407E007F0012273AF874D028C3940AA1
:101F4B005030EE75F00AA4FEA9F075F00AEFA42943
:101F5B00FFEE28F8E43FF9E824D0FEE934FFFF85D3
:101F6B001082851183E02401F8121CFF80C87EFFCC
:101F7B007FFF7A00851082851183E02401F81227F8
:101F8B0002E0FBA3E0F5838B82E024B4600824E439
:101F9B00600624FC70057A01121D0412273AC0E07A
:101FAB007404120B54D0E01227DA121D0A740412B7
:101FBB000B54E0700302254C24BB70030224212434
:101FCB00FE700302240624EF700302218B24F570AC
:101FDB0003022089147003022228147003022421A7
:101FEB0014700302241F14700302240624FE7003D2
:101FFB0002222824FB602414700302216F14700347
:10200B0002218B24FD70030220C924FE70030221E0
:10201B008B24FD700302217F022558745F120B5431
:10202B00122759E8FCE9FDE5082402F508500205E2
:10203B0009EAA2E0740B502F120B541226D73395DA
:10204B00E0FA8C828D83E8FCE9FDEAFEECF0A3ED6F
:10205B00F0A3EEF0A3F0745F120B5412270CE508FB
:10206B00F0A3E509021D6E120B541226D78C828D3C
:10207B0083121D0A745F120B5412272480E0745FC5
:10208B00120B54122744F5838882E0C0E0741C12B3
:10209B000B54D0E0F0745F120B541227402402F85B
:1020AB00A3E03400F9745F120B54122724121D0A9B
:1020BB00741D120B54A882A983740D022165745FE1
:1020CB00120B54122759E5082402FAE43509FB7464
:1020DB005F120B541227717402120B54121D0AE873
:1020EB0049700C7402120B5474B9F0A37402F01201
:1020FB0026AA50047E107F277508007509008008FA
:10210B000508E508700205097402120B541226D754
:10211B0088828983A3AA82AB837402120B54122781
:10212B007988828983E0600BC3E5089EE509122656
:10213B008F40CD7402120B541226DB740D120B540C
:10214B00121D0AC3E49508F8E49509F9740D120BF6
:10215B0054E028F8A3E039F97402120B54E8F0A309
:10216B00E902256F7409120B54E06008EE4F7004FE
:10217B007E017F00741A120B5474C8F0A37402F022
:10218B00745F120B5412274B7404120B54E06470DF
:10219B0070348508828509831226ED740F120B5457
:1021AB001227A7E5081226A0120B54122724121D82
:1021BB000A7416120B5474101227ABA3F074051289
:1021CB000B54E402229DEAA2E0E508501612269673
:1021DB00120B5412278F120A15740F120B54120A7A
:1021EB002180191226A0120B541227A2F8A3E0F992
:1021FB00E8FAE9FB740F120B541227A77404120BA5
:10220B0054E0646F70097416120B54740880A9E0C3
:10221B006475709D7416120B54740A809B745F1254
:10222B000B5412274BEAA2E0E50850101226961227
:10223B000B5412278F78081209DF80161226A01272
:10224B000B541227A2F508A3E0F5093395E0F50A24
:10225B00F50B740F120B5478081209EE900270787C
:10226B000812015B40217405120B54742DF0740F8E
:10227B00120B5478081209DF78081209CE740F126A
:10228B000B5478081209EE7416120B54740A1227A9
:10229B00ABA3F0744D120B54A882A9837402120BDA
:1022AB0054121D0A740D120B54122787120B541261
:1022BB000A15E8494A4B6004D2008009C200EE4F70
:1022CB00700302237C7402120B54122706120B5458
:1022DB00122787120B54780C1209DF7416120B5449
:1022EB0078081209DF780C790812095C741A120B42
:1022FB0054E02508F8A3E035098882F583E0C0E0B7
:10230B007402120B5412270CD0E0F0740F120B5402
:10231B00780C1209DF7416120B5478081209DF7847
:10232B000C790812095C740F120B54780C1209EE1D
:10233B00740F120B54120A15E8494A4B7087122678
:10234B00AA502E740A120B54E060267405120B541B
:10235B00E06004D2F08002C2F07406120B54122615
:10236B00C9800E7402120B5412277F120B541227C2
:10237B001D7402120B541226DB744D120B54C082C7
:10238B00C0837402120B541226EDD083D082E582E7
:10239B00C39AFAE5839BFBC3EA9EEB12268F40C3DD
:1023AB007409120B54E07003022570A20040030263
:1023BB0025707404120B54E064786005E064587067
:1023CB0010E088828983F0E824FF18E934FFF98054
:1023DB0017E0646F60030225707402120B5412270E
:1023EB0035643070030225707402120B5412277F70
:1023FB00120B5412270C743002256F7415120B54E8
:10240B007401F07404120B54E024FEF0EE4F700DC7
:10241B007E018010E4F07415120B54E4F01226AA1E
:10242B0050047E067F00745F120B5412274B8508F5
:10243B0082F583780C1209DFE508122696120B54ED
:10244B00122724122787120B54780C1209EE9002D4
:10245B007078081209DF780C790812036B5022741C
:10246B0005120B54742DF0740F120B5478081209CB
:10247B00DFE50BB2E7F50B740F120B54780812095A
:10248B00EE7406120B54741C120B5E8909E028F8CB
:10249B00A3E03509F97402120B54121D0A740912C8
:1024AB000B54E0F5087808120CCD7416120B54E09F
:1024BB00F5087808120CCD7404120B54120CE08E34
:1024CB00088F097808120CC9740A120B54E0F974BE
:1024DB0015120B541209FD1218187406120B1E74E8
:1024EB000D120B54122779740A120B54E060767498
:1024FB0005120B54E06004D2F08002C2F074061295
:10250B000B541226C9740D120B54C082C083740273
:10251B00120B541226D7D083D082E0C398F8A3E0D5
:10252B0099F9C3E89EE912268F503A7402120B54A4
:10253B00122706120B5412277F120B5412271D80E1
:10254B00C48510828511831226E4121D03740212B6
:10255B000B5474D9F0A37402F0740D120B5474DC89
:10256B00F0A37402F0740D120B54C082C08374027A
:10257B00120B541226D7D083D082E0C398FEA3E06F
:10258B0099FF7406120B54C3E09EA3E012268F50E2
:10259B000875080075090080297405120B54E0605A
:1025AB0004D2F08002C2F07406120B54E0C39EF802
:1025BB00A3E09FF9A2F0E433FAE89AF508E9940056
:1025CB00F5097408120B54E070208019745D120B1E
:1025DB00541226F3120B5412270C120B66740B12A7
:1025EB000B541227D01226B850E27405120B54E08C
:1025FB006056745D120B541226ED7405120B54E0E9
:10260B00F97413120B5412270C120B668032745D83
:10261B00120B541226ED7402120B54122740F9744C
:10262B0013120B5412270C120B667402120B54E08C
:10263B002401F8A3E03400F97402120B54121D0AA2
:10264B00740B120B541227D0EE24FF1EEF34FFFF36
:10265B00C31226AC50B87408120B54E07003021D61
:10266B006F1226B85003021D6F745D120B541226A5
:10267B00F3120B5412270C120B66740B120B541221
:10268B0027D080DD9FA2D265D033222404F8E43515
:10269B0009F9745F222402F8E43509F9745F22C347
:1026AB00EF1226B0229400A2D265D03322E5082483
:1026BB00FFF508E50934FFF509C31226B022A2F095
:1026CB00E433F8E098FEA3E09400FF2212276B227C
:1026DB001226DF221226E4F922E024FFF8A3E034CD
:1026EB00FF22E0FAA3E0FB22E0FAA3E0FB792074DF
:1026FB00132212276BE8221227E9221226DF74021B
:10270B00221227102212271422E0F8A3E0F5838867
:10271B0082221227107430F0221227282212272C23
:10272B0022E0FAA3E0F5838A8222122728E0228591
:10273B0010828511831227C1221227C1F8A3E02230
:10274B0012274F221227C5F508A3E0F509221227FD
:10275B004F850882F58312276B22851082851183A2
:10276B00E0F8A3E0F922E0FCA3E0F5838C82EAF029
:10277B00A3EBF022E8F0A3E9F0740222E8F0A3E95E
:10278B00F0740F221227932212272CE8F0A3E9F002
:10279B0085088285098322122793E022EAF0A3EBB6
:1027AB00F0A3E4F0A3F0221227B91227C122F0857F
:1027BB001082851183221227C522122714E022854D
:1027CB001082851183E02401F0A3E03400F0221283
:1027DB0027DE221227B9E02401F81227E922A3E011
:1027EB003400F985108285118322E8F0A3E91227C2
:1027FB00DEE8F0A3E92274F1120B6874F6120B08F1
:10280B00851082851183EAF0A3EBF0A3ECF0A3ED26
:10281B00F085108285118378081209DF9002F17818
:10282B000C1209DF7808790C12036B503385108278
:10283B0085118378081209DF900270780C1209DF7A
:10284B007808790C1202F0900226700A7422122A70
:10285B00057DFF0229FB7421122A057D7F0229FBCE
:10286B007404120B5E880889097808120CC974026B
:10287B00120B541209FD1217B77402120B1E85109E
:10288B0082851183120A09851082851183780812BB
:10289B0009DF9002A0780C1209DF7808790C12037B
:1028AB006B503285108285118378081209DF740111
:1028BB00C31313250AF50AE4350BF50B8510828536
:1028CB00118378081209EE7404120B54E024FFF004
:1028DB00A3E034FFF085108285118378081209DF9D
:1028EB009002F5780C1209DF7808790C12055CC0A0
:1028FB0008C009C00AC00B851082851183780C12A1
:10290B0009DF90029C78081209DF780C7908120510
:10291B005CD00BD00AD009D0087808790C12077656
:10292B0085108285118378081209EE851082851136
:10293B008378081209DF851082851183780C1209C0
:10294B00DF7808790C1203B77406120B547808124F
:10295B0009EE7404120B54E0F5083395E0F509F514
:10296B000AF50B7808120191900311780C1209DF0C
:10297B007808790C1203B7C008C009C00AC00B74E1
:10298B0006120B5478081209DF9002F9780C120921
:10299B00DF7808790C1203B79002FD780C1209DF6F
:1029AB007808790C12055C7406120B54780C12091A
:1029BB00DF7808790C1203B7900301780C1209DF4A
:1029CB007808790C12055C851082851183780C12BE
:1029DB0009DF7808790C1203B7D00FD00ED00DD0C9
:1029EB000C780C790812055CAA0CAB0DAC0EAD0F74
:1029FB00740A120B1E7F08020BCEF0A3E4F07AFFD1
:102A0B007BFF7C7F2274F1120B6874EA120B088532
:102A1B001082851183EAF0A3EBF0A3ECF0A3EDF0A9
:102A2B00C2007425120B5478081209DF90027078DB
:102A3B000C1209DF7808790C1202F0700B7A007B0C
:102A4B00007C807D3F022DDE851082851183780806
:102A5B001209DF900270780C1209DF7808790C12DA
:102A6B0002F07003022AF285108285118378081216
:102A7B0009DFEDC2E7F50B900305780C1209DF783F
:102A8B0008790C1202F070159002267422F0A3E460
:102A9B00F08510828511831209FD022DDE7425123B
:102AAB000B5478081209DF900305780C1209DF78B4
:102ABB0008790C1202F070149002267422F0A3E431
:102ACB00F07AFF7BFF7C7F7D7F022DDE7425120B5E
:102ADB005478081209DF900309780C1209DF780883
:102AEB00790C1202F0700B7A007B007C007D0002E7
:102AFB002DDE85108285118378081209DF90027014
:102B0B00780C1209DF7808790C12036B507174255D
:102B1B00120B5478081209DF7425120B54780C121F
:102B2B0009DF780C120209780C1201917808790CE4
:102B3B0012053790030D780C1209DF7808790C1207
:102B4B00031C500B9002267421F0A3E4F0809885AF
:102B5B00108285118378081209DFEDC2E7F50B852A
:102B6B00108285118378081209EE7425120B5478A4
:102B7B00081209DF7808120209E508A2E092008525
:102B8B00108285118378081209DFE50B5480443FCE
:102B9B00F50BE50AC2E7F50A7406120B5478081216
:102BAB0009EE85108285118378081209DFE50A3357
:102BBB00E50B332482F5083395E0F509F50AF50B9F
:102BCB0078081201917425120B54780C1209DF78D6
:102BDB0008790C1203B7740E120B5478081209EE15
:102BEB00740E120B541209FD121699851082851161
:102BFB0083120A0985108285118378081209DF7800
:102C0B00081202097404120B54E508F0A3E509F04D
:102C1B007406120B541209FD1228017412120B5474
:102C2B00120A097425120B5478081209DF74041266
:102C3B000B54E0F50CA3E0F50D3395E0F50EF50F15
:102C4B00780C1201917808790C1205377412120B5B
:102C5B0054780C1209DF7808790C1203B7C008C03E
:102C6B0009C00AC00B740E120B5478081209DF85C9
:102C7B001082851183780C1209DF7808790C120504
:102C8B0037900311780C1209DF7808790C1203B70F
:102C9B00D00FD00ED00DD00C780C790812055CAA91
:102CAB000CAB0DAC0EAD0F1213C3740A120B5412F6
:102CBB000A09851082851183E4F0A3F0A37480F0D8
:102CCB00A3743FF07404120B54E0FAA3E0FB12134D
:102CDB00A7EA4B702F022D7B7406120B54780C1243
:102CEB0009DF7406120B5478081209DF780C790887
:102CFB001203B77406120B54780C1209EEEBC313C4
:102D0B00FBEA13FAEAA2E05027851082851183783B
:102D1B000C1209DF7406120B5478081209DF780CB9
:102D2B0079081203B7851082851183780C1209EE8E
:102D3B0074016A4B70A27404120B54C3A3E0940089
:102D4B00A2D265D0335029750800750900750A8029
:102D5B00750B3F851082851183780C1209DF78087B
:102D6B00790C12077685108285118378081209EE8B
:102D7B00740A120B5478081209DF7404120B54E016
:102D8B00F9851082851183780C1209DFE9A2E7130C
:102D9B00F9E413250EF50EE9350FF50F7808790CCC
:102DAB001203B7740A120B5478081209EEA20074BE
:102DBB000A5010120B5478081209DFE50BB2E7F535
:102DCB000B8008120B5478081209DFAA08AB09AC68
:102DDB000AAD0B7416120B1E7F08020BCEEEC0E071
:102DEB00E9FA7B001212B5D0E0FE2274F7120B68E1
:102DFB0074FE120B08740B120B5E85108285118307
:102E0B00E8F0A3E9F0A810A911880889097808123D
:102E1B000CC9E4F508F5097808120CC97CE87D2D7E
:102E2B00121D277404120B1E7402120B1E7F02025A
:022E3B000BCEBC
:040000050000005F98
:00000001FF
