:020000040000FA
:0300000002005F9C
:030013000214BF15
:10001B000214D800000080FBE490020078387901CC
:10002B008002F0A3D8FCD9FA7A377B0290006E7865
:10003B00A779018015E493A3AD82AE838A828B836B
:10004B00F0A3AA82AB838D828E83D8E9D9E71214F1
:10005B00A412001E75D0007581BF751000751102BA
:10006B0002002342783A2025642C2042793A20253D
:10007B00642C20427A3A2025640A2C20616E676C2E
:10008B00653A2000E8030000E02E6542000034438F
:10009B0000000000DB0F49C000002041303132333B
:1000AB0034353637383941424344454600286E755E
:1000BB006C6C20706F696E7465722900303132334D
:1000CB00343536373839616263646566003F3F3FCC
:1000DB00000000807F0000803FF9021550B743BA43
:1000EB005100E7DB2E0000A0400100803F000080A4
:1000FB00BF24FF2BBC8844A63E18C03F40B5FD680B
:10010B0040EAB48640B6FD6840C008C3E096F508E7
:10011B0008A3E096420808A3E096420808A3E096DD
:10012B004208A2D265D033E5087001D3D00822C3B0
:10013B00E7960809E7960809E7960809E796220863
:10014B000808E630E711120984120162080808C694
:10015B004480C618181822181818E9799EC608CAC0
:10016B00C608CBC608CCC6C370207996CACBCC7058
:10017B0019798ECBCC70137986CC700EF9802ACA84
:10018B0033CACB33CBCC33CC331930E7F2CCCBCA1D
:10019B003350147004EA30E00DE4CA3ACACB3BCBBF
:1001AB00CC3CCC500209C3E913C6CC182313C6CBE5
:1001BB0018C6CA18C6F92212020220F01430E72B17
:1001CB0074FFFCFBFA747F8022E4FCFBFA748080E2
:1001DB001AB48008BC00F2BB00EF800F50EBF9E4BF
:1001EB00C39AFAE49BFBE49CFCE499C6CC18C6CBFF
:1001FB0018C6CA18C6F922E4C9C608CAC608CBC6AF
:10020B00D3330308CCC63392F0C3947F402E94189B
:10021B004019C9B90704CACBCC225025C309CA332C
:10022B00CACB33CBCC33CC33D9F422F4600DC9CC4D
:10023B00C313CB13CBCA13CAD9F6CC22E4FCFBFAFB
:10024B002214FCFBFA22E62618461846184622E72B
:10025B002719471947194722181818E60846087036
:10026B0009E626087005E633F4220822191919E766
:10027B000947097009E727097005E733F4220922BA
:10028B00E6084608C3134608336002E633F422E758
:10029B00094709C3134709336002E733F4221202FB
:1002AB008B602512029A6020120251700302025ACF
:1002BB00080808E76670101819E766700A1819E73E
:1002CB006670041819E76622F42212028B601C1266
:1002DB00029A6017120251700712025A7001D32250
:1002EB00C0D012025A7006D0D0B322C32233D0D062
:1002FB00501430E0F6C3E7960809E7960809E7962D
:10030B000809E796B32220E0D5E6970809E6970897
:10031B0009E6970809E697B32212028B601B1202BB
:10032B009A6016120251700712025A600CB322C067
:10033B00D012025A7005D0D022C32233D0D0501322
:10034B0030E0EBC3E7960809E7960809E79608093A
:10035B00E7962220E0E4E6970809E6970809E69776
:10036B000809E697220012028B604F12029A601264
:10037B00E7548066F6120263701112025A703B0941
:10038B000909F4F618F618F618F62212027770150A
:10039B0012025108080860EAE6447FF618768018C6
:1003AB00E4F618F622120251601612025A7012E489
:1003BB00F608F608F608E65480F609090918181825
:1003CB0022EAC0E0EBC0E0ECC0E0EDC0E0E687F075
:1003DB00A4FBACF008E687F0A42CFCE435F0FA188B
:1003EB0009E687F0A42C4B60027401CA35F0FCE4DB
:1003FB0033FB09E687F0D2F7A42CCB35F0FC1908B8
:10040B00E687F0A42BCC35F0FBE433FD0819E68727
:10041B00F0D2E7A42C4ACB35F0CD3400FC09E687AB
:10042B00F0D2E7A42DCC35F0FDE433FA0918E687BA
:10043B00F0D2F7A42CCD35F0CA3400FC08E687F0D7
:10044B00D2E7D2F7A42ACC35F07A7E20E70B0ACB81
:10045B0033CBCD33CDCC33CC33CB3350147004ED05
:10046B0030E00ED2F1E4CD3DCDCC3CCC3B5005DAA7
:10047B0005C2F1EB547FC63308E63392F0FBE7334A
:10048B0009E733C39A502D2B70190C0D4C4D701579
:10049B001806E608C333700D20F10AA2F013F6E438
:1004AB0018800B4024E4F630F002768018F618F62C
:1004BB0018F68024D33B14501074FFA2F013F618D7
:1004CB007680E418F618F6800FA2F013F618E633D0
:1004DB0003F618ECF618EDF6D0E0FDD0E0FCD0E01A
:1004EB00FBD0E0FA2212029A604612028B603DE9C1
:1004FB00687008F618F618F618F622748067F7126B
:10050B000524090909748067F72212028B601D12FA
:10051B00029A7005191919801A120263701F1202C0
:10052B0077C37003E6673319191940071818182297
:10053B0008080874FFF618F618F618F62212027758
:10054B00601712025A702192F01202517019501753
:10055B0020F014080808090909E7F61819E7F61836
:10056B0019E7F61819E7F62212025160E6E86970EE
:10057B001F0808E62480F608E436F618547FB47F8B
:10058B000CE654806007F6E418F618F622181822C9
:10059B00E9C6CC08C6CD08C6CE08C6CFC0E0E8C0B9
:1005AB00E0EAC0E0EBC0E009E9F809E7FA09E7FB8C
:1005BB00E6F918E6F8C3EC98ED99EE9AEBC2E7F57D
:1005CB00F0EFC2E795F0500E600CEBCFFBEACEFAE2
:1005DB00E9CDF9E8CCF8EAA2E7D2E7FAEB33FB1363
:1005EB00F5F0EEA2E7D2E7FEEF33FFC5F013A2E77B
:1005FB0030E601B313C5F0C3C0E0C0F07F00C39B6E
:10060B00FB605E9418600F401D14601AD0E023F954
:10061B00D0E0F80206F68AF0E9486003D2F0E4AFC6
:10062B00F0FAF9F8803BEB30E40D89F0EA6003D285
:10063B00F0E4AFF0F9CAF8EB30E30D88F0EF6002AD
:10064B00D2F0AFF0E4CAC9F8EB54076014FBC3EA6D
:10065B0013FAE913F9E813F8EF135002D2E0FFDBBA
:10066B00EDD0E0C0E030E739C3E49FFFF5F0EC9844
:10067B00FC42F0ED99FD42F0EE9AFE42F0D0E0F92B
:10068B00D0E0F8E5F0607AE923F9EE20E742D802F2
:10069B008067C3EF33FFEC33FCED33FDEE33FE80AD
:1006AB00EAEC28FCED39FDEE3AFED0E023F9D0E080
:1006BB00F84002801BC3EE13FEED13FDEC13FCEFB1
:1006CB00135002D2E0FF08B800067F7F74FF802E24
:1006DB00EF3350178CF020F00260100CBC000C0DA7
:1006EB00BD00080EBE000408E860DFE933E813FF25
:1006FB00EE2313FE4F4D4C8008E95480FFE4FEFDC2
:10070B00FCEE33EF33F47004FCFD7E80D0E0FBD0C5
:10071B00E0FAD0E0F8D0E0CFC618CEC618CDC61898
:10072B00CCC6F92212028B70041818182212029AE6
:10073B00700D74FFF61819F61819F61819F622E74A
:10074B00548066F6120251700F12025A70F014F6B2
:10075B0008F608F608F680D112025A700CF608F665
:10076B0008768008E6447F80EC12027A700C120245
:10077B006660BFE65480F6E480BB12026670051912
:10078B00191980A5E869700C763F18768018F61851
:10079B00F6E8F922E6CDC0E018ECC0E0E633CD3345
:1007AB00CDD313F6E719FCE7191933CC33C3947F78
:1007BB00400ECD9D502408E65480F6E418F6800FC9
:1007CB00F4043D14501408E6447FF6187680E418C0
:1007DB00F618F6D0E0FCD0E0FD22CCD313CCFD18FC
:1007EB00E4C6CBC0E018E4C6CAC0E00808ED08C6F2
:1007FB0033E613F618E433C675F003C3CA97CA0978
:10080B00CB97CB199C40047D08802EBD00030208BA
:10081B00D816B6FF050606081618C3CA33CACB335B
:10082B00CB33CA27CA09CB37CB193CC37D08803ED3
:10083B00187D0820E75CC633C6CA33CACB33CB332B
:10084B00DDF1D5F0EB30E77BCA97CA09CB974ACBE2
:10085B00199C406F4B7025E620E0218066187D08BF
:10086B00C3CA97CA09CB97CB199CD3C633C6CA3315
:10087B00CACB33CB3350C9DDE7D5F0E1D3E4C63671
:10088B00C608C636C608C636C608C636C6181818F1
:10089B008031C3CA97CA09CB97CB199CB34097C673
:1008AB0033C6CA33CACB33CB33DD34D5F02EC6A215
:1008BB00E0C640C8CA27CA09CB37194A70BECB3C21
:1008CB00B480B90808E63308E633601F181818D04F
:1008DB00E0FAD0E0FBD0E0FCD0E0FD22187D08CAA6
:1008EB0027CA09CB37CB193CD3808013F618E4B653
:1008FB007F11F618B6FF0EF618C60470D2080876EC
:10090B008080CAF618F618F680C5E4CFC0E0E4CEB6
:10091B00C0E0E4CDC0E0E4CCC0E075F020E626F604
:10092B0008E633F608E633F608E633F6181818EC43
:10093B0033FCED33FDEE33FEEF33FFC3EC9709EDE4
:10094B009709EE9709EF97191919400FFFEC97FCD0
:10095B0009ED97FD09EE97FE191906D5F0BFECF7D7
:10096B0009EDF709EEF709EFF7191919D0E0FCD0EB
:10097B00E0FDD0E0FED0E0FF22181818E4C396F695
:10098B0008E496F608E496F608E496F622E0F608F4
:10099B00A3E0F608A3E0F608A3E0F622E6F008A32E
:1009AB00E6F008A3E6F008A3E6F022E0FAA3E0FBEA
:1009BB00A3E0FCA3E0FD22E0F8A3E0F9A3E0FAA397
:1009CB00E0FB22E8F0A3E9F0A3EAF0A3EBF022CAE4
:1009DB00C0E0E6F0A308DAFAD0E0FA22CAC0E0E001
:1009EB00A3C582CCC582C583CDC583F0A3C582CCFC
:1009FB00C582C583CDC583DAE6D0E0CA22C3E498AD
:100A0B00F8E499F9120A498026C3E49AFAE49BFBAD
:100A1B00E920E7E9120A49E498F8E499F922C3E4DA
:100A2B0098F8E499F9120A49E498F8E499F9C3E4BF
:100A3B009AFAE49BFB22EB20E7CFE920E7E0B90031
:100A4B0010BB0008E88AF084F8AAF022E4FBC8FA8D
:100A5B0022EB70227B10C833C8C933C9335007C38C
:100A6B009AC3DBF280069A50012ADBEAC833F4C83A
:100A7B00C933F4C9FA2275F008E4C833C8C933C9BD
:100A8B0033C99AC99B5004C92AC93BD5F0ECFBC8A2
:100A9B0033F4C8E4C9FA22700422600D18C6C333BC
:100AAB00C608C633C6D5E0F41822251010AF08F5DA
:100ABB0010400C15118008F51040021511D2AF2211
:100ACB0000C0D0251010AF08F510500C0511800890
:100ADB00F51050020511D2AFD0D0222510F582109F
:100AEB00AF08F510400C15118008F51040021511D8
:100AFB00D2AF851183222510F582E43511F58322BF
:100B0B002510F8E43511F922E4732510C582C0E0F5
:100B1B00E51134FFC583C0E0E510C3958224F910BD
:100B2B00AF0885831185821080088583118582101B
:100B3B00D2AFCEF0A3E520F0A37808E608F0A3DE51
:100B4B00FAEFF0A3E58124FBF8E608F0A3E608F042
:100B5B00A30808E608F0A3E608F0A315811581D0D9
:100B6B00E0FED0E0F815811581E8C0E0EEC0E02290
:100B7B00851183851082E0A3FEE0A3F5207808E0C1
:100B8B00A3F608DFFAE0A3FFE0A3C0E0E0A3C0E018
:100B9B00E0A3C0E0E0A3C0E010AF0885821085831E
:100BAB00118008858210858311D2AFD083D0822229
:100BBB00C0D02510C582C0E0E51134FFC583C0E06D
:100BCB00E510C3958224F310AF088583118582103D
:100BDB008008858311858210D2AFC8F0A3E9F0A3FA
:100BEB00EAF0A3EBF0A37908E709F0A3D8FAECF04D
:100BFB00A3EDF0A3EEF0A3EFF0A3D0E0F0A3D0E0D1
:100C0B00F0A3D0E0F0A3E520F0A3E5F0F0A322855C
:100C1B001183851082E0C0E0A3E0F9A3E0FAA3E022
:100C2B00FBA37808E0F608A3DFFAE0FCA3E0FDA342
:100C3B00E0FEA3E0FFA3E0C0E0A3E0C0E0A3E0F58B
:100C4B00D0A3E0F520A3E0A3F5F010AF0885831146
:100C5B008582108008858311858210D2AFD082D017
:100C6B0083D0E0F8D0E03274048006740280027402
:100C7B0001C0E0F404120AE6D0E01209DA22740291
:100C8B008000CCC0E0EDC0E0E510C39CCCAD1150B2
:100C9B00011D10AF068C108D1180068C108D11D29A
:100CAB00AF1209E7D0E0FDD0E0FC227586C053F10E
:100CBB00FE53BEFBE59DA2E650FA0078007900805A
:100CCB00060008E8700109C3E894F8E9940140F1C3
:100CDB0075C600E59E70FC43BE0443FE0143FE0255
:100CEB0043FE10438F01E5F1A2E0500543F4308041
:100CFB000343F30CE5C654032408F5C575C23B4307
:100D0B00868043C482D2E943864043A8842275F18E
:100D1B000043F33043FA3B43FC0843FB8043F8C0EA
:100D2B00C2EAC28FD2ABD2AF22E9F8740A6870075D
:100D3B00A2E950FC75C10DA2E950FCC2E9E8F989A2
:100D4B00C122EBC313FBEA13FAEAF8EBF9E824FF31
:100D5B00FAE934FFFBE849601300000000000000D3
:100D6B000000000000000000000080DD2243FE02B6
:100D7B007A057B00120D4DD291D2907A057B001231
:100D8B000D4DC2917A057B00120D4DC2907A057BF9
:100D9B0000020D4DC2907A017B00120D4D43FE02F5
:100DAB007A017B00120D4DC2917A057B00120D4D1D
:100DBB00D2917A057B00020D4DEEC0E0E9FEC290A8
:100DCB007A057B00120D4D43FE027A057B00120D56
:100DDB004DEEA2E09291D2907A057B00120D4DC29E
:100DEB00907A057B00120D4DD0E0FE22C2907A0561
:100DFB007B00120D4D43FE02D29153FEFD7A057B13
:100E0B0000120D4DD2907A057B00120D4DA2915020
:100E1B0005C290790022C29079012274F8120B1549
:100E2B00E9FF43FE027E00801BEFC333FFA2D79284
:100E3B0091D2907A057B00120D4DC2907A057B0002
:100E4B00120D4D0EEEC3940840DF120DF7E97F0132
:100E5B00020B7B74F8120B157E00C29043FE02D27C
:100E6B00917A057B00120D4D53FEFD7F00801EEE27
:100E7B00C333FED2907A057B00120D4DA291E43361
:100E8B00CE4ECEC2907A057B00120D4D0FEFC39460
:100E9B000840DCEEF97F01020B7B74F8120B15E9AD
:100EAB00FFEAFE120D78793C120E26EFF9120E2690
:100EBB00EEF9120E26120D9F7F01020B7B74F812B6
:100ECB000B15120D78793C120E267903120E261291
:100EDB000D78793D120E267E0080067900120DC426
:100EEB000EEEC394075023120E5EE9C0E0EEF879C4
:100EFB0000740028F582740239F583D0E0F0740693
:100F0B006E70D87901120DC480D6120D9F7AE87BD2
:100F1B0003120D4D7F01020B7B74F1120B1574FC48
:100F2B00120AB58A0C8B0D8C0E8D0F7402120B01ED
:100F3B007400F0A37400F0802C851082851183E07F
:100F4B0024FFF0A3E034FFF0851082851183E0F8D5
:100F5B00A3E0F9E84970E27402120B01E02401F0FE
:100F6B00A3E03400F07402120B01E0F508A3E0F5E6
:100F7B0009E4F50AF50B780C790812013A500F8544
:100F8B001082851183740BF0A37400F080BA740483
:100F9B00120ACB7F08020B7B74F8120B1574FE122E
:100FAB000AB5EAFEEBFF8510828511837400F0A36E
:100FBB007400F080189002581209B6120F24851095
:100FCB0082851183E02401F0A3E03400F0851082C8
:100FDB00851183C3E09EA3E09F40DA7402120ACB13
:100FEB007F01020B7B7A007902120EA57A00790140
:100FFB00020EA574F7120B15EAFCEBFDECF8EDF9FC
:10100B007A107B27120A49E82430900216F0ECF88C
:10101B00EDF97A107B27120A498A088B09AC08ADC7
:10102B0009ECF8EDF97AE87B03120A49E8243090D1
:10103B000215F0ECF8EDF97AE87B03120A498A08FD
:10104B008B09AC08AD09ECF8EDF97A647B00120A58
:10105B0049E82430900214F0ECF8EDF97A647B0047
:10106B00120A498A088B09AC08AD09ECF8EDF97A3C
:10107B000A7B00120A49E82430900213F0ECF8EDD9
:10108B00F97A0A7B00120A498A088B09AC08AD0968
:10109B00EC2430900212F07F02020B7B74F1120BE6
:1010AB0015120EC8900200E0F87900E4C8F990021E
:1010BB0001E0FA7B00E84AF8E94BF9900208E8F006
:1010CB00A3E9F0900204E0F87900E4C8F990020576
:1010DB00E0FA7B00E84AF8E94BF990020AE8F0A342
:1010EB00E9F0900202E0F87900E4C8F9900203E01D
:1010FB00FA7B00E84AF8E94BF990020CE8F0A3E917
:10110B00F0900208E0F508A3E0F509E5093395E056
:10111B00F50AF50B780812014A7808120C72900246
:10112B000AE0F508A3E0F509E5093395E0F50AF5C2
:10113B000B780812014AAA08AB09AC0AAD0B1215C1
:10114B00E57404120ACB8A088B098C0A8D0B90026A
:10115B005C780C1209987808790C12037090026075
:10116B00780C1209987808790C12051590020E78F4
:10117B00081209A790020E78081209987808120134
:10118B00C2AA08AB09120FFE900214E0F87900E82E
:10119B0075F064A4C8AAF075F000A42AFA75F0647F
:1011AB00E9A42AF9900213E0FA7B00EA75F00AA48D
:1011BB00CAACF075F000A42CFC75F00AEBA42CFB68
:1011CB00E82AF8E93BF9900212E0FA7B00E82AFEE4
:1011DB00E93BFF90020C120C8990020A120C8990C9
:1011EB000208120C897A377B021227707406120AD6
:1011FB00CB900214E0F9120D34E9900213E0F912CE
:10120B000D34E9900212E0F9120D34E9790D120D4B
:10121B0034E97A327B00120FA37F08020B7B80200C
:10122B0000000000000000000000000000000000B3
:10123B0000000000000000000000000000000000A3
:10124B00EAF8EBF9E824FFFAE934FFFBE84970D040
:10125B002212127D1212897A327B0012122912127B
:10126B00837A327B0012122912128F7A327B0002A0
:10127B00122943FE04D2922243FE04C2922243FE61
:10128B0008D2932243FE08C2932253FEFB22121272
:10129B008312128F7A327B001212291212897A3240
:1012AB007B0012122902127D1212831212897A32DA
:1012BB007B0012122912128F7A327B000212291232
:1012CB00127D1212897A327B0012122912128F7A36
:1012DB00327B0002122912127D1212897A327B00A4
:1012EB00121229A29292D57A327B00121229121273
:1012FB008F7A327B00121229A2D550037900227902
:10130B000122EEC0E0E9FEEE6005121283800312AB
:10131B00127D7A327B001212291212897A327B00EB
:10132B0012122912128F7A327B00121229D0E0FE90
:10133B002274F7120B15E9FF7E0080041212B30E14
:10134B00EEC394085017EFF508750900EE780812F4
:10135B000AA2E508548060E41212CA80E27F0202FE
:10136B000B7B74F7120B15EAFEEBFF7508001212DC
:10137B007D7509008008E508C333F5080509E50903
:10138B00C39408502E12128F7A327B00121229123C
:10139B0012897A327B00121229121295A29292D5DF
:1013AB00A2D550D2E508C333F508D3E50892E0F592
:1013BB000880C912128FEE4F7007790012130D803F
:1013CB0005790112130DA9087F02020B7B74F11230
:1013DB000B1574FC120AB58A0C8B0D8C0E8D0F74C9
:1013EB0002120B017400F0A37400F0802C851082A4
:1013FB00851183E024FFF0A3E034FFF08510828594
:10140B001183E0F8A3E0F9E84970E27402120B01D2
:10141B00E02401F0A3E03400F07402120B01E0F5BC
:10142B0008A3E0F509E4F50AF50B780C790812012D
:10143B003A500F851082851183740BF0A37400F062
:10144B0080BA7404120ACB7F08020B7B74F8120B60
:10145B001574FE120AB5EAFEEBFF85108285118327
:10146B007400F0A37400F080189002581209B612A1
:10147B0013D8851082851183E02401F0A3E034009A
:10148B00F0851082851183C3E09EA3E09F40DA7440
:10149B0002120ACB7F01020B7B120CB6120D191232
:1014AB000FF07A327B001214571214FD121515121D
:1014BB0010A780FBC0E0C0D0C082C083C28BE5C147
:1014CB00900217F0D083D082D0D0D0E032C0E0743D
:1014DB00F2120BBBE5F9900218F0900218E0F9122A
:1014EB000D34E97F01020C1AC2E9EAF5C1A2E950F9
:1014FB00FC2212125C79EE12133C1212E1E9791EF6
:10150B0012133C1212E1E902129974F6120B1575C3
:10151B000A00750A000215CF12125C79EE12133C09
:10152B001212E1E97A647B0012122975F002E50AC6
:10153B00A424A0F912133C1212E1E97A647B001285
:10154B0012291212997A647B0012122912125C79F9
:10155B00EF12133C1212E1E97A647B001212297A22
:10156B00017B0012136DE9FE7F007A007B001213E2
:10157B006DE9F5087509001212997AE87B031212CE
:10158B0029E4CEFFEE4508F8EF4509F9E8FCE9FD43
:10159B00E4FEFFE50AF87900E875F004A4C8AAF0A8
:1015AB0075F000A42AFA75F004E9A42AF974192835
:1015BB00F582740239F583ECF0A3EDF0A3EEF0A302
:1015CB00EFF0050AE50AC3940750030215237AE8E6
:1015DB007B031212297F03020B7B74F1120B157420
:1015EB00F8120AB5851082851183EAF0A3EBF0A3FC
:1015FB00ECF0A3EDF0851082851183780812099821
:10160B00900264780C1209987808790C1202A97070
:10161B002F7417120B017808120998900264780C3A
:10162B001209987808790C1202A97014900235747B
:10163B0021F0A3E4F07AFF7BFF7C7F7D7F02176FA5
:10164B0085108285118378081209987417120B0183
:10165B00780C1209987808790C120515851082857B
:10166B001183780C1209987808790C1202A985104D
:10167B008285118378087024120998900264780C83
:10168B001209987808790C1202D57ADB7B0F7CC98A
:10169B0050057D3F02176F7DBF02176F12099874BB
:1016AB0017120B01780C1209987808790C12072F76
:1016BB007404120B0178081209A77417120B017826
:1016CB0008120998900264780C1209987808790C22
:1016DB0012032485108285118378081209989002D1
:1016EB0064780C1209987808790C50591202D5506D
:1016FB00287508DB75090F750A49750B40740412C0
:10170B000B011209B61227B78A0C8B0D8C0E8D0F9D
:10171B007808790C1204F080227404120B01120960
:10172B00B61227B78A088B098C0A8D0B9002687842
:10173B000C1209987808790C120515AA08AB09AC9C
:10174B000AAD0B801F1202D57404500B120B011241
:10175B0009B61227B7800D120B011209B61227B763
:10176B00EDB2E7FD7408120ACB7F08020B7B74F114
:10177B00120B1574FD120AB57402120B01E9F08AF3
:10178B00088B098C0A8D0B7414120B01E0FEA3E07D
:10179B00FF851082851183E4F0A3F0EE2403FAE4B5
:1017AB003FFB8E828F83A3AC82AD839002A5780C16
:1017BB001209987808790C1202A970188E828F83FF
:1017CB007469F08C828D83746EF08E828F83A3A3E9
:1017DB007466801F780879081202A9601A8E828FAE
:1017EB0083746EF08C828D837461F08E828F83A3F1
:1017FB00A3746EF0021C0C9002A9780C1209987855
:10180B0008790C1202D550030218B5900264780CBB
:10181B001209987808790C1202A96003021909744D
:10182B0016120B01E0700302194B85108285118390
:10183B00C082C0837412120B01122638D083D0825F
:10184B00121C47502E851082851183C3E094FCA394
:10185B00E094FFA2D265D03340197402120B01E45D
:10186B0012271A1226387412120B01C3E098F0A338
:10187B00E099F07412120B01121C7E7417120B01FB
:10188B00E070030219487416120B01E402194A9016
:10189B0002AD780C1209987808790C12072F851075
:1018AB0082851183E0240A1227349002B1780C123E
:1018BB0009987808790C1202D540D490026C780CF8
:1018CB001209987808790C1202D5400302182A9055
:1018DB00026C780C1209987808790C12072F1227D2
:1018EB002B80D89002AD780C1209987808790C12DD
:1018FB000370851082851183E024F6121C819002FF
:10190B00B5780C1209987808790C12032440D490FE
:10191B0002A9780C1209987808790C120324400359
:10192B0002182A90026C780C1209987808790C121C
:10193B000370851082851183121C7E80D27401F096
:10194B007402120B01E060047A00807F121C53506A
:10195B007E8E828F837430F0ECFEEDFF7412120BCF
:10196B0001E0FCA3E0FDEC4D70087417120B01E0D5
:10197B00600B8E828F83742EF0A30EAF837A007B65
:10198B000080118E828F837430121C777412120BAD
:10199B0001121C7EEA24FF1AEB34FFFB85108285B3
:1019AB001183121C3B500B7412120B0112265E4951
:1019BB0070D185108285118374FFC39CF874FF9DD1
:1019CB00F9121C475003021B1E7A017B0080711217
:1019DB001C2CFAE499FB806885080C85090D850A97
:1019EB000E850B0F780C1201C2AC0CE50D3395E094
:1019FB00F50EF50F780C12014A7808790C1204F0E9
:101A0B0090026C780C1209987808790C120370EC20
:101A1B00121C71EAF8EBF9E824010AE439FBE849F6
:101A2B00701E7412120B0112265E49700874171285
:101A3B000B01E0600B8E828F83742EF0A30EAF83AD
:101A4B007412120B01121C3B508E9002B9780C12BF
:101A5B0009987808790C1202D54003021B1E7C01F1
:101A6B00EE24FFF8EF34FFF97414120B01E0F508C4
:101A7B00A3E0F50988828983E0642E6010E02CF0E6
:101A8B00643A70077430F07C0180027C00E8FAE95C
:101A9B00FBEA24FF18EB34FFF9C3E5089AE5099B31
:101AAB0040D2ECA2E0506C7402120B01E0603BEEF2
:101ABB00F8EF800DEC88828983F0E824FF18E93475
:101ACB00FFF9C3E50898E50999501A121C16E0FCBA
:101ADB00742E6C70DFE824FEF582E934FFF5831277
:101AEB001C23F980D512272B801E8E828F83A3AEE9
:101AFB0082AF83EEF8EF8006121C16121C23F9C37B
:101B0B00E50898E5099940F07414120B0112266D43
:101B1B007431F07416120B01E07005801C1EAF833C
:101B2B00EE24FFF582EF34FFF583E0F87430686044
:101B3B00EC742E6870031EAF837402120B01E070FD
:101B4B0003021C088E828F83F0EE2402E43FF9A37C
:101B5B00AA82AB83121C538A828B835012742DF092
:101B6B000E0EE9FF121C2CF8E499121C648007740A
:101B7B002BF00E0EE9FF7C007D00EE240AFE5001D7
:101B8B000F0CEC70010D121C33120A41EA121C717E
:101B9B00121C33120A41121C65851082851183E0D9
:101BAB004970DEC3EC9402ED12260D40D4ECFAED35
:101BBB00FBC3E49CF8E49DF9EE28F582EF39F5833D
:101BCB00E0C0E0C3E49AF8E49BF9EE28F8EF39F9AA
:101BDB00E82CF8E93DF9E824F5F582E934FFF583C3
:101BEB00D0E0F0EC24FF1CED34FFFDC3EC9401EDD1
:101BFB0012260D50BCEE24F6FEEF34FFFFEEFAEF8B
:101C0B00FB7403120ACB7F08020B7BE824FFFAE973
:101C1B0034FFFB8A828B8322E088828983F018EB66
:101C2B00221226C6C3E498221226C67A0A7B002209
:101C3B00C3E09AA3E09BA2D265D03322C3E098A362
:101C4B00E099A2D265D03322851082851183C3A37C
:101C5B00E012261122A3E03400F98510828511834E
:101C6B00E8F0A3E9F02224308E828F83F0A3AE82BA
:101C7B00AF8322E024FFF0A3E034FFF02274F112D3
:101C8B000B1574B2120AB58510828511831226DAF0
:101C9B007413120B01ECF0A3EDF0740B120B01E4B7
:101CAB00F0A38020745D120B0112264E7413120BDD
:101CBB000112266D120B13740B120B01E02401F0B1
:101CCB00A3E03400F012269BF9851082851183E086
:101CDB002401FAA3E03400FB8510828511831226C0
:101CEB00DA7425696010E970BB740B120B011226B4
:101CFB004E744E021C0E12269B64257019851082A1
:101D0B00851183E0240108121C60745D120B011213
:101D1B00264E79258096740A120B01E4F074091291
:101D2B000B01E4F07408120B01E4F07405120B01C3
:101D3B00E4F0741C120B0B7402120B01121C6B746B
:101D4B001A120B017470F0A3740280197405120B34
:101D5B0001E070077405120B01EAF0851082851102
:101D6B0083E8F0A3E912273B122696FA24E060DC05
:101D7B0024FD601724F860DC24FE600624FD600F50
:101D8B0080117408120B01E00480CF740980F57484
:101D9B000A80F1851082851183122696642A705C65
:101DAB00745F120B01122696FAA3E0FB8A828B83D7
:101DBB00E0FCA3E0FD7406120B01ECF0A3EDF0EADE
:101DCB002402FA50010B745F120B011226D2740617
:101DDB00120B01121C59501F7406120B0112264EC6
:101DEB00C3E49AFAE49BFB7406120B011226DA7415
:101DFB0008120B01E004F0121C6580427406120BF2
:101E0B0001E4F0A3802C7406120B0112265E75F010
:101E1B000AA4F8ABF075F00AE9A42BF9E82AF8E468
:101E2B0039F9E824D0F8E934FFF97406120B0112E2
:101E3B002756122713FA74D02AC3940A40C8740881
:101E4B00120B01E06007740A120B01E4F012269BDF
:101E5B00642E707B851082851183E0240108122685
:101E6B0063E8F0A3E9122713642A7027745F120B3F
:101E7B00011226A5F988828983E0FEA3E0FFE824FE
:101E8B0002F8500109745F120B01122685122756B6
:101E9B00F080407E007F0012269BF874D028C394FC
:101EAB000A5030EE75F00AA4FEA9F075F00AEFA403
:101EBB0029FFEE28F8E43FF9E824D0FEE934FFFFD0
:101ECB00851082851183E02401F8121C6080C87E86
:101EDB00FF7FFF7A00851082851183E02401F812C1
:101EEB002663E0FBA3E0F5838B82E024B460082437
:101EFB00E4600624FC70057A01121C6512269BC057
:101F0B00E07404120B01D0E012273B121C6B74041B
:101F1B00120B01E070030224AD24BB700302238279
:101F2B0024FE700302236724EF70030220EC24F5D8
:101F3B007003021FEA147003022189147003022339
:101F4B008214700302238014700302236724FE7033
:101F5B000302218924FB60241470030220D0147027
:101F6B00030220EC24FD700302202A24FE700302DE
:101F7B0020EC24FD70030220E00224B9745F120BE5
:101F8B00011226BAE8FCE9FDE5082402F508500227
:101F9B000509EAA2E0740B502F120B0112263833FD
:101FAB0095E0FA8C828D83E8FCE9FDEAFEECF0A368
:101FBB00EDF0A3EEF0A3F0745F120B0112266DE5AA
:101FCB0008F0A3E509021CCF120B011226388C82F4
:101FDB008D83121C6B745F120B0112268580E074CB
:101FEB005F120B011226A5F5838882E0C0E0741CFA
:101FFB00120B01D0E0F0745F120B011226A1240228
:10200B00F8A3E03400F9745F120B01122685121C41
:10201B006B741D120B01A882A983740D0220C67468
:10202B005F120B011226BAE5082402FAE43509FB0C
:10203B00745F120B011226D27402120B01121C6B6D
:10204B00E849700C7402120B017481F0A37402F056
:10205B0012260B50047E107F27750800750900802F
:10206B00080508E508700205097402120B01122617
:10207B003888828983A3AA82AB837402120B011264
:10208B0026DA88828983E0600BC3E5089EE5091296
:10209B0025F040CD7402120B0112263C740D120B6D
:1020AB0001121C6BC3E49508F8E49509F9740D1241
:1020BB000B01E028F8A3E039F97402120B01E8F0E8
:1020CB00A3E90224D07409120B01E06008EE4F70F3
:1020DB00047E017F00741A120B017490F0A374023A
:1020EB00F0745F120B011226AC7404120B01E06446
:1020FB0070703485088285098312264E740F120B7B
:10210B0001122708E508122601120B01122685126F
:10211B001C6B7416120B01741012270CA3F07405B0
:10212B00120B01E40221FEEAA2E0E508501612258B
:10213B00F7120B011226F01209C2740F120B0112C7
:10214B0009CE8019122601120B01122703F8A3E006
:10215B00F9E8FAE9FB740F120B0112270874041249
:10216B000B01E0646F70097416120B01740880A9DF
:10217B00E06475709D7416120B01740A809B745F7A
:10218B00120B011226ACEAA2E0E50850101225F75B
:10219B00120B011226F078081209988016122601EC
:1021AB00120B01122703F508A3E0F5093395E0F5AF
:1021BB000AF50B740F120B0178081209A790026431
:1021CB00780812011440217405120B01742DF07460
:1021DB000F120B0178081209987808120987740FEF
:1021EB00120B0178081209A77416120B01740A124C
:1021FB00270CA3F0744D120B01A882A98374021251
:10220B000B01121C6B740D120B011226E8120B0141
:10221B001209C2E8494A4B6004D2008009C200EEA1
:10222B004F70030222DD7402120B01122667120B90
:10223B00011226E8120B01780C1209987416120B76
:10224B00017808120998780C7908120915741A127A
:10225B000B01E02508F8A3E035098882F583E0C07F
:10226B00E07402120B0112266DD0E0F0740F120B0A
:10227B0001780C1209987416120B01780812099840
:10228B00780C7908120915740F120B01780C1209CE
:10229B00A7740F120B011209C2E8494A4B7087123F
:1022AB00260B502E740A120B01E060267405120BDC
:1022BB0001E06004D2F08002C2F07406120B01122E
:1022CB00262A800E7402120B011226E0120B011249
:1022DB00267E7402120B0112263C744D120B01C0A8
:1022EB0082C0837402120B0112264ED083D082E57A
:1022FB0082C39AFAE5839BFBC3EA9EEB1225F0405F
:10230B00C37409120B01E070030224D1A200400335
:10231B000224D17404120B01E064786005E0645868
:10232B007010E088828983F0E824FF18E934FFF904
:10233B008017E0646F60030224D17402120B011248
:10234B002696643070030224D17402120B011226FC
:10235B00E0120B0112266D74300224D07415120B8F
:10236B00017401F07404120B01E024FEF0EE4F70C7
:10237B000D7E018010E4F07415120B01E4F01226AF
:10238B000B50047E067F00745F120B011226AC8586
:10239B000882F583780C120998E5081225F7120BC1
:1023AB00011226851226E8120B01780C1209A79050
:1023BB0002647808120998780C79081203245022C9
:1023CB007405120B01742DF0740F120B01780812A7
:1023DB000998E50BB2E7F50B740F120B0178081295
:1023EB0009A77406120B01741C120B0B8909E02848
:1023FB00F8A3E03509F97402120B01121C6B740976
:10240B00120B01E0F5087808120C7A7416120B0106
:10241B00E0F5087808120C7A7404120B01120C897F
:10242B008E088F097808120C76740A120B01E0F9EA
:10243B007415120B011209B61217797406120ACB16
:10244B00740D120B011226DA740A120B01E060767E
:10245B007405120B01E06004D2F08002C2F0740626
:10246B00120B0112262A740D120B01C082C0837449
:10247B0002120B01122638D083D082E0C398F8A346
:10248B00E099F9C3E89EE91225F0503A7402120B59
:10249B0001122667120B011226E0120B0112267E87
:1024AB0080C4851082851183122645121C64740228
:1024BB00120B0174A1F0A37402F0740D120B0174D2
:1024CB00A4F0A37402F0740D120B01C082C08374CC
:1024DB0002120B01122638D083D082E0C398FEA3E0
:1024EB00E099FF7406120B01C3E09EA3E01225F0E6
:1024FB00500875080075090080297405120B01E05E
:10250B006004D2F08002C2F07406120B01E0C39E8D
:10251B00F8A3E09FF9A2F0E433FAE89AF508E994FE
:10252B0000F5097408120B01E070208019745D121C
:10253B000B01122654120B0112266D120B13740B86
:10254B00120B0112273112261950E27405120B01DE
:10255B00E06056745D120B0112264E7405120B01CE
:10256B00E0F97413120B0112266D120B13803274E7
:10257B005D120B0112264E7402120B011226A1F9E9
:10258B007413120B0112266D120B137402120B0132
:10259B00E02401F8A3E03400F97402120B01121CC1
:1025AB006B740B120B01122731EE24FF1EEF34FF5D
:1025BB00FFC312260D50B87408120B01E070030212
:1025CB001CD01226195003021CD0745D120B011281
:1025DB002654120B0112266D120B13740B120B01E6
:1025EB0012273180DD9FA2D265D033222404F8E478
:1025FB003509F9745F222402F8E43509F9745F2276
:10260B00C3EF122611229400A2D265D03322E50823
:10261B0024FFF508E50934FFF509C312261122A2A0
:10262B00F0E433F8E098FEA3E09400FF221226CCEE
:10263B002212264022122645F922E024FFF8A3E0BD
:10264B0034FF22E0FAA3E0FB22E0FAA3E0FB7920BF
:10265B007413221226CCE82212274A221226407427
:10266B0002221226712212267522E0F8A3E0F583CE
:10267B008882221226717430F022122689221226A9
:10268B008D22E0FAA3E0F5838A8222122689E022CA
:10269B0085108285118312272222122722F8A3E0AC
:1026AB00221226B022122726F508A3E0F5092212E2
:1026BB0026B0850882F5831226CC228510828511DF
:1026CB0083E0F8A3E0F922E0FCA3E0F5838C82EA37
:1026DB00F0A3EBF022E8F0A3E9F0740222E8F0A3F8
:1026EB00E9F0740F221226F42212268DE8F0A3E9EA
:1026FB00F0850882850983221226F4E022EAF0A3F2
:10270B00EBF0A3E4F0A3F02212271A12272222F0F7
:10271B008510828511832212272622122675E0222C
:10272B00851082851183E02401F0A3E03400F022B0
:10273B0012273F2212271AE02401F812274A22A35C
:10274B00E03400F985108285118322E8F0A3E912A9
:10275B00273FE8F0A3E922EEC0E0E9FA7B00121470
:10276B00F3D0E0FE2274F7120B1574FE120AB57447
:10277B000B120B0B851082851183E8F0A3E9F0A8EF
:10278B0010A911880889097808120C76E4F508F568
:10279B00097808120C767C627D27121C887404124F
:1027AB000ACB7402120ACB7F02020B7B74F1120B61
:1027BB001574F4120AB5851082851183EAF0A3EB28
:1027CB00F0A3ECF0A3ED1229B1120998EDC2E7F5D5
:1027DB000B85108285118378081209A785108285D5
:1027EB00118378081209989002BD780C1209987819
:1027FB0008790C12032450368510828511837808D2
:10280B001209989002A9780C1209987808790C1281
:10281B0002A9700B7ADB7B0F7C497D3F0229A774E1
:10282B0008120B01E4F0A3F0A3F0A3F0806474088A
:10283B00120B0174DBF0A3740FF0A37449F0A374B3
:10284B003F1229B11209989002C1780C120998789D
:10285B0008790C120515C008C009C00AC00B8510F9
:10286B0082851183780C1209989002A978081209B5
:10287B0098780C7908120515D00BD00AD009D0081E
:10288B007808790C12072F8510828511837808122E
:10289B0009A7851082851183780812099885108203
:1028AB00851183780C1209987808790C12037074CF
:1028BB0004120B0178081209A77404120B01780893
:1028CB001209989002C5780C1209987808790C12A5
:1028DB0003709002C9780C1209987808790C1205CC
:1028EB00157404120B01780C1209987808790C12E4
:1028FB0003709002CD780C1209987808790C1205A8
:10290B00157404120B01780C1209987808790C12C3
:10291B0003709002D1780C1209987808790C120583
:10292B0015C008C009C00AC00B7404120B0178084B
:10293B001209989002D5780C1209987808790C1224
:10294B0005157404120B01780C1209987808790C90
:10295B001203709002D9780C1209987808790C122E
:10296B000515D00FD00ED00DD00C780C79081207AE
:10297B002F8510828511837808120998780C7908B5
:10298B001203707408120B017808120998780C79ED
:10299B0008120515AA0CAB0DAC0EAD0F740C120A78
:1029AB00CB7F08020B7BF085108285118378082280
:040000050000005F98
:00000001FF
