:020000040000FA
:030000000200CB30
:03001300020D9744
:03003300020D6F4C
:03005B00020DB0E3
:10006B00020D4900000080FB1200FBB900030200E7
:10007B00B5E4900200781279018002F0A3D8FCD984
:10008B00FA900211AA82AB839000FE78DC79018092
:10009B0015E493A3AC82AD838A828B83F0A3AA82EF
:1000AB00AB838C828D83D8E9D9E775824E75832219
:1000BB0074001200DD75826E75830074001200DD12
:1000CB0075D0007581BF751000751102759F000208
:1000DB000073C09FF59FE473D09F22D083D082C062
:1000EB009FE493C0E0740193C0E0740293F59F22E8
:1000FB007901224D303A0000000000005B57484F59
:10010B004520414D2049203F5D206368697020499F
:10011B0044203D20307825303278286966203D20F8
:10012B00307836382C206973204F4B290A005B2519
:10013B00376420253764202537645D203A205B2502
:10014B003764203D20252E303266435D203A205BFC
:10015B0025376420253764202537645D0A004D5010
:10016B0055363035305F496E697469616C697A65F3
:10017B00204641494C000000AA43B81E1242000021
:10018B00000030313233343536373839414243444D
:10019B00454600286E756C6C20706F696E746572C5
:1001AB0029003F3F3F000000807F0000803FF902A5
:1001BB001550B743BA510000204100E7DB2E000079
:1001CB00A04010000000080000000A000000120010
:1001DB00E61B24001200E63324001200E650240034
:1001EB001200E66D24001200E69724001200E6DCF4
:1001FB0024001200E61625001200E644250012002A
:10020B00E67C25001200E6BE21001200E6ED21007F
:10021B001200E60A22001200E63F22001200E63F1F
:10022B001E001200E67A1E001200E6921E0012005B
:10023B00E60A1F001200E65F1F001200E6DB1F003C
:10024B001200E61820001200E65720001200E69577
:10025B0025001200E6BF25001200E635260012002D
:10026B00E6F00D001200E60E1300C008C3E096F591
:10027B000808A3E096420808A3E096420808A3E00A
:10028B00964208A2D265D033E5087001D3D008227C
:10029B00080808E630E711120AD71202B30808085B
:1002AB00C64480C618181822181818E9799EC60873
:1002BB00CAC608CBC608CCC6C370207996CACBCCAD
:1002CB007019798ECBCC70137986CC700EF9802A8D
:1002DB00CA33CACB33CBCC33CC331930E7F2CCCBCC
:1002EB00CA3350147004EA30E00DE4CA3ACACB3B6F
:1002FB00CBCC3CCC500209C3E913C6CC182313C694
:10030B00CB18C6CA18C6F92212035320F01430E7D3
:10031B002B74FFFCFBFA747F8022E4FCFBFA7480E5
:10032B00801AB48008BC00F2BB00EF800F50EBF9D1
:10033B00E4C39AFAE49BFBE49CFCE499C6CC18C694
:10034B00CB18C6CA18C6F922E4C9C608CAC608CB58
:10035B00C6D3330308CCC63392F0C3947F402E949C
:10036B00184019C9B90704CACBCC225025C309CAF6
:10037B0033CACB33CBCC33CC33D9F422F4600DC995
:10038B00CCC313CB13CBCA13CAD9F6CC22E4FCFBD8
:10039B00FA2214FCFBFA22E6C33318461846184619
:1003AB0022E7C33319471947194722181818E608CB
:1003BB004608700AE608C3337005E633F4220822B8
:1003CB00191919E7094709700AE709C3337005E7DB
:1003DB0033F4220922E6084608C3134608336002A9
:1003EB00E633F422E7094709C3134709336002E7F1
:1003FB0033F4221203E060251203EF60201203A2F4
:10040B0070030203AC080808E76670101819E7665A
:10041B00700A1819E76670041819E76622F422129D
:10042B0003E0601C1203EF60171203A270071203A4
:10043B00AC7001D322C0D01203AC7006D0D0B32263
:10044B00C32233D0D0501430E0F6C3E7960809E747
:10045B00960809E7960809E796B32220E0D5E697B8
:10046B000809E6970809E6970809E697B3221203ED
:10047B00E0601B1203EF60161203A270071203ACAD
:10048B00600CB322C0D01203AC7005D0D022C322B3
:10049B0033D0D0501330E0EBC3E7960809E796084A
:1004AB0009E7960809E7962220E0E4E6970809E6B3
:1004BB00970809E6970809E69722001203E0604FB8
:1004CB001203EF6012E7548066F61203B670111236
:1004DB0003AC703B090909F4F618F618F618F62266
:1004EB001203CB70151203A208080860EAE6447FDA
:1004FB00F618768018E4F618F6221203A26016128C
:10050B0003AC7012E4F608F608F608E65480F60918
:10051B00090918181822EAC0E0EBC0E0ECC0E0EDC6
:10052B00C0E0E687F0A4FBACF008E687F0A42CFC57
:10053B00E435F0FA1809E687F0A42C4B600274013D
:10054B00CA35F0FCE433FB09E687F0D2F7A42CCBD9
:10055B0035F0FC1908E687F0A42BCC35F0FBE4331F
:10056B00FD0819E687F0D2E7A42C4ACB35F0CD3441
:10057B0000FC09E687F0D2E7A42DCC35F0FDE4337F
:10058B00FA0918E687F0D2F7A42CCD35F0CA34005F
:10059B00FC08E687F0D2E7D2F7A42ACC35F07A7EB6
:1005AB0020E70B0ACB33CBCD33CDCC33CC33CB3392
:1005BB0050147004ED30E00ED2F1E4CD3DCDCC3CC7
:1005CB00CC3B5005DA05C2F1EB547FC63308E6335A
:1005DB0092F0FBE73309E733C39A502D2B70190CBC
:1005EB000D4C4D70151806E608C333700D20F10A3B
:1005FB00A2F013F6E418800B4024E4F630F00276F8
:10060B008018F618F618F68024D33B14501074FF9C
:10061B00A2F013F6187680E418F618F6800FA2F005
:10062B0013F618E63303F618ECF618EDF6D0E0FDEA
:10063B00D0E0FCD0E0FBD0E0FA221203EF604612D0
:10064B0003E0603DE9687008F618F618F618F62214
:10065B00748067F7120679090909748067F722120B
:10066B0003E0601D1203EF7005191919801A1203AC
:10067B00B6701F1203CBC37003E667331919194009
:10068B00071818182208080874FFF618F618F61839
:10069B00F6221203CB60171203AC702192F01203F7
:1006AB00A27019501720F014080808090909E7F679
:1006BB001819E7F61819E7F61819E7F6221203A22C
:1006CB0060E6E869701F0808E62480F608E436F651
:1006DB0018547FB47F0CE654806007F6E418F618C4
:1006EB00F622181822E9C6CC08C6CD08C6CE08C615
:1006FB00CFC0E0E8C0E0EAC0E0EBC0E009E9F809F0
:10070B00E7FA09E7FBE6F918E6F8C3EC98ED99EE82
:10071B009AEBC2E7F5F0EFC2E795F0500E600CEBE9
:10072B00CFFBEACEFAE9CDF9E8CCF8EAA2E7D2E7BB
:10073B00FAEB33FB13F5F0EEA2E7D2E7FEEF33FF54
:10074B00C5F013A2E730E601B313C5F0C3C0E0C098
:10075B00F07F00C39BFB605B9418600C401AD0E0E9
:10076B0023F9D0E0F80208488AF0E9486003D2F098
:10077B00E4AFF0FAF9F8803BEB30E40D89F0EA6076
:10078B0003D2F0E4AFF0F9CAF8EB30E30D88F0EFE9
:10079B006002D2F0AFF0E4CAC9F8EB54076014FB67
:1007AB00C3EA13FAE913F9E813F8EF135002D2E096
:1007BB00FFDBEDD0E0C0E030E739C3E49FFFF5F09D
:1007CB00EC98FC42F0ED99FD42F0EE9AFE42F0D02F
:1007DB00E0F9D0E0F8E5F0607AE923F9EE20E742A2
:1007EB00D8028067C3EF33FFEC33FCED33FDEE3300
:1007FB00FE80EAEC28FCED39FDEE3AFED0E023F961
:10080B00D0E0F84002801BC3EE13FEED13FDEC139A
:10081B00FCEF135002D2E0FF08B800067F7F74FF95
:10082B00802EEF3350178CF020F00260100CBC00C0
:10083B000C0DBD00080EBE000408E860DFE933E8CC
:10084B0013FFEE2313FE4F4D4C8008E95480FFE459
:10085B00FEFDFCEE33EF33F47004FCFD7E80D0E044
:10086B00FBD0E0FAD0E0F8D0E0CFC618CEC618CD5A
:10087B00C618CCC6F9221203E070041818182212FD
:10088B0003EF700D74FFF61819F61819F61819F610
:10089B0022E7548066F61203A2700F1203AC70F0BD
:1008AB0014F608F608F608F680D11203AC700CF6B5
:1008BB0008F608768008E6447F80EC1203CE700CB5
:1008CB001203B960BFE65480F6E480BB1203B97023
:1008DB000519191980A5E869700C763F18768018F0
:1008EB00F618F6E8F922E6CDC0E018ECC0E0E633E6
:1008FB00CD33CDD313F6E719FCE7191933CC33C33A
:10090B00947F400ECD9D502408E65480F6E418F6F3
:10091B00800FF4043D14501408E6447FF6187680DB
:10092B00E418F618F6D0E0FCD0E0FD22CCD313CCC3
:10093B00FD18E4C6CBC0E018E4C6CAC0E00808ED59
:10094B0008C633E613F618E433C675F003C3CA972B
:10095B00CA09CB97CB199C40047D08802EBD0003A0
:10096B00020A2A16B6FF050606081618C3CA33CAAA
:10097B00CB33CB33CA27CA09CB37CB193CC37D0842
:10098B00803E187D0820E75CC633C6CA33CACB331A
:10099B00CB33DDF1D5F0EB30E77BCA97CA09CB97A8
:1009AB004ACB199C406F4B7025E620E021806618DE
:1009BB007D08C3CA97CA09CB97CB199CD3C633C63C
:1009CB00CA33CACB33CB3350C9DDE7D5F0E1D3E41F
:1009DB00C636C608C636C608C636C608C636C618D4
:1009EB0018188031C3CA97CA09CB97CB199CB3404F
:1009FB0097C633C6CA33CACB33CB33DD34D5F02ECF
:100A0B00C6A2E0C640C8CA27CA09CB37194A70BE6E
:100A1B00CB3CB480B90808E63308E633601F1818DE
:100A2B0018D0E0FAD0E0FBD0E0FCD0E0FD22187D3E
:100A3B0008CA27CA09CB37CB193CD3808013F618C9
:100A4B00E4B67F11F618B6FF0EF618C60470D2087E
:100A5B0008768080CAF618F618F680C5E4CFC0E099
:100A6B00E4CEC0E0E4CDC0E0E4CCC0E075F020C340
:100A7B00E633F608E633F608E633F608E633F618FF
:100A8B001818EC33FCED33FDEE33FEEF33FFC3EC04
:100A9B009709ED9709EE9709EF97191919400FFF71
:100AAB00EC97FC09ED97FD09EE97FE191906D5F0A9
:100ABB00BEECF709EDF709EEF709EFF7191919D0A5
:100ACB00E0FCD0E0FDD0E0FED0E0FF22181818E4E7
:100ADB00C396F608E496F608E496F608E496F62232
:100AEB00E0F608A3E0F608A3E0F608A3E0F622E69A
:100AFB00F008A3E6F008A3E6F008A3E6F022E0FA7C
:100B0B00A3E0FBA3E0FCA3E0FD22EAF0A3EBF0A340
:100B1B00ECF0A3EDF022CAC0E0E6F0A308DAFAD0BD
:100B2B00E0FA22CAC0E0E0A3C582CCC582C583CD62
:100B3B00C583F0A3C582CCC582C583CDC583DAE658
:100B4B00D0E0CA22C3E498F8E499F9120B908026FE
:100B5B00C3E49AFAE49BFBE920E7E9120B90E498D3
:100B6B00F8E499F922C3E498F8E499F9120B90E4AC
:100B7B0098F8E499F9C3E49AFAE49BFB22EB20E79B
:100B8B00CFE920E7E0B90010BB0008E88AF084F851
:100B9B00AAF022E4FBC8FA22EB70227B10C833C800
:100BAB00C933C9335007C39AC3DBF280069A50018D
:100BBB002ADBEAC833F4C8C933F4C9FA2275F00842
:100BCB00E4C833C8C933C933C99AC99B5004C92A6D
:100BDB00C93BD5F0ECFBC833F4C8E4C9FA22700466
:100BEB0022600D18C6C333C608C633C6D5E0F41849
:100BFB0022251010AF08F510400215118008F510D2
:100C0B0040021511D2AF22C0D0251010AF08F5103D
:100C1B00500205118008F51050020511D2AFD0D04B
:100C2B00222510F58210AF08F5104002151180082F
:100C3B00F51040021511D2AF851183222510F582D4
:100C4B00E43511F58322E4732510C582C0E0E5116C
:100C5B0034FFC583C0E0E510C3958224F810AF08BC
:100C6B008583118582108008858311858210D2AF10
:100C7B00CEF0A3E520F0A37808E608F0A3DEFAEFA8
:100C8B00F0A3E58124FAF8E608F0A3E608F0A3E662
:100C9B0008F0A30808E608F0A3E608F0A3158115F1
:100CAB0081D0E0FED0E0F8158115811581E8C0E018
:100CBB00EEC0E022851183851082E0A3FEE0A3F550
:100CCB00207808E0A3F608DFFAE0A3FFE0A3C0E07A
:100CDB00E0A3C0E0E0A3C0E0E0A3C0E0E0A3C0E07D
:100CEB0010AF08858210858311800885821085835B
:100CFB0011D2AFD083D0820200E374048006740259
:100D0B0080027401C0E0F404120C2CD0E0120B2111
:100D1B002274028000CCC0E0EDC0E0E510C39CCC97
:100D2B00AD1150011D10AF068C108D1180068C106B
:100D3B008D11D2AF120B2ED0E0FDD0E0FC22C0E023
:100D4B00C0D0C082C083E5895402C39401400A75A8
:100D5B008900900202E0D2E0F0C2C5D083D082D0ED
:100D6B00D0D0E032C0E0C0D0C082C083E58BA2E01F
:100D7B00E433C39401400A758B00900202E0D2E188
:100D8B00F0C2E8D083D082D0D0D0E032C0E0C0D067
:100D9B00C082C083C28BE5C1900200F0D083D082A9
:100DAB00D0D0D0E032C0E0C0D0E8C0E0C082C08379
:100DBB00C0F075C000900201E0F8740128900201A8
:100DCB00F0E8C394F640109002017400F0D2F0A248
:100DDB009030F001B39290D0F0D083D082D0E0F875
:100DEB00D0D0D0E03274F0120C5374FD120BFC74A3
:100DFB0002120C47E9F08A088B098C0A8D0B7415CB
:100E0B00120C47E0FEA3E0FF851082851183E4F00E
:100E1B00A3F08E828F83A3AA82AB839002C4780C3B
:100E2B00120AEB7808790C1203FE70188E828F83EE
:100E3B0074691212CF746EF0A37466F0A30A0AAB36
:100E4B008302126A780879081203FE60118E828F72
:100E5B0083746E1212CF7461F0A3746E80DD9002F6
:100E6B00C8780C120AEB7808790C12042A5003028A
:100E7B000F1A90029C780C120AEB7808790C12036B
:100E8B00FE6003020F6E7417120C47E07003020F23
:100E9B00B0851082851183C082C0837413120C47F6
:100EAB00121D0DD083D0821212A8502C8510828572
:100EBB001183C3E094FCA3E094FFA2D265D033402E
:100ECB00177402120C47E4121DE1F97413120C474C
:100EDB00C3E098F0A3E099F07413120C471212C5FB
:100EEB007418120C47E07003020FAD7417120C4705
:100EFB00E4020FAF9002CC780C120AEB7808790C55
:100F0B00120881851082851183E0240A121E1E901F
:100F1B0002D0780C120AEB7808790C12042A40D410
:100F2B009002D4780C120AEB7808790C12042A4040
:100F3B0003020E919002D4780C120AEB7808790C0C
:100F4B00120881121E1580D89002CC780C120AEB75
:100F5B007808790C1204C5851082851183E024F67C
:100F6B001212C89002D8780C120AEB7808790C127E
:100F7B00047940D49002C8780C120AEB7808790CEB
:100F8B001204794003020E919002D4780C120AEBF2
:100F9B007808790C1204C58510828511831212C54D
:100FAB0080D27401F07402120C47E060077A007B68
:100FBB00000210BC1212B4507D8E828F837430F0FD
:100FCB00EAFEEBFF7413120C47E0FCA3E0FDEC4DC3
:100FDB0070087418120C47E0600B8E828F83742E8E
:100FEB00F0A30EAF837A007B0080118E828F837407
:100FFB00301212F07413120C471212C5EA24FF1AA6
:10100B00EB34FFFB85108285118312129C500B74FD
:10101B0013120C47121D114970D185108285118353
:10102B0074FFC39CF874FF9DF91212A850030211B0
:10103B008A7A01020FBA851082851183121D0DC3A6
:10104B00E498FAE499FB806985080C85090D850AFB
:10105B000E850B0F780C120313AC0CE50D3395E0DA
:10106B00F50EF50F780C12029B7808790C120645D9
:10107B009002D4780C120AEB7808790C1204C5ECA8
:10108B001212EAEAF8EBF9E824010AE93400FBE86A
:10109B0049701E7413120C47121D114970087418F5
:1010AB00120C47E0600B8E828F83742EF0A30EAF71
:1010BB00837413120C4712129C508D9002DC780C27
:1010CB00120AEB7808790C12042A400302118A7C6D
:1010DB0001EE24FFF8EF34FFF97415120C47E0F51D
:1010EB0008A3E0F50988828983E0642E6010E02C68
:1010FB00F0643A70077430F07C0180027C00E8FAEF
:10110B00E9FBEA24FF18EB34FFF9C3E5089AE5097C
:10111B009B40D2ECA2E050677402120C47E06036A1
:10112B00EEF8EF800A121287E824FF18E934FFF972
:10113B00C3E50898E509995018121274E0642E70F3
:10114B00E4E824FEF582E934FFF583121281F9807D
:10115B00D7121E15801E8E828F83A3AE82AF83EEB5
:10116B00F8EF8006121274121281F9C3E50898E5A4
:10117B00099940F07415120C47121D2C7431F07440
:10118B0017120C47E07005801A1EAF83EE24FFF593
:10119B0082EF34FFF583E0643060EEE0642E700381
:1011AB001EAF837402120C47E07003021266121218
:1011BB00ECA3A9831212B48E828F835014742DF07A
:1011CB000EE9FF851082851183121D551212DD80E9
:1011DB0006742BF00EE9FF7C007D00EE240AFEEF77
:1011EB003400FFEC24010CED3400FD12128E120BB7
:1011FB0088EA1212EA12128E120B881212F7497039
:10120B00E2C3EC9402ED121CBE40D8ECFAEDFBC32A
:10121B00E49CF8E49DF9EE28F582EF39F583E0C004
:10122B00E0C3E49AF8E49BF9EE28F8EF39F9E82CDF
:10123B00F8E93DF9E824F5F582E934FFF583D0E0D0
:10124B00F0EC24FF1CED34FFFDC3EC9401ED121CFC
:10125B00BE50BCEE24F6FEEF34FFFFEEFAEFFB744C
:10126B0003120C127F08020CBFE824FFFAE934FFCB
:10127B00FB8A828B832212128718EB22E0888289E9
:10128B0083F022851082851183121D627A0A7B00FE
:10129B0022C3E09AA3E09BA2D265D03322C3E0988D
:1012AB00A3E099A2D265D03322851082851183C326
:1012BB00A3E09400A2D265D03322E024FFF0A3E098
:1012CB0034FFF022F0EAFEEBFF8E828F8322A3E045
:1012DB003400F9851082851183E8F0A3E9F022240C
:1012EB00308E828F83F0A3AE82AF832285108285EE
:1012FB00118312130122E8F0A3E9F0851082851106
:10130B0083E02274F0120C5374B0120BFC85108224
:10131B00851183121DC77418120C47ECF0A3EDF066
:10132B00740F120C47E4F0A380227460120C471266
:10133B001CFD7404120C47E0F97418120C47121DB3
:10134B002C120C51740F120C47121CC6F0121D40BC
:10135B00FA121E00120C47EAF074256A6010E07056
:10136B00C9740F120C47121CFD745002126C121D23
:10137B004064257019851082851183E024010812C1
:10138B0012D97460120C47121CFD792580AB740EB8
:10139B00120C47E4F0740D120C47E4F0740C120CB1
:1013AB0047E4F07405120C47E4F0741E120C47A8C6
:1013BB0082A9837402120C4780157405120C47E046
:1013CB0070077405120C47EAF085108285118312A1
:1013DB0012FD121CF4121D87FA24E060DD24FD605F
:1013EB001724F860DD24FE600624FD600F80117465
:1013FB000C120C47E00480D0740D80F5740E80F154
:10140B00121D87642A705B7462120C47121D92FBCB
:10141B008A828B83E0FCA3E0FD740A120C47ECF08C
:10142B00A3EDF0EA24020A0AEB3400FB7462120CFF
:10143B0047121DBF740A120C471212BA501F740ABE
:10144B00120C47121CFDC3E49AFAE49BFB740A12BC
:10145B000C47121DC7740C120C47E004F01212DE7D
:10146B00804A740A120C47E4F0A3802D740A120C04
:10147B0047121D1175F00AA4F8AAF075F00AE9A439
:10148B002AF9E50828F8E439F9E824D0F8E934FF1B
:10149B00F9740A120C47121E25121DE1F58388827E
:1014AB00E0F50874D02508C3940A40C0740C120CE4
:1014BB0047E06007740E120C47E4F0121D40642ED7
:1014CB006003021559851082851183E0240108A35E
:1014DB00E03400F91212F7121D31E0642A702C74FB
:1014EB0062120C47121D46F8A3E0F988828983E04B
:1014FB00FEA3E0FFE824020808E93400F974621245
:10150B000C47121D7A121E25F080477E007F008546
:10151B001082851183121D4F74D02508C3940A5075
:10152B0031EE75F00AA4FEA8F075F00AEFA428FFBF
:10153B00E5082EF8E43FF9E824D0FEE934FFFF85F7
:10154B001082851183E02401F81212D980C17EFF2D
:10155B007FFF7A00851082851183121CEF85108224
:10156B00851183E0FBA3E0F5838B82E024B4600854
:10157B0024E4600524FC70040A1212DE121D40FBE9
:10158B00121E00120C47EBF07003021B6424BB709D
:10159B0003021A2A24FE7003021A0C24EF700302B2
:1015AB00175624F5700302165B1470030217FB1415
:1015BB007003021A2A147003021A28147003021AF9
:1015CB000C24FE70030217FB24FB6024147003022F
:1015DB00174614700302175624FD70030216942449
:1015EB00FE700302175624FD7003021756021B7080
:1015FB007462120C47121DB9120C471212E4EAA2C4
:10160B00E0740F5033120C47E0FCA3E0FD3395E080
:10161B00FE7406120C47121D9AECF0A3EDF0A3EE2C
:10162B00F0A3F07462120C47121DA1120C47121D8D
:10163B007AE8F0A3E9021357120C47121D0D74063A
:10164B00120C47121D92F5838A82E8F0A3E980D22F
:10165B007462120C47121D9AE0C0E0741E120C4704
:10166B00D0E0F07462120C47121DA1120C47121D30
:10167B007A1212E4741F120C47A882A983741212F7
:10168B000C47E8F0A3E9021B877462120C47121D8A
:10169B00B9120C471212E47406120C47121DB91240
:1016AB000C47E02402FAA3E03400FB7462120C47EF
:1016BB00121DBF7402120C471212E4E849700C742D
:1016CB0002120C4774B1F0A37402F0121CBC50044C
:1016DB007E107F277408120C47E4F0A3800874086F
:1016EB00120C47121CC6F07402120C47121D0D8807
:1016FB00828983A3AA82AB837402120C47121DC783
:10170B0088828983E0600A7408120C47121D164008
:10171B00CD7402120C47121CDD7412120C471212FC
:10172B00E47408120C47121D55F97412120C47E0A1
:10173B0028F8A3E039F9740202168A740D120C47CB
:10174B00E06008EE4F70047E017F007462120C475C
:10175B00121DB9120C47121E0D120C47E06470706B
:10176B00387406120C47121DAF120C47121DE812EB
:10177B000C47E02402121D71120C47121D7A121233
:10178B00E49002E0120B09741A120C47120B157439
:10179B0005120C47E4F002188BEAA2E07406501B0A
:1017AB00120C47121D2C120B097414120C47120B3E
:1017BB00157406120C47E024048012120C47121DFC
:1017CB00AF120C47121DE8120C47E02402121D71D8
:1017DB00120C47121D7A121E0D120C47E0646F702B
:1017EB00059002E4809EE0647570969002E8809408
:1017FB007462120C47121DB9120C471212E4EAA2C2
:10180B00E074065016120C47121D2C7808120AEBC6
:10181B007406120C47E02404F8801B120C47121DAF
:10182B004FA3E0F5093395E0F50AF50B7406120C9E
:10183B0047E024020808121D72120C47121DF51204
:10184B000C477808120AFA90029C7808120275402D
:10185B00217405120C47742DF07414120C47780880
:10186B00120AEB7808120ADA7414120C4778081271
:10187B000AFA9002E8120B09741A120C47120B1594
:10188B00744F120C47A882A9837402120C471212D0
:10189B00E47412120C47121DF8120C477808120A46
:1018AB00EBE5084509450A450B60097411120C4715
:1018BB00740180067411120C47E4F0EE4F7008E0CF
:1018CB00A2E0400302197F7402120C47121D26126C
:1018DB000C47121DF8120C47780C120AEB741A12F3
:1018EB000C477808120AEB780C7908120A6774A077
:1018FB002508F58274023509F583E0C0E074021205
:10190B000C47121D2CD0E0F07414120C47780C12FB
:10191B000AEB741A120C477808120AEB780C790848
:10192B00120A677414120C47780C120AFA74141208
:10193B000C477808120AEBE5084509450A450B7078
:10194B0086121CBC502E740E120C47E060267405D8
:10195B00120C47E06004D2F08002C2F0740A120C41
:10196B0047121CCF800E7402120C47121DD9120C99
:10197B0047121D397402120C47121CDD744F120CE6
:10198B0047C082C0837402120C47121CFDD083D057
:10199B0082E582C39AFAE5839BFBC3EA9EEB121D99
:1019AB001F40C3740D120C47E07003021B887411A7
:1019BB00120C47E0A2E04003021B887404120C4790
:1019CB00E064786005E06458701E121287E824FF0B
:1019DB0018E934FFF97402120C47121DD9120C4787
:1019EB00121D2C7430021B87E0646F6003021B888E
:1019FB007402120C47121D8D64307003021B888019
:101A0B00D47408120C477401F0A3E4F07404120CA4
:101A1B0047E024FEF0EE4F700F7E018012E4F0746D
:101A2B0008120C47E4F0A3F0121CBC50047E067F96
:101A3B00007462120C47121DB9120C471212E47497
:101A4B0006120C47121D2C780C120AEB7406120CA2
:101A5B0047E02404121D71120C47121DF5120C479E
:101A6B00780C120AFA90029C7808120AEB780C791F
:101A7B000812047950227405120C47742DF074145B
:101A8B00120C477808120AEBE50BB2E7F50B74144E
:101A9B00120C477808120AFA740A120C47121D0D21
:101AAB00741E120C47E58228F8E58339F97402128B
:101ABB000C471212E4740D120C47E0F5087808126B
:101ACB000D0D7409120C47E0F5087808120D0D7412
:101ADB0004120C47120D1C8E088F097808120D0981
:101AEB00740A120C47E0F9741A120C47120B091204
:101AFB0002697406120C127412120C47121DC77471
:101B0B000E120C47E060767405120C47E06004D2AD
:101B1B00F08002C2F0740A120C47121CCF7412121E
:101B2B000C47C082C0837402120C47121D0DD08368
:101B3B00D082E0C398F8A3E099F9C3E89EE9121D9F
:101B4B001F503A7402120C47121D26120C47121D1D
:101B5B00D9120C47121D3980C4851082851183124E
:101B6B001CE61212DD7402120C4774C0F0A374024F
:101B7B00F07412120C4774C3F0A37402F0741212B7
:101B8B000C47C082C0837402120C47121D0DD08308
:101B9B00D082E0C398FEA3E099FF740A120C47129F
:101BAB001D16500A7408120C47E4F0A3803074051C
:101BBB00120C47E06004D2F08002C2F0740A120CDF
:101BCB0047E0C39EF8A3E09FF9A2F0E433FAE89A4A
:101BDB00F8E99400F97408120C47E8F0A3E9F074E3
:101BEB000C120C47E0702B80197460120C47121DFD
:101BFB0003120C47121D2C120C51740F120C4712AE
:101C0B001E1B7408120C47121DCD120C471212BA70
:101C1B0050D77405120C47E060507460120C4712D9
:101C2B001CFD7405120C47E0F97418120C47121DB9
:101C3B002C120C51802C7460120C47121CFD740278
:101C4B00120C47121D46F97418120C47121D2C1258
:101C5B000C517402120C47121CEF7402120C471237
:101C6B0012E4740F120C47121E1BEE24FF1EEF34EE
:101C7B00FFFFC3121CBE50BE740C120C47E0700366
:101C8B000213587408120C47121DCD120C47121276
:101C9B00BA50030213587460120C47121D03120C36
:101CAB0047121D2C120C51740F120C47121E1B8065
:101CBB00D2C3EF9400A2D265D03322E02401F0A36B
:101CCB00E0340022A2F0E433F8E098FEA3E09400A5
:101CDB00FF22121CE122121CE6F922E024FFF8A3DA
:101CEB00E034FF22E0121CF4222401F8A3E03400BC
:101CFB00F922E0FAA3E0FB22E0FAA3E0FB792074DF
:101D0B001822121D6222121D62E822C3E09EA3E07C
:101D1B00121D1F229FA2D265D03322121CE1740226
:101D2B0022121D3022E0F8A3E0F583888222121DD7
:101D3B00307430F022851082851183121D4A2212D5
:101D4B001D68E022121D4AF50822121D62C3E49899
:101D5B00F8E49922121D68E0F8A3E0F922E0F8A359
:101D6B00E0F583888222F8A3E03400F97462221232
:101D7B001D7E22E0FAA3E0F5838A822285108285FC
:101D8B001183121D7EE022121D7EE0FAA3E02212C7
:101D9B001D4A121D3122121D4A2402F8A3E0340001
:101DAB00F9746222121D5FE8FAE9FB741422121D0A
:101DBB005F740622E0FCA3E0F5838C82EAF0A3EBD0
:101DCB00F022E024FFF0A3E034FFF0740822E8F0E7
:101DDB00A3E9F0740222121305F8A3E022EAF0A3A0
:101DEB00EBF0A3E4F0A3F0740622121D7EE8F0A33F
:101DFB00E9F0741422851082851183E02401081206
:101E0B001E33E8F0A3E9F074042285108285118358
:101E1B00E02401F0A3E03400F0221213012401F8B6
:101E2B00121E33E8F0A3E922A3E03400F9851082F7
:101E3B008511832274F4120C53E9FE8A0A8B0B7FF3
:101E4B00008021EEFAE50A2FF9120203E9C0E08FB8
:101E5B000875090074032508F58274023509F583AA
:101E6B00D0E0F00FEFC3950B40D97F04020CBF7489
:101E7B00F7120C538908EAFFEBFEAB08FAEFF912E5
:101E8B0001FD7F01020CBF74F3120C53E9FFEAFE54
:101E9B008B0A8C0B8D0C750801750900E50B780806
:101EAB00120BE9E50824FFF508E50934FFF509E510
:101EBB000AC3950B24017808120BE9E508F5087B9A
:101ECB0001EEFAEFF9120227900203E0FBE50CE5B5
:101EDB000AC3950B2401F8E50CB800028004C33348
:101EEB00D8FCF50CE508520CE508F4CB5BFBE50CD4
:101EFB00CB4BFBEEFAEFF912022D7F05020CBF74F0
:101F0B00F3120C53E9FFEAFE8B098C0C7B01EEFA02
:101F1B00EFF9120227900203E0F508E50C60137548
:101F2B000A01750B00E509780A120BE9E50A450869
:101F3B008012750A01750B00E509780A120BE9E5A9
:101F4B000AF45508F508AB08EEFAEFF912022D7FEB
:101F5B0005020CBF74F2120C53E9FEEAFF8B0A8CDC
:101F6B000B740E120C47E0F50CA3E0F50D75080190
:101F7B00750900E50B7808120BE9E50824FFF50855
:101F8B00E50934FFF509E50AC3950B24017808121E
:101F9B000BE9E508F5087B01EFFAEEF91202279041
:101FAB000203E0F509E5085209E509E50AC3950BBB
:101FBB002401F8E509B800028004C313D8FCF50925
:101FCB00E509850C82850D83E509F07F06020CBFC0
:101FDB00C082C0837D017C037B027A6B79D01202B5
:101FEB00337D007C027B047A1B79D01202337D0097
:101FFB007C027B047A1C79D01202337C007B067A3C
:10200B006B79D0120239D083D0820200E374F612BE
:10201B000C5374FF120BFC8510828511838582088B
:10202B008583097808120D097C067B067A7579D0B1
:10203B0012023F7402120C12851082851183E0C3C9
:10204B0033F97401120C127F02020CBF74F0120CE4
:10205B005374FC120BFC7402120C47EAF0A3EBF066
:10206B00851082851183ECF0A3EDF07414120C47EC
:10207B00E0F50EA3E0F50F7416120C47E0F50CA378
:10208B00E0F50D7418120C47E0F50AA3E0F50B749C
:10209B001A120C47E0F508A3E0F509741C120C4763
:1020AB00E0FEA3E0FF7B0E7A3B79D0120227900271
:1020BB0003E0F87900E4C8F9900204E0FA7B00E849
:1020CB004AFAE94BFB7402120C47E0F8A3E0F583E4
:1020DB008882EAF0A3EBF0900205E0F87900E4C8FF
:1020EB00F9900206E0FA7B00E84AFAE94BFB85100F
:1020FB0082851183E0F8A3E0F5838882EAF0A3EBF5
:10210B00F0900207E0F87900E4C8F9900208E0FAD1
:10211B007B00E84AF8E94BF9850E82850F83E8F0DE
:10212B00A3E9F0900209E0F87900E4C8F990020AFB
:10213B00E0FA7B00E84AF8E94BF9850C82850D83C0
:10214B00E8F0A3E9F090020BE0F87900E4C8F9900D
:10215B00020CE0FA7B00E84AF8E94BF9850A828524
:10216B000B83E8F0A3E9F090020DE0F87900E4C8E6
:10217B00F990020EE0FA7B00E84AF8E94BF9850882
:10218B0082850983E8F0A3E9F090020FE0F879006B
:10219B00E4C8F9900210E0FA7B00E84AF8E94BF941
:1021AB008E828F83E8F0A3E9F07404120C127F087F
:1021BB00020CBF7C007D008019E82401F8E9340093
:1021CB00F9C3E89412E9940240EFEC2401FCED34DE
:1021DB0000FDC3EC9AED9B50067800790080E2027B
:1021EB0000E375F10075F30C53FF3F43868043C545
:1021FB000B43C2D8C2E943864043A8840200E37470
:10220B00F7120C5378007900801E8A828B83E0F5DD
:10221B00C18A828B83A3AA82AB83A2E950FCC2E959
:10222B00E82401F8E93400F9C3E89CE99D40DB7F21
:10223B0001020CBF53C6BFE59EA2E640FA53C6B8D7
:10224B000200E374A9120BFC900211C082C08374CC
:10225B004E120C47AC82AD83D083D0827409120B23
:10226B002E7E001202211202151201D980337C7CC2
:10227B007D02740E120C47AA82AB8312025D740EA0
:10228B00120C47AA82AB83120263EAFCEBFD740EBD
:10229B00120C47AA82AB8312021B7AE87B03120251
:1022AB000F12024BE9FE8E087509007808120D0912
:1022BB007C1A7D027410120C47AA82AB8312025D4A
:1022CB007402120C12740E120C47AA82AB83120208
:1022DB0063EAFCEBFD740E120C47AA82AB8312026D
:1022EB001B74686E708812024512024BE9F8E8FE07
:1022FB0074686870A57402120C478582088583097F
:10230B007808120D097406120C478582088583091B
:10231B007808120D09740A120C4785820885830907
:10232B007808120D097406120C47858208858309FB
:10233B007808120D097410120C47858208858309E1
:10234B007808120D097414120C47AC82AD83741605
:10235B00120C47AA82AB83120251740A120C12851B
:10236B001082851183E0F508A3E0F509E5093395A3
:10237B00E0F50AF50B780812029B900294780C1288
:10238B000AEB7808790C120881900298780C120AE3
:10239B00EB7808790C12066A7402120C47120D1CAA
:1023AB007406120C47120D1C740A120C47120D1CEA
:1023BB007808120D05740A120C47120D1C741412B6
:1023CB000C47120D1C7418120C47120D1C741C12A6
:1023DB000C47120D1C7C4C7D027420120C47AA82F8
:1023EB00AB8312025D7412120C12740E120C47AAFC
:1023FB0082AB83120263EAFCEBFD740E120C47AA4C
:10240B0082AB8312021B7AE87B0312020F0222F4C7
:10241B00C082C08343FDA0D287120209D28512026B
:10242B0009D083D0820200E3C082C08343FDA0D2D7
:10243B0087120209D285120209C287120209D083C0
:10244B00D0820200E3C082C08343FDA0C287120288
:10245B0009D285120209D287120209D083D08202D7
:10246B0000E374F7120C537E007F0043FD2053FDF5
:10247B007FD285120209C285120209C3EE942CEF9A
:10248B00940140031202097F01020CBF74F7120C76
:10249B0053E9FF43FDA08F087E008011C287120213
:1024AB0009D285120209E508C333F5080EEEC39471
:1024BB0008500FC285120209E508A2E750DED28749
:1024CB0080DCC285120209D2851202097F01020C3F
:1024DB00BF74F7120C537E0043FD2053FD7FC28562
:1024EB00120209D2857F008015D285120209A287BC
:1024FB00E433F8EEC33348FEC2851202090FEFC373
:10250B00940840E5EEF97F01020CBF74F7120C53EF
:10251B008908EAFFEBFE1201DFEEF91201F112015D
:10252B00EBA9081201F11201EBEFF91201F1120103
:10253B00EB1201E57F01020CBF74F7120C538908F3
:10254B00EAFF1201DFEFF91201F11201EBA90812F8
:10255B0001F11201EB1201DF74014FF91201F112BB
:10256B0001EB1201F7E9FE1201E5EEF97F01020C16
:10257B00BF7804800819E9C3940150F918E8C39493
:10258B00014004790280EF0200E3C082C0838A829B
:10259B008B8312262CE9F08A828B83E02401FCA327
:1025AB00E03400FD8A828B83ECF0A3EDF0D083D076
:1025BB00820200E374F6120C5374FC120BFC7402CF
:1025CB00120C47EAF0A3EBF0ECFAEDFB740E120CD5
:1025DB0047A882A983851082851183E8F0A3E9F0CF
:1025EB008510828511838582088583097808120DF1
:1025FB00097404120C478582088583097808120D2B
:10260B00097C577D0212026F7404120C12740212B1
:10261B000C4712262CE4F07404120C127F02020CED
:10262B00BFE0F8A3E0F583888222C082C0838A8250
:10263B008B838001A3E070FCE582C39AFAE5839B50
:08264B00FBD083D0820200E302
:04000005000000CB2C
:00000001FF
