:020000040000FA
:1000000002005400000080FBE490020078CA7901ED
:100010008002F0A3D8FCD9FA7AC97B0290008478D8
:10002000D879028015E493A3AD82AE838A828B8354
:10003000F0A3AA82AB838D828E83D8E9D9E775823B
:10004000CC75833D7400120066758203758300745D
:100050000012006675D0007581BF75100075110221
:10006000759F00020008C09FF59FE473D09F22D0C7
:1000700083D082C09FE493C0E0740193C0E0740217
:1000800093F59F224D303A0000000000005B574876
:100090004F4520414D2049203F5D20636869702015
:1000A0004944203D20307825303278286966203D4B
:1000B00020307836382C206973204F4B290A007085
:1000C000697463683A252E32662C726F6C6C3A251F
:1000D0002E32662C7961773A252E32660D005B252B
:1000E000376420253764202537645D203A205B255E
:1000F0003764203D20252E303266435D203A205B58
:1001000025376420253764202537645D0A0D00BB40
:10011000BCD5DFCBF9B4A6BBB7BEB3CEC2B6C8CE92
:10012000AAA3BA25660D00BBBCD5DFB4A6D3DAD529
:10013000BEC1A2BBF2D7F8D7CB0A0D00BBBCD5DF3E
:10014000B4A6D3DACED4D7CB0A0D00BBBCD5DFBF63
:10015000C9C4DCCBA4B5B9C1CBA3A10A0D004D50D5
:1001600055363035305F496E697469616C697A65FE
:10017000204641494C000000AA43B81E124201002B
:100180003442000034C20000803FDA0FC940000052
:10019000C842000070410AD7233C00002041000003
:1001A000003F0000000035FA8E3C0000A0416F12B5
:1001B000033A00000040E22E65426F12833AFFFFCF
:1001C000FFBFCDCCCC3DCCCCCCBD00008045333383
:1001D0008341010000000100803F3433333FDB0FD7
:1001E00049C03031323334353637383941424344EF
:1001F000454600286E756C6C20706F696E74657270
:10020000290030313233343536373839616263642E
:100210006566003F3F3F000000807F0000803FF99F
:10022000021550B743BA5100E7DB2E0000A0400092
:100230000080BF24FF2BBC8844A63E18C03F40B5B9
:10024000FD6840EAB48640B6FD6840C503423F1AE7
:1002500051123FF304B53F0000803E12006F184773
:100260000012006F30470012006F4D470012006F00
:100270006A470012006F94470012006FD6470012C1
:10028000006F10480012006F3E480012006F764861
:100290000012006F453D0012006F6E3D0012006FAE
:1002A0008B3D0012006FBD3D0012006FDA0E001290
:1002B000006F4B0F0012006FBC0F0012006F3D105B
:1002C0000012006F79110012006FEE110012006F22
:1002D000F9120012006F1F1E0012006FFB210012A6
:1002E000006FD7250012006FE8250012006FFC296F
:1002F0000012006F282A0012006F602A0012006F9F
:10030000792A0012006FF12A0012006F422B0012AE
:10031000006FBA2B0012006FF72B0012006F322C07
:100320000012006F54420012006FD6490012006F95
:10033000F8430012006F1E490012006F5C2D00127E
:10034000006F6B320012006F7F490012006F8F49FF
:100350000012006F50400012006F88480012006FBA
:10036000B2480012006F8C450012006F054A00A2CF
:10037000E792D65002F40430F70663F0FF05F0B3BD
:10038000400384800384F40430D60563F0FF05F055
:1003900022C008C3E096F50808A3E096420808A327
:1003A000E096420808A3E0964208A2D265D033E561
:1003B000087001D3D00822080808E630E711120BB4
:1003C000FB1203CF080808C64480C6181818221864
:1003D0001818E9799EC608CAC608CBC608CCC6C399
:1003E00070207996CACBCC7019798ECBCC701379EA
:1003F00086CC700EF9802ACA33CACB33CBCC33CC2F
:10040000331930E7F2CCCBCA3350147004EA30E031
:100410000DE4CA3ACACB3BCBCC3CCC500209C3E971
:1004200013C6CC182313C6CB18C6CA18C6F9228A1D
:10043000088B098C0A8D0B780812047920F014308F
:10044000E72B74FFFCFBFA747F8022E4FCFBFA7458
:1004500080801AB48008BC00F2BB00EF800F50EB24
:10046000F9E4C39AFAE49BFBE49CFCE499C6CC183B
:10047000C6CB18C6CA18C6F922E4C9C608CAC60837
:10048000CBC6D3330308CCC63392F0C3947F402E3F
:1004900094184019C9B90704CACBCC225025C30906
:1004A000CA33CACB33CBCC33CC33D9F422F4600D6E
:1004B000C9CCC313CB13CBCA13CAD9F6CC22E4FCE4
:1004C000FBFA2214FCFBFA22E626184618461846C8
:1004D00022E72719471947194722181818E608462E
:1004E000087009E626087005E633F4220822191977
:1004F00019E70947097009E727097005E733F4226E
:100500000922E6084608C3134608336002E633F4BE
:1005100022E7094709C3134709336002E733F4228E
:10052000120502602512051160201204C870030232
:1005300004D1080808E76670101819E766700A18F1
:1005400019E76670041819E76622F42212050260A2
:100550001C12051160171204C870071204D1700133
:10056000D322C0D01204D17006D0D0B322C322331C
:10057000D0D0501430E0F6C3E7960809E796080992
:10058000E7960809E796B32220E0D5E6970809E642
:10059000970809E6970809E697B322120502601B3F
:1005A00012051160161204C870071204D1600CB352
:1005B00022C0D01204D17005D0D022C32233D0D0B3
:1005C000501330E0EBC3E7960809E7960809E79671
:1005D0000809E7962220E0E4E6970809E69708096B
:1005E000E6970809E6972200120502604F120511EE
:1005F0006012E7548066F61204DA70111204D170AA
:100600003B090909F4F618F618F618F6221204EE5A
:1006100070151204C808080860EAE6447FF61876E8
:100620008018E4F618F6221204C860161204D1707D
:1006300012E4F608F608F608E65480F609090918E7
:10064000181822EAC0E0EBC0E0ECC0E0EDC0E0E644
:1006500087F0A4FBACF008E687F0A42CFCE435F0AE
:10066000FA1809E687F0A42C4B60027401CA35F031
:10067000FCE433FB09E687F0D2F7A42CCB35F0FC81
:100680001908E687F0A42BCC35F0FBE433FD0819FC
:10069000E687F0D2E7A42C4ACB35F0CD3400FC0934
:1006A000E687F0D2E7A42DCC35F0FDE433FA091843
:1006B000E687F0D2F7A42CCD35F0CA3400FC08E66A
:1006C00087F0D2E7D2F7A42ACC35F07A7E20E70B68
:1006D0000ACB33CBCD33CDCC33CC33CB33501470AA
:1006E00004ED30E00ED2F1E4CD3DCDCC3CCC3B501E
:1006F00005DA05C2F1EB547FC63308E63392F0FB0E
:10070000E73309E733C39A502D2B70190C0D4C4D6C
:1007100070151806E608C333700D20F10AA2F01315
:10072000F6E418800B4024E4F630F002768018F6E8
:1007300018F618F68024D33B14501074FFA2F0135F
:10074000F6187680E418F618F6800FA2F013F61863
:10075000E63303F618ECF618EDF6D0E0FDD0E0FC39
:10076000D0E0FBD0E0FA22120511604612050260CB
:100770003DE9687008F618F618F618F622748067D6
:10078000F712079B090909748067F72212050260B6
:100790001D1205117005191919801A1204DA701F3B
:1007A0001204EEC37003E6673319191940071818CD
:1007B000182208080874FFF618F618F618F6221220
:1007C00004EE60171204D1702192F01204C870195F
:1007D000501720F014080808090909E7F61819E766
:1007E000F61819E7F61819E7F6221204C860E6E8C9
:1007F00069701F0808E62480F608E436F618547F6E
:10080000B47F0CE654806007F6E418F618F6221858
:100810001822E9C6CC08C6CD08C6CE08C6CFC0E0AF
:10082000E8C0E0EAC0E0EBC0E009E9F809E7FA094E
:10083000E7FBE6F918E6F8C3EC98ED99EE9AEBC2FF
:10084000E7F5F0EFC2E795F0500E600CEBCFFBEA56
:10085000CEFAE9CDF9E8CCF8EAA2E7D2E7FAEB3331
:10086000FB13F5F0EEA2E7D2E7FEEF33FFC5F0137E
:10087000A2E730E601B313C5F0C3C0E0C0F07F00CB
:10088000C39BFB605E9418600F401D14601AD0E09B
:1008900023F9D0E0F802096D8AF0E9486003D2F04C
:1008A000E4AFF0FAF9F8803BEB30E40D89F0EA6050
:1008B00003D2F0E4AFF0F9CAF8EB30E30D88F0EFC3
:1008C0006002D2F0AFF0E4CAC9F8EB54076014FB41
:1008D000C3EA13FAE913F9E813F8EF135002D2E070
:1008E000FFDBEDD0E0C0E030E739C3E49FFFF5F077
:1008F000EC98FC42F0ED99FD42F0EE9AFE42F0D009
:10090000E0F9D0E0F8E5F0607AE923F9EE20E7427B
:10091000D8028067C3EF33FFEC33FCED33FDEE33D9
:10092000FE80EAEC28FCED39FDEE3AFED0E023F93A
:10093000D0E0F84002801BC3EE13FEED13FDEC1374
:10094000FCEF135002D2E0FF08B800067F7F74FF6F
:10095000802EEF3350178CF020F00260100CBC009A
:100960000C0DBD00080EBE000408E860DFE933E8A6
:1009700013FFEE2313FE4F4D4C8008E95480FFE433
:10098000FEFDFCEE33EF33F47004FCFD7E80D0E01E
:10099000FBD0E0FAD0E0F8D0E0CFC618CEC618CD34
:1009A000C618CCC6F92212050270041818182212B3
:1009B0000511700D74FFF61819F61819F61819F6C6
:1009C00022E7548066F61204C8700F1204D170F04A
:1009D00014F608F608F608F680D11204D1700CF669
:1009E00008F608768008E6447F80EC1204F1700C6B
:1009F0001204DD60BFE65480F6E480BB1204DD70B3
:100A00000519191980A5E869700C763F18768018C9
:100A1000F618F6E8F922E6CDC0E018ECC0E0E633BF
:100A2000CD33CDD313F6E719FCE7191933CC33C313
:100A3000947F400ECD9D502408E65480F6E418F6CD
:100A4000800FF4043D14501408E6447FF6187680B5
:100A5000E418F618F6D0E0FCD0E0FD22CCD313CC9D
:100A6000FD18E4C6CBC0E018E4C6CAC0E00808ED33
:100A700008C633E613F618E433C675F003C3CA9705
:100A8000CA09CB97CB199C40047D08802EBD00037A
:100A9000020B4F16B6FF050606081618C3CA33CA5E
:100AA000CB33CB33CA27CA09CB37CB193CC37D081C
:100AB000803E187D0820E75CC633C6CA33CACB33F4
:100AC000CB33DDF1D5F0EB30E77BCA97CA09CB9782
:100AD0004ACB199C406F4B7025E620E021806618B8
:100AE0007D08C3CA97CA09CB97CB199CD3C633C616
:100AF000CA33CACB33CB3350C9DDE7D5F0E1D3E4F9
:100B0000C636C608C636C608C636C608C636C618AD
:100B100018188031C3CA97CA09CB97CB199CB34028
:100B200097C633C6CA33CACB33CB33DD34D5F02EA8
:100B3000C6A2E0C640C8CA27CA09CB37194A70BE48
:100B4000CB3CB480B90808E63308E633601F1818B8
:100B500018D0E0FAD0E0FBD0E0FCD0E0FD22187D18
:100B600008CA27CA09CB37CB193CD3808013F618A3
:100B7000E4B67F11F618B6FF0EF618C60470D20858
:100B800008768080CAF618F618F680C5E4CFC0E073
:100B9000E4CEC0E0E4CDC0E0E4CCC0E075F020E6F7
:100BA00026F608E633F608E633F608E633F61818B4
:100BB00018EC33FCED33FDEE33FEEF33FFC3EC975F
:100BC00009ED9709EE9709EF97191919400FFFECF6
:100BD00097FC09ED97FD09EE97FE191906D5F0BFB0
:100BE000ECF709EDF709EEF709EFF7191919D0E05D
:100BF000FCD0E0FDD0E0FED0E0FF22181818E4C3DE
:100C000096F608E496F608E496F608E496F622606E
:100C100017080808C6A2E713C618C613C618C613D5
:100C2000C618C613C6D5E0E922C3E697F60809E65A
:100C300097F60809E697F60809E697F622E0F6081F
:100C4000A3E0F608A3E0F608A3E0F622E6F008A386
:100C5000E6F008A3E6F008A3E6F022E0FAA3E0FB42
:100C6000A3E0FCA3E0FD22EAF0A3EBF0A3ECF0A3E9
:100C7000EDF022E0F8A3E0F9A3E0FAA3E0FB22E81C
:100C8000F0A3E9F0A3EAF0A3EBF022CAC0E0E6F09B
:100C9000A308DAFAD0E0FA22CAC0E0E0A3C582CC09
:100CA000C582C583CDC583F0A3C582CCC582C5836B
:100CB000CDC583DAE6D0E0CA22C3E498F8E499F916
:100CC000120CFA8026C3E49AFAE49BFBE920E7E9D8
:100CD000120CFAE498F8E499F922C3E498F8E4993C
:100CE000F9120CFAE498F8E499F9C3E49AFAE49B4F
:100CF000FB22EB20E7CFE920E7E0B90010BB0008BA
:100D0000E88AF084F8AAF022E4FBC8FA22EB702209
:100D10007B10C833C8C933C9335007C39AC3DBF249
:100D200080069A50012ADBEAC833F4C8C933F4C9F3
:100D3000FA2275F008E4C833C8C933C933C99AC95F
:100D40009B5004C92AC93BD5F0ECFBC833F4C8E476
:100D5000C9FA22700422600D18C6C333C608C63310
:100D6000C6D5E0F41822251010AF08F510400C1578
:100D7000118008F51040021511D2AF2200C0D02515
:100D80001010AF08F510500C05118008F510500236
:100D90000511D2AFD0D0222510F58210AF08F51082
:100DA000400C15118008F51040021511D2AF8511C5
:100DB00083222510F582E43511F583222510F8E40D
:100DC0003511F9222510FAE43511FB222510FCE437
:100DD0003511FD22E4732510C582C0E0E51134FF12
:100DE000C583C0E0E510C3958224F810AF08858361
:100DF000118582108008858311858210D2AFCEF0D4
:100E0000A3E520F0A37808E608F0A3DEFAEFF0A34C
:100E1000E58124FAF8E608F0A3E608F0A3E608F076
:100E2000A30808E608F0A3E608F0A315811581D011
:100E3000E0FED0E0F8158115811581E8C0E0EEC034
:100E4000E022851183851082E0A3FEE0A3F52078DF
:100E500008E0A3F608DFFAE0A3FFE0A3C0E0E0A308
:100E6000C0E0E0A3C0E0E0A3C0E0E0A3C0E010AFBA
:100E7000088582108583118008858210858311D2B0
:100E8000AFD083D08202006C7404800674028002AA
:100E90007401C0E0F404120D97D0E0120C8B2274A0
:100EA00004800474028000CCC0E0EDC0E0E510C313
:100EB0009CCCAD1150011D10AF068C108D11800619
:100EC0008C108D11D2AF120C98D0E0FDD0E0FC2236
:100ED000C2E9EAF5C1A2E950FC22C082C0837B0EC0
:100EE0007A3B79D01202F1900208E0F87900E4C868
:100EF000F9900209E0FA7B00E84AF8E94BF9900220
:100F00000EE8F0A3E9F090020AE0F87900E4C8F9ED
:100F100090020BE0FA7B00E84AF8E94BF9900210E6
:100F2000E8F0A3E9F090020CE0F87900E4C8F99049
:100F3000020DE0FA7B00E84AF8E94BF9900212E86A
:100F4000F0A3E9F0D083D08202006CC082C0837B22
:100F50000E7A3B79D01202F1900200E0F87900E4B9
:100F6000C8F9900201E0FA7B00E84AF8E94BF990F1
:100F70000214E8F0A3E9F0900202E0F87900E4C876
:100F8000F9900203E0FA7B00E84AF8E94BF9900295
:100F900016E8F0A3E9F0900204E0F87900E4C8F95B
:100FA000900205E0FA7B00E84AF8E94BF990021854
:100FB000E8F0A3E9F0D083D08202006C74F0120D47
:100FC000D67410120DB27808120C3DC008C009C0CA
:100FD0000AC00B750800750900750A80750B3FC0C3
:100FE00008C009C00AC00B7414120DB2780C120CA0
:100FF0003D9003CF7808120C3D780C79081205E774
:10100000D00BD00AD009D0087808790C1209A67440
:1010100010120DB2780C120C3D7808790C12078C66
:10102000D00FD00ED00DD00C780C79081209A68AFA
:10103000828B83780C120C4C7F08020E4274F012E3
:101040000DD67E000210D81202A990020EE0F50C17
:10105000A3E0F50DE50D3395E0F50EF50F780C12D4
:1010600003B79002627808120C3D780C79081207D9
:101070008C900262780C120C4C900210E0F50CA3DC
:10108000E0F50DE50D3395E0F50EF50F780C120344
:10109000B79002667808120C3D780C790812078C1C
:1010A000900266780C120C4C900212E0F50CA3E052
:1010B000F50DE50D3395E0F50EF50F780C1203B73D
:1010C00090026A7808120C3D780C790812078C900F
:1010D000026A780C120C4C0EEEC394655003021099
:1010E000479002627808120C3D9003D3780C120CE2
:1010F0003D7808790C1209A69002627808120C4C0F
:101100009002667808120C3D9003D3780C120C3DC7
:101110007808790C1209A69002667808120C4C9097
:10112000026A7808120C3D9003D3780C120C3D78BB
:1011300008790C1209A690026A7808120C4C9002E9
:101140006E7401F09003D7120E9F9003DB120E9F76
:101150007A877B021202B57408120D7C9003DF12AD
:101160000E9F9003DB120E9F7A8B7B021202B574E6
:1011700008120D7C7F08020E4274F0120DD674FC2A
:10118000120D66851082851183EAF0A3EBF0A3ECC3
:10119000F0A3EDF08510828511837808120C3D7460
:1011A00014120DB2780C120C3D7808790C120767F6
:1011B0007418120DB2780C120C3D7808790C1205D7
:1011C000E77414120DB2780C120C3D7808790C12E9
:1011D000078C7414120DB27808120C4C7414120D92
:1011E000B2120C5B7404120D7C7F08020E4274F084
:1011F000120DD674F4120D667408120DB2EAF0A343
:10120000EBF0A3ECF0A3EDF07408120DB278081225
:101210000C3D9003E3780C120C3D7808790C120514
:10122000E77404120DB27808120C4C7408120DB257
:10123000120C73851082851183120C7F85108285B4
:1012400011837808120C3D750CDF750D59750E373A
:10125000750F5F74017808120C0F780C7908120C66
:1012600029850C08850D09850E0A850F0B851082CE
:101270008511837808120C4C750800750900750AF1
:10128000C0750B3FC008C009C00AC00B7404120D22
:10129000B27808120C3D851082851183780C120CEF
:1012A0003D7808790C1205E7851082851183780C4A
:1012B000120C3D7808790C1205E7D00FD00ED00D36
:1012C000D00C780C79081207678510828511837815
:1012D00008120C3D780C79081205E78510828511FB
:1012E00083780C120C4C851082851183120C5B7470
:1012F0000C120D7C7F08020E4274F0120DD674E8B9
:10130000120D66851082851183EAF0A3EBF0A3EC41
:10131000F0A3EDF07430120DB27808120C3D743465
:10132000120DB2780C120C3D7808790C1205E77496
:1013300038120DB2780C120C3D7808790C1205E7C2
:101340009003E7780C120C3D7808790C1205207098
:1013500003021E158510828511837808120C3D90BA
:1013600003EB780C120C3D7808790C1205E7851018
:10137000828511837808120C4C7428120DB27808FB
:10138000120C3D9003EB780C120C3D7808790C128E
:1013900005E77428120DB27808120C4C742C120D4B
:1013A000B27808120C3D9003EB780C120C3D7808D3
:1013B000790C1205E7742C120DB27808120C4C74DB
:1013C00030120DB27808120C3D7430120DB2780C48
:1013D000120C3D7808790C1205E7C008C009C00A54
:1013E000C00B7434120DB2780C120C3D7434120D13
:1013F000B27808120C3D780C79081205E7D00BD0B2
:101400000AD009D0087808790C12078CC008C009E6
:10141000C00AC00B7438120DB2780C120C3D74382F
:10142000120DB27808120C3D780C79081205E7D03D
:101430000BD00AD009D0087808790C12078CAA08BA
:10144000AB09AC0AAD0B1202C78A088B098C0A8D56
:101450000B7430120DB2780C120C3D780C79081216
:1014600005E77430120DB2780C120C4C7434120D66
:10147000B2780C120C3D780C79081205E77434121E
:101480000DB2780C120C4C7438120DB2780C120C90
:101490003D780C79081205E77438120DB2780C12F9
:1014A0000C4C900246120C737414120DB2120C7F85
:1014B000900252120C737410120DB2120C7F900233
:1014C0005E120C737404120DB2120C7F7434120D80
:1014D000B27808120C3D7404120DB2780C120C3D57
:1014E0007808790C1205E7C008C009C00AC00B745F
:1014F00038120DB2780C120C3D7410120DB278082F
:10150000120C3D780C79081205E7D00BD00AD009EF
:10151000D0087808790C120767740C120DB278089D
:10152000120C4C7438120DB27808120C3D7414125F
:101530000DB2780C120C3D7808790C1205E7C00842
:10154000C009C00AC00B7430120DB2780C120C3DE9
:101550007404120DB27808120C3D780C790812054B
:10156000E7D00BD00AD009D0087808790C120767A9
:101570007408120DB27808120C4C7430120DB27847
:1015800008120C3D7410120DB2780C120C3D780844
:10159000790C1205E7C008C009C00AC00B743412E8
:1015A0000DB2780C120C3D7414120DB27808120CA6
:1015B0003D780C79081205E7D00BD00AD009D00885
:1015C0007808790C1207677404120DB27808120CAF
:1015D0004C740C120DB27808120C3D9003DB780CA1
:1015E000120C3D7808790C1205E79002A7780C12CE
:1015F0000C3D7808790C12078C9002A77808120C21
:101600004C7408120DB27808120C3D9003DB780C74
:10161000120C3D7808790C1205E79002AB780C1299
:101620000C3D7808790C12078C9002AB7808120CEC
:101630004C7404120DB27808120C3D9003DB780C48
:10164000120C3D7808790C1205E79002AF780C1265
:101650000C3D7808790C12078C9002AF7808120CB8
:101660004C8510828511837808120C3DC008C00992
:10167000C00AC00B740C120DB2780C120C3D900312
:10168000EF7808120C3D780C79081205E7D00BD0E2
:101690000AD009D0087808790C12078C9002A77834
:1016A0000C120C3D7808790C12078C85108285117C
:1016B000837808120C4C7428120DB27808120C3D75
:1016C000C008C009C00AC00B7408120DB2780C1211
:1016D0000C3D9003EF7808120C3D780C7908120548
:1016E000E7D00BD00AD009D0087808790C12078C03
:1016F0009002AB780C120C3D7808790C12078C74B0
:1017000028120DB27808120C4C742C120DB2780805
:10171000120C3DC008C009C00AC00B7404120DB2FF
:10172000780C120C3D9003EF7808120C3D780C7980
:10173000081205E7D00BD00AD009D0087808790C38
:1017400012078C9002AF780C120C3D7808790C12BD
:10175000078C742C120DB27808120C4C90029B78F6
:1017600008120C3DC50BB2E7C50B851082851183AD
:10177000780C120C3D7808790C1205E7C008C009F6
:10178000C00AC00B90029F780C120C3D7428120DF9
:10179000B27808120C3D780C79081205E7D00BD00E
:1017A0000AD009D0087808790C120767C008C00968
:1017B000C00AC00B9002A3780C120C3D742C120DC1
:1017C000B27808120C3D780C79081205E7D00BD0DE
:1017D0000AD009D0087808790C1207679003DF78DF
:1017E0000C120C3D7808790C1205E79003F3780C85
:1017F000120C3D7808790C1205E79003CB780C1297
:101800000C3D7808790C12078C9003CB7808120CE9
:101810004C9003CB7808120C3D851082851183789B
:101820000C120C3D7808790C1205E7C008C009C0FD
:101830000AC00B90029F780C120C3D742C120DB252
:101840007808120C3D780C79081205E7D00BD00A05
:10185000D009D0087808790C12078CC008C009C0DC
:101860000AC00B9002A3780C120C3D7428120DB222
:101870007808120C3D780C79081205E7D00BD00AD5
:10188000D009D0087808790C1207679003DF780C2C
:10189000120C3D7808790C1205E79003F3780C12CE
:1018A0000C3D7808790C1205E790029B780C120C1D
:1018B0003D7808790C12078C90029B7808120C4C2A
:1018C0009003CB7808120C3D7428120DB2780C12DC
:1018D0000C3D7808790C1205E7C008C009C00AC0A1
:1018E0000B90029B780C120C3D742C120DB27808F0
:1018F000120C3D780C79081205E7D00BD00AD009FC
:10190000D0087808790C120767C008C009C00AC05F
:101910000B9002A3780C120C3D8510828511837800
:1019200008120C3D780C79081205E7D00BD00AD0CC
:1019300009D0087808790C12078C9003DF780C1214
:101940000C3D7808790C1205E79003F3780C120C23
:101950003D7808790C1205E790029F780C120C3D37
:101960007808790C12078C90029F7808120C4C9022
:1019700003CB7808120C3D742C120DB2780C120CAB
:101980003D7808790C1205E7C008C009C00AC00BF1
:1019900090029B780C120C3D7428120DB27808123C
:1019A0000C3D780C79081205E7D00BD00AD009D08D
:1019B000087808790C12078CC008C009C00AC00B4F
:1019C00090029F780C120C3D851082851183780857
:1019D000120C3D780C79081205E7D00BD00AD0091B
:1019E000D0087808790C1207679003DF780C120C86
:1019F0003D7808790C1205E79003F3780C120C3D42
:101A00007808790C1205E79002A3780C120C3D7847
:101A100008790C12078C9002A37808120C4C9003E2
:101A2000CB7808120C3D9003CB780C120C3D780853
:101A3000790C1205E7C008C009C00AC00B90029BD0
:101A4000780C120C3D90029B7808120C3D780C79B2
:101A5000081205E7D00BD00AD009D0087808790C15
:101A600012078CC008C009C00AC00B90029F780CF6
:101A7000120C3D90029F7808120C3D780C790812E8
:101A800005E7D00BD00AD009D0087808790C1207E6
:101A90008CC008C009C00AC00B9002A3780C120CBD
:101AA0003D9002A37808120C3D780C79081205E7E6
:101AB000D00BD00AD009D0087808790C12078CAA6C
:101AC00008AB09AC0AAD0B1202C78A088B098C0A55
:101AD0008D0B9003CB780C120C3D780C7908120515
:101AE000E79003CB780C120C4C90029B780C120CF4
:101AF0003D780C79081205E790029B780C120C4C8B
:101B000090029F780C120C3D780C79081205E79032
:101B1000029F780C120C4C9002A3780C120C3D78AA
:101B20000C79081205E79002A3780C120C4C851072
:101B3000828511837400F0A37400F0A37400F0A3F5
:101B40007400F09003CB7808120C3D9003CB780C16
:101B5000120C3D7808790C1205E7C008C009C00ACC
:101B6000C00B90029B780C120C3D90029B780812DF
:101B70000C3D780C79081205E7D00BD00AD009D0BB
:101B8000087808790C120767C008C009C00AC00BA2
:101B900090029F780C120C3D90029F7808120C3D29
:101BA000780C79081205E7D00BD00AD009D0087854
:101BB00008790C120767C008C009C00AC00B900260
:101BC000A3780C120C3D9002A37808120C3D780CFF
:101BD00079081205E7D00BD00AD009D00878087927
:101BE0000C12078C7808120E889003CB7808120C20
:101BF0003D90029B780C120C3D7808790C1205E799
:101C0000C008C009C00AC00B90029F780C120C3D9E
:101C10009002A37808120C3D780C79081205E7D0E1
:101C20000BD00AD009D0087808790C12078C9003E1
:101C3000F7780C120C3D7808790C1205E7AA08AB6E
:101C400009AC0AAD0B12032D7404120D7C8A088BAB
:101C5000098C0A8D0B9003FB780C120C3D780879E7
:101C60000C1205E79002937808120C4C9003CB7885
:101C700008120C3D90029F780C120C3D7808790CEC
:101C80001205E7C008C009C00AC00B90029B780C7F
:101C9000120C3D9002A37808120C3D780C790812C2
:101CA00005E7D00BD00AD009D0087808790C1207C4
:101CB000679003F7780C120C3D7808790C1205E751
:101CC000AA08AB09AC0AAD0B1203218A088B098C58
:101CD0000A8D0BC50BB2E7C50B9003FB780C120CF9
:101CE0003D7808790C1205E790028F7808120C4CA9
:101CF0009002777808120C3D9003DF780C120C3DAF
:101D00007808790C1205E79003FF780C120C3D78E7
:101D100008790C1205E7900297780C120C3D7808B0
:101D2000790C12078C9002977808120C4C90029351
:101D30007808120C3D9002BF780C120C3D7808799F
:101D40000C1207678510828511837808120C4C8568
:101D500010828511837808120C3D9003F7780C12DD
:101D60000C3D7808790C12059B502A85108285114C
:101D7000837808120C3D900403780C120C3D78080F
:101D8000790C12054C500E9002BF120C7390029306
:101D9000120C7F800C900293120C739002BF120CF5
:101DA0007F9002977808120C3D9002C3780C120CB9
:101DB0003D7808790C1207678510828511837808B1
:101DC000120C4C8510828511837808120C3D90040A
:101DD00007780C120C3D7808790C12059B502A8567
:101DE00010828511837808120C3D90040B780C1238
:101DF0000C3D7808790C12054C500E9002C3120C61
:101E000073900297120C7F800C900297120C7390C3
:101E100002C3120C7F7418120D7C7F08020E4274EC
:101E2000F0120DD6750800750900750A80750B3F14
:101E3000C008C009C00AC00B90029F7808120C3D70
:101E40009003F7780C120C3D7808790C1205E79096
:101E5000029F780C120C3D7808790C1205E7D00F20
:101E6000D00ED00DD00C780C7908120767C00CC0CA
:101E70000DC00EC00F9002A37808120C3D9003F71E
:101E8000780C120C3D7808790C1205E79002A378C3
:101E90000C120C3D7808790C1205E7D00FD00ED04B
:101EA0000DD00C780C790812076790021A780C1282
:101EB0000C4C90029B7808120C3D90029F780C12FB
:101EC0000C3D7808790C1205E7C008C009C00AC0AB
:101ED0000B9003CB780C120C3D9002A37808120CE7
:101EE0003D780C79081205E7D00BD00AD009D0084C
:101EF0007808790C1207679003F7780C120C3D787C
:101F000008790C1205E790021E7808120C4C90021A
:101F10009B7808120C3D9002A3780C120C3D7808B7
:101F2000790C1205E7C008C009C00AC00B9003CBAA
:101F3000780C120C3D90029F7808120C3D780C79B9
:101F4000081205E7D00BD00AD009D0087808790C20
:101F500012078C9003F7780C120C3D7808790C125C
:101F600005E79002227808120C4C90029B78081228
:101F70000C3D90029F780C120C3D7808790C1205EC
:101F8000E7C008C009C00AC00B9003CB780C120C44
:101F90003D9002A37808120C3D780C79081205E7F1
:101FA000D00BD00AD009D0087808790C12078C9091
:101FB00003F7780C120C3D7808790C1205E79002B3
:101FC000267808120C4C750800750900750A807592
:101FD0000B3FC008C009C00AC00B90029B780812D2
:101FE0000C3D9003F7780C120C3D7808790C120523
:101FF000E790029B780C120C3D7808790C1205E7EB
:10200000D00FD00ED00DD00C780C7908120767C015
:102010000CC00DC00EC00F9002A37808120C3D90AA
:1020200003F7780C120C3D7808790C1205E7900242
:10203000A3780C120C3D7808790C1205E7D00FD06C
:102040000ED00DD00C780C790812076790022A7810
:102050000C120C4C90029F7808120C3D9002A37851
:102060000C120C3D7808790C1205E7C008C009C0B5
:102070000AC00B9003CB780C120C3D90029B7808A1
:10208000120C3D780C79081205E7D00BD00AD00964
:10209000D0087808790C1207679003F7780C120CB7
:1020A0003D7808790C1205E790022E7808120C4C46
:1020B00090029B7808120C3D9002A3780C120C3D04
:1020C0007808790C1205E7C008C009C00AC00B9057
:1020D00003CB780C120C3D90029F7808120C3D78CF
:1020E0000C79081205E7D00BD00AD009D00878087F
:1020F000790C1207679003F7780C120C3D78087979
:102100000C1205E79002327808120C4C90029F786E
:1021100008120C3D9002A3780C120C3D7808790C43
:102120001205E7C008C009C00AC00B9003CB780CA9
:10213000120C3D90029B7808120C3D780C79081225
:1021400005E7D00BD00AD009D0087808790C12071F
:102150008C9003F7780C120C3D7808790C1205E787
:102160009002367808120C4C750800750900750A43
:1021700080750B3FC008C009C00AC00B90029B7855
:1021800008120C3D9003F7780C120C3D7808790C7E
:102190001205E790029B780C120C3D7808790C121E
:1021A00005E7D00FD00ED00DD00C780C79081207AF
:1021B00067C00CC00DC00EC00F90029F7808120CB3
:1021C0003D9003F7780C120C3D7808790C1205E766
:1021D00090029F780C120C3D7808790C1205E7D01C
:1021E0000FD00ED00DD00C780C7908120767900232
:1021F0003A780C120C4C7F08020E4274F0120DD685
:10220000750800750900750A80750B3FC008C00984
:10221000C00AC00B90029F7808120C3D9003F7781B
:102220000C120C3D7808790C1205E790029F780C8F
:10223000120C3D7808790C1205E7D00FD00ED00DA6
:10224000D00C780C7908120767C00CC00DC00EC006
:102250000F9002A37808120C3D9003F7780C120C33
:102260003D7808790C1205E79002A3780C120C3D1A
:102270007808790C1205E7D00FD00ED00DD00C786D
:102280000C790812076790023E780C120C4C9002F1
:102290009B7808120C3D90029F780C120C3D780838
:1022A000790C1205E7C008C009C00AC00B9003CB27
:1022B000780C120C3D9002A37808120C3D780C7932
:1022C000081205E7D00BD00AD009D0087808790C9D
:1022D00012078C9003F7780C120C3D7808790C12D9
:1022E00005E79002427808120C4C90029B78081285
:1022F0000C3D9002A3780C120C3D7808790C120565
:10230000E7C008C009C00AC00B9003CB780C120CC0
:102310003D90029F7808120C3D780C79081205E771
:10232000D00BD00AD009D0087808790C1207679032
:1023300003F7780C120C3D7808790C1205E790022F
:10234000467808120C4C90029B7808120C3D9002C3
:102350009F780C120C3D7808790C1205E7C008C074
:1023600009C00AC00B9003CB780C120C3D9002A35D
:102370007808120C3D780C79081205E7D00BD00ACA
:10238000D009D0087808790C1207679003F7780C09
:10239000120C3D7808790C1205E790024A78081271
:1023A0000C4C750800750900750A80750B3FC00854
:1023B000C009C00AC00B90029B7808120C3D900324
:1023C000F7780C120C3D7808790C1205E790029B07
:1023D000780C120C3D7808790C1205E7D00FD00E5E
:1023E000D00DD00C780C7908120767C00CC00DC056
:1023F0000EC00F9002A37808120C3D9003F7780CE2
:10240000120C3D7808790C1205E79002A3780C12A3
:102410000C3D7808790C1205E7D00FD00ED00DD006
:102420000C780C790812076790024E780C120C4C4D
:1024300090029F7808120C3D9002A3780C120C3D7C
:102440007808790C1205E7C008C009C00AC00B90D3
:1024500003CB780C120C3D90029B7808120C3D784F
:102460000C79081205E7D00BD00AD009D0087808FB
:10247000790C12078C9003F7780C120C3D780879D0
:102480000C1205E79002527808120C4C90029B78CF
:1024900008120C3D9002A3780C120C3D7808790CC0
:1024A0001205E7C008C009C00AC00B9003CB780C26
:1024B000120C3D90029F7808120C3D780C7908129E
:1024C00005E7D00BD00AD009D0087808790C12079C
:1024D0008C9003F7780C120C3D7808790C1205E704
:1024E0009002567808120C4C90029F7808120C3D0E
:1024F0009002A3780C120C3D7808790C1205E7C005
:1025000008C009C00AC00B9003CB780C120C3D9098
:10251000029B7808120C3D780C79081205E7D00B65
:10252000D00AD009D0087808790C1207679003F711
:10253000780C120C3D7808790C1205E790025A7855
:1025400008120C4C750800750900750A80750B3F60
:10255000C008C009C00AC00B90029B7808120C3D4D
:102560009003F7780C120C3D7808790C1205E7906F
:10257000029B780C120C3D7808790C1205E7D00FFD
:10258000D00ED00DD00C780C7908120767C00CC0A3
:102590000DC00EC00F90029F7808120C3D9003F7FB
:1025A000780C120C3D7808790C1205E790029F78A0
:1025B0000C120C3D7808790C1205E7D00FD00ED024
:1025C0000DD00C780C790812076790025E780C1217
:1025D0000C4C7F08020E42C082C0831202D312024A
:1025E000D9D083D08202006C74F0120DD690026EA6
:1025F000E070030229F71202A91202AF90020EE066
:10260000F508A3E0F509E5093395E0F50AF50B783F
:10261000081203B7900262780C120C3D7808790C0E
:10262000120767780812043990020EE508F0A3E556
:1026300009F0900210E0F508A3E0F509E5093395EB
:10264000E0F50AF50B78081203B7900266780C12D1
:102650000C3D7808790C120767780812043990024B
:1026600010E508F0A3E509F0900212E0F508A3E0F8
:10267000F509E5093395E0F50AF50B78081203B77B
:1026800090026A780C120C3D7808790C1207677872
:1026900008120439900212E508F0A3E509F090024F
:1026A00087120E9F9002B9E0F508A3E0F509E5094D
:1026B0003395E0F50AF50B78081203B77808120E87
:1026C00088900214E0F508A3E0F509E5093395E0E8
:1026D000F50AF50B78081203B7AA08AB09AC0AADE6
:1026E0000B1202C17408120D7C12042F9002B9E57E
:1026F00008F0A3E509F0900287120E9F9002BBE05C
:10270000F508A3E0F509E5093395E0F50AF50B783E
:10271000081203B77808120E88900216E0F508A395
:10272000E0F509E5093395E0F50AF50B78081203A1
:10273000B7AA08AB09AC0AAD0B1202C17408120D9E
:102740007C12042F9002BBE508F0A3E509F090028B
:1027500087120E9F9002BDE0F508A3E0F509E50998
:102760003395E0F50AF50B78081203B77808120ED6
:1027700088900218E0F508A3E0F509E5093395E033
:10278000F50AF50B78081203B7AA08AB09AC0AAD35
:102790000B1202C17408120D7C12042F9002BDE5C9
:1027A00008F0A3E509F090028B120E9F9002B3E0AF
:1027B000F508A3E0F509E5093395E0F50AF50B788E
:1027C000081203B77808120E8890020EE0F508A3ED
:1027D000E0F509E5093395E0F50AF50B78081203F1
:1027E000B7AA08AB09AC0AAD0B1202C17408120DEE
:1027F0007C12042F9002B3E508F0A3E509F09002E3
:102800008B120E9F9002B5E0F508A3E0F509E509EB
:102810003395E0F50AF50B78081203B77808120E25
:1028200088900210E0F508A3E0F509E5093395E08A
:10283000F50AF50B78081203B7AA08AB09AC0AAD84
:102840000B1202C17408120D7C12042F9002B5E520
:1028500008F0A3E509F090028B120E9F9002B7E0FA
:10286000F508A3E0F509E5093395E0F50AF50B78DD
:10287000081203B77808120E88900212E0F508A338
:10288000E0F509E5093395E0F50AF50B7808120340
:10289000B7AA08AB09AC0AAD0B1202C17408120D3D
:1028A0007C12042F9002B7E508F0A3E509F090022E
:1028B000B9E0F508A3E0F509E5093395E0F50AF577
:1028C0000B78081203B790040F780C120C3D7808AF
:1028D000790C1209A690027B7808120C4C9002BB6E
:1028E000E0F508A3E0F509E5093395E0F50AF50BF5
:1028F00078081203B790040F780C120C3D78087911
:102900000C1209A690027F7808120C4C9002BDE0D0
:10291000F508A3E0F509E5093395E0F50AF50B782C
:10292000081203B790040F780C120C3D7808790C4C
:102930001209A69002837808120C4C90020EE0F562
:1029400008A3E0F509E5093395E0F50AF50B7808E9
:102950001203B7900413780C120C3D7808790C120E
:1029600009A690026F7808120C4C900210E0F5084E
:10297000A3E0F509E5093395E0F50AF50B780812AF
:1029800003B7900413780C120C3D7808790C1209E7
:10299000A69002737808120C4C900212E0F508A37E
:1029A000E0F509E5093395E0F50AF50B780812031F
:1029B000B7900413780C120C3D7808790C1209A614
:1029C0009002777808120C4C900283120E9F9002AE
:1029D0007F120E9F90027B120E9F900277120E9F25
:1029E000900273120E9F90026F120C5B1202CD7454
:1029F00014120D7C1202DF7F08020E42C082C083D7
:102A000090020E7400F0A37400F09002107400F0B5
:102A1000A37400F09002127400F0A37400F012028C
:102A2000BBD083D08202006C74F6120DD6E9FF8A07
:102A3000088B097E00801EEFFAE5082EF912028548
:102A4000E9C0E0EEF87900740028F582740239F5E7
:102A500083D0E0F00EEEC3950940DC7F02020E4207
:102A600074F7120DD68908EAFFEBFEAB08EEFAEF19
:102A7000F912027F7F01020E4274F3120DD6890C07
:102A8000EAFF8B0A8C0BEDFE750801750900E50B5A
:102A90007808120D53E50824FFF508E50934FFF521
:102AA00009E50AC3950B24017808120D53E508F5D2
:102AB000087B01EFFAA90C1202F1900200E0FBEE94
:102AC000C0E0E50AC3950B2401F8D0E0B80002800D
:102AD00004C333D8FCFEE508CE5ECEE508F4CB5B3C
:102AE000CBEECB4BCBEFFAA90C1202F77F05020E0F
:102AF0004274F3120DD68908EAFF8B098C0C7B0116
:102B0000EFFAA9081202F1900200E0FEE50C601253
:102B1000750A01750B00E509780A120D53E50A4E96
:102B20008011750A01750B00E509780A120D53E54D
:102B30000AF45EFEEEFBEFFAA9081202F77F050227
:102B40000E4274F4120DD6E9FEEAFF8B0A8C0B7567
:102B50000801750900E50B7808120D53E50824FFFC
:102B6000F508E50934FFF509E50AC3950B2401785A
:102B700008120D53E508F5087B01EFFAEEF9120291
:102B8000F1900200E0F8E508C858C8E8C0E0E50A9E
:102B9000C3950B2401F8D0E0B800028004C313D819
:102BA000FCF8E8C0E0740C120DB2E0F8A3E0F58385
:102BB0008882D0E0F07F04020E42C082C0837D0193
:102BC0007C037B027A6B79D01202FD7D037C027B51
:102BD000047A1B79D01202FD7D027C027B047A1CF0
:102BE00079D01202FD7C007B067A6B79D012030348
:102BF000D083D08202006C74F6120DD674FF120DD1
:102C000066A810A911880889097808120E8C7C061C
:102C10007B067A7579D01203097402120D7C851037
:102C200082851183E0C333F97401120D7C7F0202A7
:102C30000E4274F6120DD68A088B09ECFEEDFF7B6E
:102C40000E7A3B79D01202F1900200E0F87900E4AC
:102C5000C8F9900201E0FA7B00E84AF8E94BF985EF
:102C60000882850983E8F0A3E9F0900202E0F87990
:102C700000E4C8F9900203E0FA7B00E84AF8E94B67
:102C8000F98E828F83E8F0A3E9F0900204E0F879EE
:102C900000E4C8F9900205E0FA7B00E84AF8E94B45
:102CA000F9740A120DB2E0FAA3E0F5838A82E8F023
:102CB000A3E9F0900206E0F87900E4C8F990020771
:102CC000E0FA7B00E84AF8E94BF9740C120DB2E027
:102CD000FAA3E0F5838A82E8F0A3E9F0900208E025
:102CE000F87900E4C8F9900209E0FA7B00E84AF8B4
:102CF000E94BF9740E120DB2E0FAA3E0F5838A8273
:102D0000E8F0A3E9F090020AE0F87900E4C8F9904D
:102D1000020BE0FA7B00E84AF8E94BF97410120D57
:102D2000B2E0FAA3E0F5838A82E8F0A3E9F090022A
:102D30000CE0F87900E4C8F990020DE0FA7B00E8B5
:102D40004AF8E94BF97412120DB2E0FAA3E0F583E8
:102D50008A82E8F0A3E9F07F02020E4274F0120DBD
:102D6000D674FD120D667402120DB2E9F08A088B5A
:102D7000098C0A8D0B7415120DB2E0FEA3E0FF85DD
:102D80001082851183E4F0A3F0EE2403FAE43FFB04
:102D90008E828F83A3AC82AD8390045C780C120C7E
:102DA0003D7808790C12052070188E828F83746923
:102DB000F08C828D83746EF08E828F83A3A37466F1
:102DC000801F78087908120520601A8E828F83741C
:102DD0006EF08C828D837461F08E828F83A3A374D6
:102DE0006EF00231EF900460780C120C3D78087997
:102DF0000C12054C5003022E989003E7780C120C2D
:102E00003D7808790C1205206003022EEC7417122D
:102E10000DB2E07003022F2E851082851183C082CF
:102E2000C0837413120DB2123C1BD083D0821232B5
:102E30002A502E851082851183C3E094FCA3E09470
:102E4000FFA2D265D03340197402120DB2E4123CD5
:102E5000FD123C1B7413120DB2C3E098F0A3E0996D
:102E6000F07413120DB21232617418120DB2E070C8
:102E700003022F2B7417120DB2E4022F2D9004645D
:102E8000780C120C3D7808790C1209A68510828501
:102E90001183E0240A123D17900468780C120C3D4F
:102EA0007808790C12054C40D49003DF780C120C92
:102EB0003D7808790C12054C4003022E0D9003DF7B
:102EC000780C120C3D7808790C1209A6123D0E8080
:102ED000D8900464780C120C3D7808790C1205E740
:102EE000851082851183E024F612326490046C7898
:102EF0000C120C3D7808790C12059B40D4900460AC
:102F0000780C120C3D7808790C12059B4003022EB8
:102F10000D9003DF780C120C3D7808790C1205E750
:102F200085108285118312326180D27401F074029F
:102F3000120DB2E060047A00807F123236507E8E2D
:102F4000828F837430F0ECFEEDFF7413120DB2E04B
:102F5000FCA3E0FDEC4D70087418120DB2E0600B9C
:102F60008E828F83742EF0A30EAF837A007B008055
:102F7000118E828F83743012325A7413120DB21272
:102F80003261EA24FF1AEB34FFFB8510828511833E
:102F900012321E500B7413120DB2123C414970D103
:102FA00085108285118374FFC39CF874FF9DF9120C
:102FB000322A50030231017A017B00807112320FF4
:102FC000FAE499FB806885080C85090D850A0E8551
:102FD0000B0F780C120439AC0CE50D3395E0F50EAF
:102FE000F50F780C1203B77808790C120767900375
:102FF000DF780C120C3D7808790C1205E7EC1232E0
:1030000054EAF8EBF9E824010AE439FBE849701EB8
:103010007413120DB2123C414970087418120DB2AB
:10302000E0600B8E828F83742EF0A30EAF83741337
:10303000120DB212321E508E900470780C120C3D9C
:103040007808790C12054C40030231017C01EE2412
:10305000FFF8EF34FFF97415120DB2E0F508A3E0A4
:10306000F50988828983E0642E6010E02CF0643AD0
:1030700070077430F07C0180027C00E8FAE9FBEA1A
:1030800024FF18EB34FFF9C3E5089AE5099B40D209
:10309000ECA2E0506C7402120DB2E0603BEEF8EF6F
:1030A000800DEC88828983F0E824FF18E934FFF969
:1030B000C3E50898E50999501A1231F9E0FC742E1D
:1030C0006C70DFE824FEF582E934FFF583123206E6
:1030D000F980D5123D0E801E8E828F83A3AE82AF03
:1030E00083EEF8EF80061231F9123206F9C3E508D3
:1030F00098E5099940F07415120DB2123C507431E4
:10310000F07417120DB2E07005801C1EAF83EE2420
:10311000FFF582EF34FFF583E0F874306860EC74FB
:103120002E6870031EAF837402120DB2E0700302AA
:1031300031EB8E828F83F0EE2402E43FF9A3AA8262
:10314000AB831232368A828B835012742DF00E0EAE
:10315000E9FF12320FF8E4991232478007742BF01E
:103160000E0EE9FF7C007D00EE240AFE50010F0CDC
:10317000EC70010D123216120CF2EA1232541232B5
:1031800016120CF2123248851082851183E04970C4
:10319000DEC3EC9402ED123BF040D4ECFAEDFBC33D
:1031A000E49CF8E49DF9EE28F582EF39F583E0C060
:1031B000E0C3E49AF8E49BF9EE28F8EF39F9E82C3B
:1031C000F8E93DF9E824F5F582E934FFF583D0E02C
:1031D000F0EC24FF1CED34FFFDC3EC9401ED123B39
:1031E000F050BCEE24F6FEEF34FFFFEEFAEFFB7476
:1031F00003120D7C7F08020E42E824FFFAE934FF37
:10320000FB8A828B8322E088828983F018EB22126A
:103210003CA9C3E49822123CA97A0A7B0022C3E0AD
:103220009AA3E09BA2D265D03322C3E098A3E09991
:10323000A2D265D03322851082851183C3A3E01208
:103240003BF422A3E03400F9851082851183E8F075
:10325000A3E9F02224308E828F83F0A3AE82AF8365
:1032600022E024FFF0A3E034FFF02274F0120DD628
:1032700074B2120D66851082851183123CBD7413E1
:10328000120DB2ECF0A3EDF0740B120DB2E4F0A34A
:103290008020745E120DB2123C317413120DB21202
:1032A0003C50120DD4740B120DB2E02401F0A3E0D7
:1032B0003400F0123C7EF9851082851183E02401F0
:1032C000FAA3E03400FB851082851183123CBD74A3
:1032D00025696010E970BB740B120DB2123C317499
:1032E0004E0231F1123C7E642570198510828511E1
:1032F00083E0240108123243745E120DB2123C3195
:1033000079258096740A120DB2E4F07409120DB298
:10331000E4F07408120DB2E4F07405120DB2E4F09A
:10332000741C120DBC7402120DB212324E741A12B9
:103330000DB27427F0A3740480197405120DB2E065
:1033400070077405120DB2EAF0851082851183E8CA
:10335000F0A3E9123D1E123C79FA24E060DC24FD62
:10336000601724F860DC24FE600624FD600F8011E5
:103370007408120DB2E00480CF740980F5740A80DD
:10338000F1851082851183123C79642A705C746027
:10339000120DB2123C79FAA3E0FB8A828B83E0FC27
:1033A000A3E0FD7406120DB2ECF0A3EDF0EA2402E6
:1033B000FA50010B7460120DB2123CB57406120D76
:1033C000B212323C501F7406120DB2123C31C3E4EB
:1033D0009AFAE49BFB7406120DB2123CBD740812FB
:1033E0000DB2E004F012324880427406120DB2E4CD
:1033F000F0A3802C7406120DB2123C4175F00AA4A1
:10340000F8ABF075F00AE9A42BF9E82AF8E439F9E9
:10341000E824D0F8E934FFF97406120DB2123D39F0
:10342000123CF6FA74D02AC3940A40C87408120DEC
:10343000B2E06007740A120DB2E4F0123C7E642E12
:10344000707B851082851183E0240108123C46E8D8
:10345000F0A3E9123CF6642A70277460120DB212D0
:103460003C88F988828983E0FEA3E0FFE82402F823
:103470005001097460120DB2123C68123D39F0809F
:10348000407E007F00123C7EF874D028C3940A501E
:1034900030EE75F00AA4FEA9F075F00AEFA429FF3A
:1034A000EE28F8E43FF9E824D0FEE934FFFF851068
:1034B00082851183E02401F812324380C87EFF7FA9
:1034C000FF7A00851082851183E02401F8123C46C2
:1034D000E0FBA3E0F5838B82E024B4600824E46081
:1034E0000624FC70057A01123248123C7EC0E0745A
:1034F00004120DB2D0E0123D1E12324E7404120DB1
:10350000B2E07003023A9024BB700302396524FED6
:10351000700302394A24EF70030236CF24F570039A
:103520000235CD14700302376C1470030239651430
:10353000700302396314700302394A24FE700302D7
:10354000376C24FB60241470030236B3147003023A
:1035500036CF24FD700302360D24FE70030236CFF1
:1035600024FD70030236C3023A9C7460120DB2123D
:103570003C9DE8FCE9FDE5082402F5085002050938
:10358000EAA2E0740B502F120DB2123C1B3395E0EF
:10359000FA8C828D83E8FCE9FDEAFEECF0A3EDF005
:1035A000A3EEF0A3F07460120DB2123C50E508F0E7
:1035B000A3E5090232B2120DB2123C1B8C828D833C
:1035C00012324E7460120DB2123C6880E0746012C8
:1035D0000DB2123C88F5838882E0C0E0741C120DA5
:1035E000B2D0E0F07460120DB2123C842402F8A351
:1035F000E03400F97460120DB2123C6812324E745D
:103600001D120DB2A882A983740D0236A97460122E
:103610000DB2123C9DE5082402FAE43509FB746002
:10362000120DB2123CB57402120DB212324EE849BC
:10363000700C7402120DB27438F0A37404F0123BD3
:10364000EE50047E107F277508007509008008057C
:1036500008E508700205097402120DB2123C1B88BD
:10366000828983A3AA82AB837402120DB2123CBD7D
:1036700088828983E0600BC3E5089EE509123BD38D
:1036800040CD7402120DB2123C1F740D120DB21215
:10369000324EC3E49508F8E49509F9740D120DB2A1
:1036A000E028F8A3E039F97402120DB2E8F0A3E9BA
:1036B000023AB37409120DB2E06008EE4F70047E56
:1036C000017F00741A120DB27447F0A37404F074F1
:1036D00060120DB2123C8F7404120DB2E06470706F
:1036E00034850882850983123C31740F120DB212A1
:1036F0003CEBE508123BE4120DB2123C6812324E6C
:103700007416120DB27410123CEFA3F07405120D72
:10371000B2E40237E1EAA2E0E5085016123BDA1201
:103720000DB2123CD3120C73740F120DB2120C7F37
:103730008019123BE4120DB2123CE6F8A3E0F9E85E
:10374000FAE9FB740F120DB2123CEB7404120DB2C5
:10375000E0646F70097416120DB2740880A9E064F9
:1037600075709D7416120DB2740A809B7460120DF0
:10377000B2123C8FEAA2E0E5085010123BDA120DBB
:10378000B2123CD37808120C3D8016123BE4120DA5
:10379000B2123CE6F508A3E0F5093395E0F50AF529
:1037A0000B740F120DB27808120C4C9003E77808D6
:1037B00012039140217405120DB2742DF0740F1292
:1037C0000DB27808120C3D7808120BFE740F120D22
:1037D000B27808120C4C7416120DB2740A123CEF37
:1037E000A3F0744D120DB2A882A9837402120DB217
:1037F00012324E740D120DB2123CCB120DB2120CDD
:1038000073E8494A4B6004D2008009C200EE4F7051
:10381000030238C07402120DB2123C4A120DB212E9
:103820003CCB120DB2780C120C3D7416120DB2780E
:1038300008120C3D780C7908120B8C741A120DB218
:10384000E02508F8A3E035098882F583E0C0E0743C
:1038500002120DB2123C50D0E0F0740F120DB2788B
:103860000C120C3D7416120DB27808120C3D780C37
:103870007908120B8C740F120DB2780C120C4C7468
:103880000F120DB2120C73E8494A4B7087123BEECF
:10389000502E740A120DB2E060267405120DB2E0CB
:1038A0006004D2F08002C2F07406120DB2123C0D18
:1038B000800E7402120DB2123CC3120DB2123C61A2
:1038C0007402120DB2123C1F744D120DB2C082C0B0
:1038D000837402120DB2123C31D083D082E582C3D0
:1038E0009AFAE5839BFBC3EA9EEB123BD340C37479
:1038F00009120DB2E07003023AB4A2004003023A8A
:10390000B47404120DB2E064786005E0645870107D
:10391000E088828983F0E824FF18E934FFF98017F2
:10392000E0646F6003023AB47402120DB2123C7983
:1039300064307003023AB47402120DB2123CC31226
:103940000DB2123C507430023AB37415120DB274B9
:1039500001F07404120DB2E024FEF0EE4F700D7E03
:10396000018010E4F07415120DB2E4F0123BEE5039
:10397000047E067F007460120DB2123C8F850882AF
:10398000F583780C120C3DE508123BDA120DB212E9
:103990003C68123CCB120DB2780C120C4C9003E731
:1039A0007808120C3D780C790812059B502274059A
:1039B000120DB2742DF0740F120DB27808120C3D76
:1039C000E50BB2E7F50B740F120DB27808120C4C30
:1039D0007406120DB2741C120DBC8909E028F8A3FC
:1039E000E03509F97402120DB212324E7409120D4B
:1039F000B2E0F5087808120E907416120DB2E0F5D8
:103A0000087808120E907404120DB2120EA38E08DC
:103A10008F097808120E8C740A120DB2E0F9741531
:103A2000120DB2120C5B1203397406120D7C740D68
:103A3000120DB2123CBD740A120DB2E0607674052C
:103A4000120DB2E06004D2F08002C2F07406120DD2
:103A5000B2123C0D740D120DB2C082C083740212FA
:103A60000DB2123C1BD083D082E0C398F8A3E0993A
:103A7000F9C3E89EE9123BD3503A7402120DB21218
:103A80003C4A120DB2123CC3120DB2123C6180C40A
:103A9000851082851183123C281232477402120D60
:103AA000B27458F0A37404F0740D120DB2745BF08C
:103AB000A37404F0740D120DB2C082C0837402129C
:103AC0000DB2123C1BD083D082E0C398FEA3E099D4
:103AD000FF7406120DB2C3E09EA3E0123BD3500860
:103AE00075080075090080297405120DB2E06004A4
:103AF000D2F08002C2F07406120DB2E0C39EF8A3A9
:103B0000E09FF9A2F0E433FAE89AF508E99400F5A9
:103B1000097408120DB2E070208019745E120DB2A3
:103B2000123C37120DB2123C50120DD4740B120D10
:103B3000B2123D14123BFC50E27405120DB2E0606B
:103B400056745E120DB2123C317405120DB2E0F9DA
:103B50007413120DB2123C50120DD48032745E12E6
:103B60000DB2123C317402120DB2123C84F974137E
:103B7000120DB2123C50120DD47402120DB2E02498
:103B800001F8A3E03400F97402120DB212324E743F
:103B90000B120DB2123D14EE24FF1EEF34FFFFC3D3
:103BA000123BF050B87408120DB2E070030232B349
:103BB000123BFC50030232B3745E120DB2123C375A
:103BC000120DB2123C50120DD4740B120DB2123DF4
:103BD0001480DD9FA2D265D033222404F8E4350995
:103BE000F97460222402F8E43509F9746022C3EF05
:103BF000123BF4229400A2D265D03322E50824FFC0
:103C0000F508E50934FFF509C3123BF422A2F0E4FC
:103C100033F8E098FEA3E09400FF22123CAF22129A
:103C20003C2322123C28F922E024FFF8A3E034FFD1
:103C300022E0FAA3E0FB22E0FAA3E0FB7920741370
:103C400022123CAFE822123D2D22123C23740222A4
:103C5000123C5422123C5822E0F8A3E0F5838882FB
:103C600022123C547430F022123C6C22123C70221E
:103C7000E0FAA3E0F5838A8222123C6CE0228510F0
:103C800082851183123D0522123D05F8A3E0221220
:103C90003C9322123D09F508A3E0F50922123C935A
:103CA000850882F583123CAF22851082851183E05E
:103CB000F8A3E0F922E0FCA3E0F5838C82EAF0A30C
:103CC000EBF022E8F0A3E9F0740222E8F0A3E9F0B7
:103CD000740F22123CD722123C70E8F0A3E9F08561
:103CE000088285098322123CD7E022EAF0A3EBF098
:103CF000A3E4F0A3F022123CFD123D0522F0851052
:103D00008285118322123D0922123C58E02285103F
:103D100082851183E02401F0A3E03400F022123DFB
:103D20002222123CFDE02401F8123D2D22A3E034B2
:103D300000F985108285118322E8F0A3E9123D2263
:103D4000E8F0A3E9227C007D00801308E8700109F7
:103D5000C3E89417E9940240F20CEC70010DC3EC37
:103D60009AED9B50067800790080E502006C75F1B1
:103D70000075F30C53FF3F43868043C50B43C2D805
:103D8000C2E943864043A88402006C74F7120DD642
:103D900078007900801B8A828B83E0F5C18A828B50
:103DA00083A3AA82AB83A2E950FCC2E908E87001B0
:103DB00009C3E89CE99D40DE7F01020E4253C6BF65
:103DC000E59EA2E640FA53C6B802006C74A9120D33
:103DD000669002C9744E120DCC7409120C987E00C4
:103DE0001202A312029712025B802B7CA37D037444
:103DF0000E120DC412035D740E120DC41203698AF3
:103E0000088B09AC08AD09740E120DC412029D7A1C
:103E1000147B00120291120315E9FEEEF5087509F4
:103E2000007808120E8C7CD27D027410120DC41220
:103E3000035D7402120D7C740E120DC41203698AA4
:103E4000088B09AC08AD09740E120DC412029D74E2
:103E5000686E709712030F1202EB120315E9F8E86F
:103E6000FE74686870A97404120DBC88088909780A
:103E700008120E8C7408120DBC8808890978081283
:103E80000E8C7404120DBC880889097808120E8CF7
:103E90007408120DBC880889097808120E8C7410F9
:103EA000120DBC880889097808120E8C7414120D42
:103EB000CC7416120DC412031B740A120D7C12026C
:103EC000E5900297120E9F90028F120E9F90029320
:103ED000120E9F7A047B0312034B740C120D7C7438
:103EE00002120DB2E0F508A3E0F509E5093395E00B
:103EF000F50AF50B78081203B79003BB780C120C87
:103F00003D7808790C1209A69003BF780C120C3D7D
:103F10007808790C12078C7404120DB2120EA37477
:103F200008120DB2120EA37404120DB2120EA37871
:103F300008120E88740C120DB2120EA37414120D16
:103F4000B2120EA37418120DB2120EA3741C120D2D
:103F5000B2120EA37C237D037420120DC412035DE4
:103F60007412120D7C740E120DC41203698A0C8B2C
:103F70000DAC0CAD0D740E120DC412029D7808121A
:103F80000E887A547B0312034B7404120D7C90024A
:103F900093780C120C3D9003C37808120C3D780CFA
:103FA000790812054C4019900293780C120C3D9040
:103FB00003C77808120C3D780C790812059B50074E
:103FC0007A6C7B0312034B900293780C120C3D9099
:103FD00003C37808120C3D780C790812059B502019
:103FE000900293780C120C3D9003C77808120C3D98
:103FF000780C790812054C50077A817B0312034B29
:10400000851082851183C3E09488A3E09413A2D223
:1040100065D03340317A907B0312034B7A907B0357
:1040200012034B7A907B0312034B7A907B031203AB
:104030004B7A907B0312034B7A907B0312034B7AEB
:10404000907B0312034B7A147B00120291023E5ABA
:1040500074F0120DD674F4120D66851082851183EA
:10406000EAF0A3EBF0A3ECF0A3ED12424A120C3DF0
:10407000EDC2E7F50B8510828511837808120C4C90
:104080008510828511837808120C3D90041B780CF2
:10409000120C3D7808790C12059B503685108285EC
:1040A00011837808120C3D900460780C120C3D7856
:1040B00008790C120520700B7ADB7B0F7C497D3F61
:1040C0000242407408120DB2E4F0A3F0A3F0A3F092
:1040D00080647408120DB274DBF0A3740FF0A37443
:1040E00049F0A3743F12424A120C3D900474780CBC
:1040F000120C3D7808790C12078CC008C009C00A60
:10410000C00B851082851183780C120C3D900460E1
:104110007808120C3D780C790812078CD00BD00A65
:10412000D009D0087808790C1209A685108285116B
:10413000837808120C4C8510828511837808120C44
:104140003D851082851183780C120C3D7808790C1E
:104150001205E77404120DB27808120C4C740412A4
:104160000DB27808120C3D900478780C120C3D7852
:1041700008790C1205E790047C780C120C3D780845
:10418000790C12078C7404120DB2780C120C3D7865
:1041900008790C1205E7900480780C120C3D780821
:1041A000790C12078C7404120DB2780C120C3D7845
:1041B00008790C1205E7900484780C120C3D7808FD
:1041C000790C12078CC008C009C00AC00B74041215
:1041D0000DB27808120C3D900488780C120C3D78D2
:1041E00008790C12078C7404120DB2780C120C3D75
:1041F0007808790C1205E790048C780C120C3D7845
:1042000008790C12078CD00FD00ED00DD00C780C82
:1042100079081209A68510828511837808120C3D51
:10422000780C79081205E77408120DB27808120CA0
:104230003D780C790812078CAA0CAB0DAC0EAD0FB3
:10424000740C120D7C7F08020E42F08510828511DD
:104250008378082274F0120DD674F8120D6685105A
:1042600082851183EAF0A3EBF0A3ECF0A3EDF085D7
:1042700010828511837808120C3D9003E7780C12A8
:104280000C3D7808790C12054C5004D2008002C213
:10429000008510828511837808120C3DEDC2E7F588
:1042A0000B8510828511837808120C4C851082854D
:1042B00011837808120C3D90041B780C120C3D7889
:1042C00008790C12054C50149002C77421F0A3E435
:1042D000F07AFF7BFF7C7F7D7F0243EE8510828535
:1042E0001183780C120C3D85108285118378081299
:1042F0000C3D780C79081205E7750B3F750A80753F
:1043000009007508007808790C120767AA08AB093C
:10431000AC0AAD0B1203637404120DB2120C678564
:1043200010828511837808120C3D90041F780C12BE
:104330000C3D7808790C12054C505E7508DB750948
:104340000F750AC9750B3FC008C009C00AC00B74BD
:1043500004120DB2780C120C3D8510828511837801
:1043600008120C3D780C79081209A6AA0CAB0DAC0A
:104370000EAD0F1203278A088B098C0A8D0BD00F04
:10438000D00ED00DD00C780C790812076774041287
:104390000DB2780C120C4C802F8510828511837819
:1043A00008120C3D7404120DB2780C120C3D780802
:1043B000790C1209A6AA08AB09AC0AAD0B120327A7
:1043C0007404120DB2120C67A2007404500A120D8C
:1043D000B27808120C3D800E120DB27808120C3D16
:1043E000E50BB2E7F50BAA08AB09AC0AAD0B7408F4
:1043F000120D7C7F08020E4274F0120DD674F81272
:104400000D66851082851183EAF0A3EBF0A3ECF032
:10441000A3EDF08510828511837808120C3D90037E
:10442000E7780C120C3D7808790C120520702F7477
:1044300018120DB27808120C3D9003E7780C120C9C
:104440003D7808790C12052070149002C77421F091
:10445000A3E4F07AFF7BFF7C7F7D7F02458285109D
:10446000828511837808120C3D7418120DB2780CF5
:10447000120C3D7808790C12078C85108285118307
:10448000780C120C3D7808790C1205208510828575
:10449000118378087024120C3D9003E7780C120CFD
:1044A0003D7808790C12054C7ADB7B0F7CC95005EE
:1044B0007D3F0245827DBF024582120C3D74181279
:1044C0000DB2780C120C3D7808790C1209A6740410
:1044D000120DB27808120C4C7418120DB278081232
:1044E0000C3D9003E7780C120C3D7808790C12050E
:1044F0009B8510828511837808120C3D9003E77824
:104500000C120C3D7808790C505912054C50287546
:1045100008DB75090F750A49750B407404120DB25A
:10452000120C5B1203518A0C8B0D8C0E8D0F7808C8
:10453000790C12076780227404120DB2120C5B1200
:1045400003518A088B098C0A8D0B900423780C1276
:104550000C3D7808790C12078CAA08AB09AC0AAD9F
:104560000B801F12054C7404500B120DB2120C5B21
:10457000120351800D120DB2120C5B120351EDB2F9
:10458000E7FD7408120D7C7F08020E4274F0120DD4
:10459000D674F6120D667406120DB2EAF0A3EBF0B3
:1045A000A3ECF0A3EDF07406120DB27808120C3DE6
:1045B000900417780C120C3D7808790C12059B506A
:1045C0003A7406120DB27808120C3D9003E7780C8D
:1045D000120C3D7808790C120520700B7A007B00D4
:1045E0007C007D0002470E9002C77421F0A3E4F026
:1045F0007AFF7BFF7C7F7D7F02470EA810A9118880
:104600000889097808120E8C7408120DB2120C5B1E
:104610001203337402120D7C7402120DB2120C6775
:104620007402120DB27808120C3D900490780C12AE
:104630000C3D7808790C12078C900494780C120CBD
:104640003D7808790C1205E77402120DB2780C124D
:104650000C3D780C79081209A6780C790812078CA1
:10466000850C08850D09850E0A850F0B851082853E
:104670001183E0A2E050251475F00212036FFA9046
:104680000498780C120C3D7808790C1205E7EAA220
:10469000E713FAE413250AF50AEA801175F002120D
:1046A000036FA2E713F8E413250AF50AE8350BF5C2
:1046B0000B7402120DB27808120C4C7402120DB277
:1046C0007808120C3D90049C780C120C3D78087907
:1046D0000C1205E7C008C009C00AC00B7406120D11
:1046E000B2780C120C3D7402120DB27808120C3D17
:1046F000780C79081209A6D00BD00AD009D0087816
:1047000008790C12078CAA08AB09AC0AAD0B740A25
:10471000120D7C7F08020E42C082C08343FDA0D2EE
:104720008712028BD28512028BD083D08202006C5A
:10473000C082C08343FDA0D28712028BD2851202B1
:104740008BC28712028BD083D08202006CC082C0E1
:104750008343FDA0C28712028BD28512028BD287BF
:1047600012028BD083D08202006C74F7120DD67EB9
:10477000007F0043FD2053FD7FD28512028BC2854E
:1047800012028BC3EE942CEF9401400312028B7F34
:1047900001020E4274F7120DD6890843FDA0AF083E
:1047A0007E00800FC28712028BD28512028BEFC36C
:1047B00033FF0EEEC39408500EC28512028BEFA297
:1047C000E750E1D28780DFC28512028BD2851202C8
:1047D0008B7F01020E4274F7120DD67E0043FD203E
:1047E00053FD7FC28512028BD2857F008015D28552
:1047F00012028BA287E433F8EEC33348FEC285125F
:10480000028B0FEFC3940840E5EEF97F01020E42E0
:1048100074F7120DD68908EAFFEBFE120261EEF979
:1048200012027312026DA90812027312026DEFF9DF
:1048300012027312026D1202677F01020E4274F7B8
:10484000120DD68908EAFF120261EFF91202731203
:10485000026DA90812027312026D12026174014FF7
:10486000F912027312026D120279E9FE120267EE6A
:10487000F97F01020E42780480041470FD18E8608C
:1048800004740280F602006CC082C0838A828B832B
:10489000124915E9F08A828B83E02401FCA3E034FD
:1048A00000FD8A828B83ECF0A3EDF0D083D08202EE
:1048B000006C74F6120DD674FC120D667402120DA3
:1048C000B2EAF0A3EBF0ECFAEDFB740E120DBC852E
:1048D0001082851183E8F0A3E9F0A810A9118808D7
:1048E00089097808120E8C7404120DBC8808890995
:1048F0007808120E8C7C577D0312033F7404120D4E
:104900007C7402120DB2124915E4F07404120D7C8D
:104910007F02020E42E0F8A3E0F58388822274F061
:10492000120DD68A088B098C0A8D0B7410120DB2E9
:10493000E0F8A3E0F9E8FAE9FB9003E7780C120C41
:104940003D7808790C120520700E8A828B83E4F082
:10495000A3F0FAFBFCFD8022EC33ED332482F83324
:1049600095E0F98A828B83E8F0A3E9F0AA08AB0905
:10497000ED5480443FFDECC2E7FC7F08020E42EE9E
:10498000C0E0E9FA7B00120ED0D0E0FE02006C74A9
:10499000F6120DD674FE120D66740C120DBC851045
:1049A00082851183E8F0A3E9F0A810A9118808898D
:1049B000097808120E8CE4F508F5097808120E8CB7
:1049C0007C457D0312033F7404120D7C7402120DAA
:1049D0007C7F02020E4274F0120DD68A088B098C7D
:1049E0000A8D0B9003E7780C120C3D7808790C12B5
:1049F000054C50051203518007120351EDB2E7FD3B
:104A00007F08020E42C082C0838A828B838001A30A
:104A1000E070FCE582C39AFAE5839BFBD083D082E9
:034A200002006C25
:0400000500000054A3
:00000001FF
