:020000040000FA
:1000000002006000000080FB120090B900030200B3
:100010004AE4900200780F79018002F0A3D8FCD95D
:10002000FA90020EAA82AB8390009378DC7901806B
:1000300015E493A3AC82AD838A828B83F0A3AA825A
:10004000AB838C828D83D8E9D9E775823C75832197
:1000500074001200727582037583007400120072BE
:1000600075D0007581BF751000751102759F000273
:100070000008C09FF59FE473D09F22D083D082C038
:100080009FE493C0E0740193C0E0740293F59F2253
:100090007901224D303A0000000000005B57484FC4
:1000A0004520414D2049203F5D206368697020490B
:1000B00044203D20307825303278286966203D2064
:1000C000307836382C206973204F4B290A005B2585
:1000D000376420253764202537645D203A205B256E
:1000E0003764203D20252E303266435D203A205B68
:1000F00025376420253764202537645D0A004D507C
:1001000055363035305F496E697469616C697A655E
:10011000204641494C000000AA43B81E124200008C
:1001200000003031323334353637383941424344B8
:10013000454600286E756C6C20706F696E74657230
:1001400029003F3F3F000000807F0000803FF90210
:100150001550B743BA510000204100E7DB2E0000E4
:10016000A04010000000080000000A00000012007B
:100170007B09230012007B21230012007B3E230019
:1001800012007B5B230012007B85230012007BCAD8
:10019000230012007B04240012007B322400120092
:1001A0007B6A240012007BAC200012007BDB200065
:1001B00012007BF8200012007B2D210012007B2D05
:1001C0001D0012007B681D0012007B801D001200C4
:1001D0007BF81D0012007B4D1E0012007BC91E0023
:1001E00012007B061F0012007B451F0012007B835C
:1001F000240012007BAD240012007B232500120096
:100200007BDE0C0012007BFC1100C008C3E096F5F9
:100210000808A3E096420808A3E096420808A3E075
:10022000964208A2D265D033E5087001D3D00822E7
:10023000080808E630E711120A6C1202480808089C
:10024000C64480C618181822181818E9799EC608DE
:10025000CAC608CBC608CCC6C370207996CACBCC18
:100260007019798ECBCC70137986CC700EF9802AF8
:10027000CA33CACB33CBCC33CC331930E7F2CCCB37
:10028000CA3350147004EA30E00DE4CA3ACACB3BDA
:10029000CBCC3CCC500209C3E913C6CC182313C6FF
:1002A000CB18C6CA18C6F9221202E820F01430E7AB
:1002B0002B74FFFCFBFA747F8022E4FCFBFA748051
:1002C000801AB48008BC00F2BB00EF800F50EBF93D
:1002D000E4C39AFAE49BFBE49CFCE499C6CC18C600
:1002E000CB18C6CA18C6F922E4C9C608CAC608CBC4
:1002F000C6D3330308CCC63392F0C3947F402E9408
:10030000184019C9B90704CACBCC225025C309CA61
:1003100033CACB33CBCC33CC33D9F422F4600DC900
:10032000CCC313CB13CBCA13CAD9F6CC22E4FCFB43
:10033000FA2214FCFBFA22E6C33318461846184684
:1003400022E7C33319471947194722181818E60836
:100350004608700AE608C3337005E633F422082223
:10036000191919E7094709700AE709C3337005E746
:1003700033F4220922E6084608C313460833600214
:10038000E633F422E7094709C3134709336002E75C
:1003900033F42212037560251203846020120337A0
:1003A0007003020341080808E76670101819E76631
:1003B000700A1819E76670041819E76622F4221209
:1003C0000375601C12038460171203377007120351
:1003D000417001D322C0D01203417006D0D0B322A5
:1003E000C32233D0D0501430E0F6C3E7960809E7B3
:1003F000960809E7960809E796B32220E0D5E69724
:100400000809E6970809E6970809E697B322120358
:1004100075601B12038460161203377007120341C4
:10042000600CB322C0D01203417005D0D022C32289
:1004300033D0D0501330E0EBC3E7960809E79608B5
:1004400009E7960809E7962220E0E4E6970809E61E
:10045000970809E6970809E6972200120375604F8E
:100460001203846012E7548066F612034B70111277
:100470000341703B090909F4F618F618F618F6223C
:10048000120360701512033708080860EAE6447F1B
:10049000F618768018E4F618F62212033760161262
:1004A00003417012E4F608F608F608E65480F609EF
:1004B000090918181822EAC0E0EBC0E0ECC0E0ED32
:1004C000C0E0E687F0A4FBACF008E687F0A42CFCC3
:1004D000E435F0FA1809E687F0A42C4B60027401A9
:1004E000CA35F0FCE433FB09E687F0D2F7A42CCB45
:1004F00035F0FC1908E687F0A42BCC35F0FBE4338B
:10050000FD0819E687F0D2E7A42C4ACB35F0CD34AC
:1005100000FC09E687F0D2E7A42DCC35F0FDE433EA
:10052000FA0918E687F0D2F7A42CCD35F0CA3400CA
:10053000FC08E687F0D2E7D2F7A42ACC35F07A7E21
:1005400020E70B0ACB33CBCD33CDCC33CC33CB33FD
:1005500050147004ED30E00ED2F1E4CD3DCDCC3C32
:10056000CC3B5005DA05C2F1EB547FC63308E633C5
:1005700092F0FBE73309E733C39A502D2B70190C27
:100580000D4C4D70151806E608C333700D20F10AA6
:10059000A2F013F6E418800B4024E4F630F0027663
:1005A0008018F618F618F68024D33B14501074FF08
:1005B000A2F013F6187680E418F618F6800FA2F071
:1005C00013F618E63303F618ECF618EDF6D0E0FD56
:1005D000D0E0FCD0E0FBD0E0FA22120384604612A7
:1005E0000375603DE9687008F618F618F618F622EB
:1005F000748067F712060E090909748067F72212E2
:100600000375601D1203847005191919801A1203ED
:100610004B701F120360C37003E66733191919404A
:10062000071818182208080874FFF618F618F618A4
:10063000F6221203606017120341702192F0120338
:10064000377019501720F014080808090909E7F64F
:100650001819E7F61819E7F61819E7F62212033702
:1006600060E6E869701F0808E62480F608E436F6BC
:1006700018547FB47F0CE654806007F6E418F6182F
:10068000F622181822E9C6CC08C6CD08C6CE08C680
:10069000CFC0E0E8C0E0EAC0E0EBC0E009E9F8095B
:1006A000E7FA09E7FBE6F918E6F8C3EC98ED99EEEE
:1006B0009AEBC2E7F5F0EFC2E795F0500E600CEB55
:1006C000CFFBEACEFAE9CDF9E8CCF8EAA2E7D2E727
:1006D000FAEB33FB13F5F0EEA2E7D2E7FEEF33FFC0
:1006E000C5F013A2E730E601B313C5F0C3C0E0C004
:1006F000F07F00C39BFB605B9418600C401AD0E055
:1007000023F9D0E0F80207DD8AF0E9486003D2F06F
:10071000E4AFF0FAF9F8803BEB30E40D89F0EA60E1
:1007200003D2F0E4AFF0F9CAF8EB30E30D88F0EF54
:100730006002D2F0AFF0E4CAC9F8EB54076014FBD2
:10074000C3EA13FAE913F9E813F8EF135002D2E001
:10075000FFDBEDD0E0C0E030E739C3E49FFFF5F008
:10076000EC98FC42F0ED99FD42F0EE9AFE42F0D09A
:10077000E0F9D0E0F8E5F0607AE923F9EE20E7420D
:10078000D8028067C3EF33FFEC33FCED33FDEE336B
:10079000FE80EAEC28FCED39FDEE3AFED0E023F9CC
:1007A000D0E0F84002801BC3EE13FEED13FDEC1306
:1007B000FCEF135002D2E0FF08B800067F7F74FF01
:1007C000802EEF3350178CF020F00260100CBC002C
:1007D0000C0DBD00080EBE000408E860DFE933E838
:1007E00013FFEE2313FE4F4D4C8008E95480FFE4C5
:1007F000FEFDFCEE33EF33F47004FCFD7E80D0E0B0
:10080000FBD0E0FAD0E0F8D0E0CFC618CEC618CDC5
:10081000C618CCC6F92212037570041818182212D3
:100820000384700D74FFF61819F61819F61819F6E6
:1008300022E7548066F6120337700F12034170F0FE
:1008400014F608F608F608F680D1120341700CF68B
:1008500008F608768008E6447F80EC120363700C8B
:1008600012034E60BFE65480F6E480BB12034E7064
:100870000519191980A5E869700C763F187680185B
:10088000F618F6E8F922E6CDC0E018ECC0E0E63351
:10089000CD33CDD313F6E719FCE7191933CC33C3A5
:1008A000947F400ECD9D502408E65480F6E418F65F
:1008B000800FF4043D14501408E6447FF618768047
:1008C000E418F618F6D0E0FCD0E0FD22CCD313CC2F
:1008D000FD18E4C6CBC0E018E4C6CAC0E00808EDC5
:1008E00008C633E613F618E433C675F003C3CA9797
:1008F000CA09CB97CB199C40047D08802EBD00030C
:100900000209BF16B6FF050606081618C3CA33CA81
:10091000CB33CB33CA27CA09CB37CB193CC37D08AD
:10092000803E187D0820E75CC633C6CA33CACB3385
:10093000CB33DDF1D5F0EB30E77BCA97CA09CB9713
:100940004ACB199C406F4B7025E620E02180661849
:100950007D08C3CA97CA09CB97CB199CD3C633C6A7
:10096000CA33CACB33CB3350C9DDE7D5F0E1D3E48A
:10097000C636C608C636C608C636C608C636C6183F
:1009800018188031C3CA97CA09CB97CB199CB340BA
:1009900097C633C6CA33CACB33CB33DD34D5F02E3A
:1009A000C6A2E0C640C8CA27CA09CB37194A70BEDA
:1009B000CB3CB480B90808E63308E633601F18184A
:1009C00018D0E0FAD0E0FBD0E0FCD0E0FD22187DAA
:1009D00008CA27CA09CB37CB193CD3808013F61835
:1009E000E4B67F11F618B6FF0EF618C60470D208EA
:1009F00008768080CAF618F618F680C5E4CFC0E005
:100A0000E4CEC0E0E4CDC0E0E4CCC0E075F020C3AB
:100A1000E633F608E633F608E633F608E633F6186A
:100A20001818EC33FCED33FDEE33FEEF33FFC3EC6F
:100A30009709ED9709EE9709EF97191919400FFFDC
:100A4000EC97FC09ED97FD09EE97FE191906D5F014
:100A5000BEECF709EDF709EEF709EFF7191919D010
:100A6000E0FCD0E0FDD0E0FED0E0FF22181818E452
:100A7000C396F608E496F608E496F608E496F6229D
:100A8000E0F608A3E0F608A3E0F608A3E0F622E605
:100A9000F008A3E6F008A3E6F008A3E6F022E0FAE7
:100AA000A3E0FBA3E0FCA3E0FD22EAF0A3EBF0A3AC
:100AB000ECF0A3EDF022CAC0E0E6F0A308DAFAD029
:100AC000E0FA22CAC0E0E0A3C582CCC582C583CDCE
:100AD000C583F0A3C582CCC582C583CDC583DAE6C4
:100AE000D0E0CA22C3E498F8E499F9120B258026D5
:100AF000C3E49AFAE49BFBE920E7E9120B25E498AA
:100B0000F8E499F922C3E498F8E499F9120B25E482
:100B100098F8E499F9C3E49AFAE49BFB22EB20E706
:100B2000CFE920E7E0B90010BB0008E88AF084F8BC
:100B3000AAF022E4FBC8FA22EB70227B10C833C86B
:100B4000C933C9335007C39AC3DBF280069A5001F8
:100B50002ADBEAC833F4C8C933F4C9FA2275F008AD
:100B6000E4C833C8C933C933C99AC99B5004C92AD8
:100B7000C93BD5F0ECFBC833F4C8E4C9FA227004D1
:100B800022600D18C6C333C608C633C6D5E0F418B4
:100B900022251010AF08F510400215118008F5103D
:100BA00040021511D2AF22C0D0251010AF08F510A9
:100BB000500205118008F51050020511D2AFD0D0B7
:100BC000222510F58210AF08F5104002151180089B
:100BD000F51040021511D2AF851183222510F58240
:100BE000E43511F58322E4732510C582C0E0E511D8
:100BF00034FFC583C0E0E510C3958224F810AF0828
:100C00008583118582108008858311858210D2AF7B
:100C1000CEF0A3E520F0A37808E608F0A3DEFAEF13
:100C2000F0A3E58124FAF8E608F0A3E608F0A3E6CD
:100C300008F0A30808E608F0A3E608F0A31581155C
:100C400081D0E0FED0E0F8158115811581E8C0E083
:100C5000EEC0E022851183851082E0A3FEE0A3F5BB
:100C6000207808E0A3F608DFFAE0A3FFE0A3C0E0E5
:100C7000E0A3C0E0E0A3C0E0E0A3C0E0E0A3C0E0E8
:100C800010AF0885821085831180088582108583C6
:100C900011D2AFD083D0820200787404800674022F
:100CA00080027401C0E0F404120BC1D0E0120AB655
:100CB0002274028000CCC0E0EDC0E0E510C39CCC03
:100CC000AD1150011D10AF068C108D1180068C10D7
:100CD0008D11D2AF120AC3D0E0FDD0E0FC2274F037
:100CE000120BE874FD120B917402120BDCE9F08A0E
:100CF000088B098C0A8D0B7415120BDCE0FEA3E047
:100D0000FF851082851183E4F0A3F08E828F83A388
:100D1000AA82AB839002C1780C120A807808790C01
:100D200012039370188E828F8374691211BD746ED2
:100D3000F0A37466F0A30A0AAB830211587808790D
:100D40000812039360118E828F83746E1211BD742A
:100D500061F0A3746E80DD9002C5780C120A807871
:100D600008790C1203BF5003020E08900299780C08
:100D7000120A807808790C1203936003020E5C74E7
:100D800017120BDCE07003020E9E85108285118322
:100D9000C082C0837413120BDC121BFBD083D08281
:100DA000121196502C851082851183C3E094FCA308
:100DB000E094FFA2D265D03340177402120BDCE43A
:100DC000121CCFF97413120BDCC3E098F0A3E09966
:100DD000F07413120BDC1211B37418120BDCE070F8
:100DE00003020E9B7417120BDCE4020E9D9002C9E5
:100DF000780C120A807808790C1208168510828502
:100E00001183E0240A121D0C9002CD780C120A8086
:100E10007808790C1203BF40D49002D1780C120AE2
:100E2000807808790C1203BF4003020D7F9002D135
:100E3000780C120A807808790C120816121D0380AB
:100E4000D89002C9780C120A807808790C12045ADA
:100E5000851082851183E024F61211B69002D578B0
:100E60000C120A807808790C12040E40D49002C546
:100E7000780C120A807808790C12040E4003020DD7
:100E80007F9002D1780C120A807808790C12045AEB
:100E90008510828511831211B380D27401F074021F
:100EA000120BDCE060077A007B00020FAA1211A28D
:100EB000507D8E828F837430F0EAFEEBFF74131244
:100EC0000BDCE0FCA3E0FDEC4D70087418120BDCA9
:100ED000E0600B8E828F83742EF0A30EAF837A00B6
:100EE0007B0080118E828F8374301211DE74131296
:100EF0000BDC1211B3EA24FF1AEB34FFFB851082DE
:100F000085118312118A500B7413120BDC121BFF14
:100F10004970D185108285118374FFC39CF874FFDA
:100F20009DF912119650030210787A01020EA885DD
:100F30001082851183121BFBC3E498FAE499FB80AD
:100F40006985080C85090D850A0E850B0F780C1232
:100F500002A8AC0CE50D3395E0F50EF50F780C12F8
:100F600002307808790C1205DA9002D1780C120A56
:100F7000807808790C12045AEC1211D8EAF8EBF9CF
:100F8000E824010AE93400FBE849701E7413120BCF
:100F9000DC121BFF4970087418120BDCE0600B8E2A
:100FA000828F83742EF0A30EAF837413120BDC12A6
:100FB000118A508D9002D9780C120A807808790C29
:100FC0001203BF40030210787C01EE24FFF8EF34D7
:100FD000FFF97415120BDCE0F508A3E0F50988822F
:100FE0008983E0642E6010E02CF0643A700774305E
:100FF000F07C0180027C00E8FAE9FBEA24FF18EBB0
:1010000034FFF9C3E5089AE5099B40D2ECA2E05011
:10101000677402120BDCE06036EEF8EF800A121102
:1010200075E824FF18E934FFF9C3E50898E5099944
:101030005018121162E0642E70E4E824FEF582E993
:1010400034FFF58312116FF980D7121D03801E8EB5
:10105000828F83A3AE82AF83EEF8EF800612116217
:1010600012116FF9C3E50898E5099940F07415125B
:101070000BDC121C1A7431F07417120BDCE07005D3
:10108000801A1EAF83EE24FFF582EF34FFF583E074
:10109000643060EEE0642E70031EAF837402120BA6
:1010A000DCE070030211541211DAA3A9831211A219
:1010B0008E828F835014742DF00EE9FF8510828587
:1010C0001183121C431211CB8006742BF00EE9FF22
:1010D0007C007D00EE240AFEEF3400FFEC24010CBE
:1010E000ED3400FD12117C120B1DEA1211D8121101
:1010F0007C120B1D1211E54970E2C3EC9402ED1253
:101100001BAC40D8ECFAEDFBC3E49CF8E49DF9EE8F
:1011100028F582EF39F583E0C0E0C3E49AF8E49B58
:10112000F9EE28F8EF39F9E82CF8E93DF9E824F56B
:10113000F582E934FFF583D0E0F0EC24FF1CED34B8
:10114000FFFDC3EC9401ED121BAC50BCEE24F6FE87
:10115000EF34FFFFEEFAEFFB7403120BA77F0802D8
:101160000C54E824FFFAE934FFFB8A828B832212B5
:10117000117518EB22E088828983F0228510828520
:101180001183121C507A0A7B0022C3E09AA3E09BD1
:10119000A2D265D03322C3E098A3E099A2D265D051
:1011A0003322851082851183C3A3E09400A2D26507
:1011B000D03322E024FFF0A3E034FFF022F0EAFE77
:1011C000EBFF8E828F8322A3E03400F985108285A5
:1011D0001183E8F0A3E9F02224308E828F83F0A3FC
:1011E000AE82AF83228510828511831211EF22E82F
:1011F000F0A3E9F0851082851183E02274F0120BD0
:10120000E874B0120B91851082851183121CB5749D
:1012100018120BDCECF0A3EDF0740F120BDCE4F011
:10122000A380227460120BDC121BEB7404120BDC23
:10123000E0F97418120BDC121C1A120BE6740F1270
:101240000BDC121BB4F0121C2EFA121CEE120BDC7B
:10125000EAF074256A6010E070C9740F120BDC129A
:101260001BEB745002115A121C2E64257019851044
:1012700082851183E02401081211C77460120BDC0F
:10128000121BEB792580AB740E120BDCE4F0740DAD
:10129000120BDCE4F0740C120BDCE4F07405120B9E
:1012A000DCE4F0741E120BDCA882A9837402120B1A
:1012B000DC80157405120BDCE070077405120BDC82
:1012C000EAF08510828511831211EB121BE2121CC9
:1012D00075FA24E060DD24FD601724F860DD24FE4B
:1012E000600624FD600F8011740C120BDCE004809A
:1012F000D0740D80F5740E80F1121C75642A705B39
:101300007462120BDC121C80FB8A828B83E0FCA3CC
:10131000E0FD740A120BDCECF0A3EDF0EA24020A03
:101320000AEB3400FB7462120BDC121CAD740A125F
:101330000BDC1211A8501F740A120BDC121BEBC33A
:10134000E49AFAE49BFB740A120BDC121CB5740CD1
:10135000120BDCE004F01211CC804A740A120BDC90
:10136000E4F0A3802D740A120BDC121BFF75F00A47
:10137000A4F8AAF075F00AE9A42AF9E50828F8E427
:1013800039F9E824D0F8E934FFF9740A120BDC12B9
:101390001D13121CCFF5838882E0F50874D0250850
:1013A000C3940A40C0740C120BDCE06007740E1288
:1013B0000BDCE4F0121C2E642E600302144785102F
:1013C00082851183E0240108A3E03400F91211E5BD
:1013D000121C1FE0642A702C7462120BDC121C3485
:1013E000F8A3E0F988828983E0FEA3E0FFE8240205
:1013F0000808E93400F97462120BDC121C68121D33
:1014000013F080477E007F00851082851183121CB7
:101410003D74D02508C3940A5031EE75F00AA4FE3D
:10142000A8F075F00AEFA428FFE5082EF8E43FF9CC
:10143000E824D0FEE934FFFF851082851183E02483
:1014400001F81211C780C17EFF7FFF7A00851082EC
:10145000851183121BDD851082851183E0FBA3E0DB
:10146000F5838B82E024B4600824E4600524FC70DA
:10147000040A1211CC121C2EFB121CEE120BDCEB18
:10148000F07003021A5224BB700302191824FE7074
:10149000030218FA24EF700302164424F5700302C5
:1014A00015491470030216E9147003021918147018
:1014B000030219161470030218FA24FE70030216B0
:1014C000E924FB602414700302163414700302161E
:1014D0004424FD700302158224FE70030216442486
:1014E000FD7003021644021A5E7462120BDC121CB9
:1014F000A7120BDC1211D2EAA2E0740F5033120BC8
:10150000DCE0FCA3E0FD3395E0FE7406120BDC1278
:101510001C88ECF0A3EDF0A3EEF0A3F07462120BC4
:10152000DC121C8F120BDC121C68E8F0A3E902121B
:1015300045120BDC121BFB7406120BDC121C80F52F
:10154000838A82E8F0A3E980D27462120BDC121C59
:1015500088E0C0E0741E120BDCD0E0F07462120B65
:10156000DC121C8F120BDC121C681211D2741F12B9
:101570000BDCA882A9837412120BDCE8F0A3E90249
:101580001A757462120BDC121CA7120BDC1211D23A
:101590007406120BDC121CA7120BDCE02402FAA367
:1015A000E03400FB7462120BDC121CAD7402120BEF
:1015B000DC1211D2E849700C7402120BDC74AEF02C
:1015C000A37402F0121BAA50047E107F2774081225
:1015D0000BDCE4F0A380087408120BDC121BB4F0DF
:1015E0007402120BDC121BFB88828983A3AA82ABD4
:1015F000837402120BDC121CB588828983E0600AB6
:101600007408120BDC121C0440CD7402120BDC12A5
:101610001BCB7412120BDC1211D27408120BDC12E9
:101620001C43F97412120BDCE028F8A3E039F974BA
:1016300002021578740D120BDCE06008EE4F7004A6
:101640007E017F007462120BDC121CA7120BDC12ED
:101650001CFB120BDCE0647070387406120BDC1299
:101660001C9D120BDC121CD6120BDCE02402121C97
:101670005F120BDC121C681211D29002DD120A9E5E
:10168000741A120BDC120AAA7405120BDCE4F002C5
:101690001779EAA2E07406501B120BDC121C1A1216
:1016A0000A9E7414120BDC120AAA7406120BDCE0F8
:1016B00024048012120BDC121C9D120BDC121CD6AF
:1016C000120BDCE02402121C5F120BDC121C6812ED
:1016D0001CFB120BDCE0646F70059002E1809EE061
:1016E000647570969002E580947462120BDC121C93
:1016F000A7120BDC1211D2EAA2E074065016120BEC
:10170000DC121C1A7808120A807406120BDCE02422
:1017100004F8801B120BDC121C3DA3E0F509339585
:10172000E0F50AF50B7406120BDCE024020808123F
:101730001C60120BDC121CE3120BDC7808120A8FFF
:10174000900299780812020A40217405120BDC7489
:101750002DF07414120BDC7808120A807808120A33
:101760006F7414120BDC7808120A8F9002E5120ACB
:101770009E741A120BDC120AAA744F120BDCA88298
:10178000A9837402120BDC1211D27412120BDC1238
:101790001CE6120BDC7808120A80E5084509450AA8
:1017A000450B60097411120BDC7401800674111270
:1017B0000BDCE4F0EE4F7008E0A2E0400302186D8D
:1017C0007402120BDC121C14120BDC121CE6120B3E
:1017D000DC780C120A80741A120BDC7808120A806A
:1017E000780C79081209FC749D2508F5827402357D
:1017F00009F583E0C0E07402120BDC121C1AD0E081
:10180000F07414120BDC780C120A80741A120BDCC0
:101810007808120A80780C79081209FC7414120BEB
:10182000DC780C120A8F7414120BDC7808120A8010
:10183000E5084509450A450B7086121BAA502E740F
:101840000E120BDCE060267405120BDCE06004D2A3
:10185000F08002C2F0740A120BDC121BBD800E7401
:1018600002120BDC121CC7120BDC121C27740212B2
:101870000BDC121BCB744F120BDCC082C0837402D2
:10188000120BDC121BEBD083D082E582C39AFAE5FF
:10189000839BFBC3EA9EEB121C0D40C3740D120B1D
:1018A000DCE07003021A767411120BDCE0A2E04057
:1018B00003021A767404120BDCE064786005E064BD
:1018C00058701E121175E824FF18E934FFF97402EC
:1018D000120BDC121CC7120BDC121C1A7430021A19
:1018E00075E0646F6003021A767402120BDC121C3E
:1018F0007B64307003021A7680D47408120BDC7497
:1019000001F0A3E4F07404120BDCE024FEF0EE4FCF
:10191000700F7E018012E4F07408120BDCE4F0A377
:10192000F0121BAA50047E067F007462120BDC12B8
:101930001CA7120BDC1211D27406120BDC121C1A3B
:10194000780C120A807406120BDCE02404121C5F6F
:10195000120BDC121CE3120BDC780C120A8F9002C3
:10196000997808120A80780C790812040E502274B3
:1019700005120BDC742DF07414120BDC7808120ABB
:1019800080E50BB2E7F50B7414120BDC7808120A31
:101990008F740A120BDC121BFB741E120BDCE58227
:1019A00028F8E58339F97402120BDC1211D2740D98
:1019B000120BDCE0F5087808120CA27409120BDC9B
:1019C000E0F5087808120CA27404120BDC120CB1BA
:1019D0008E088F097808120C9E740A120BDCE0F94D
:1019E000741A120BDC120A9E1201FE7406120BA767
:1019F0007412120BDC121CB5740E120BDCE0607654
:101A00007405120BDCE06004D2F08002C2F0740AAC
:101A1000120BDC121BBD7412120BDCC082C083746B
:101A200002120BDC121BFBD083D082E0C398F8A318
:101A3000E099F9C3E89EE9121C0D503A7402120BAA
:101A4000DC121C14120BDC121CC7120BDC121C273C
:101A500080C4851082851183121BD41211CB7402AD
:101A6000120BDC74BDF0A37402F07412120BDC7460
:101A7000C0F0A37402F07412120BDCC082C0837435
:101A800002120BDC121BFBD083D082E0C398FEA3B2
:101A9000E099FF740A120BDC121C04500A7408123D
:101AA0000BDCE4F0A380307405120BDCE06004D2A0
:101AB000F08002C2F0740A120BDCE0C39EF8A3E0CF
:101AC0009FF9A2F0E433FAE89AF8E99400F974086F
:101AD000120BDCE8F0A3E9F0740C120BDCE0702BC5
:101AE00080197460120BDC121BF1120BDC121C1A31
:101AF000120BE6740F120BDC121D097408120BDCBA
:101B0000121CBB120BDC1211A850D77405120BDC8F
:101B1000E060507460120BDC121BEB7405120BDCDE
:101B2000E0F97418120BDC121C1A120BE6802C74EC
:101B300060120BDC121BEB7402120BDC121C34F96A
:101B40007418120BDC121C1A120BE67402120BDC56
:101B5000121BDD7402120BDC1211D2740F120BDC9B
:101B6000121D09EE24FF1EEF34FFFFC3121BAC5001
:101B7000BE740C120BDCE070030212467408120BE8
:101B8000DC121CBB120BDC1211A8500302124674AB
:101B900060120BDC121BF1120BDC121C1A120BE68A
:101BA000740F120BDC121D0980D2C3EF9400A2D275
:101BB00065D03322E02401F0A3E0340022A2F0E457
:101BC00033F8E098FEA3E09400FF22121BCF22120C
:101BD0001BD4F922E024FFF8A3E034FF22E0121B1B
:101BE000E2222401F8A3E03400F922E0FAA3E0FBAA
:101BF00022E0FAA3E0FB7920741822121C50221272
:101C00001C50E822C3E09EA3E0121C0D229FA2D22A
:101C100065D03322121BCF740222121C1E22E0F860
:101C2000A3E0F583888222121C1E7430F0228510F6
:101C300082851183121C3822121C56E022121C3895
:101C4000F50822121C50C3E498F8E49922121C569D
:101C5000E0F8A3E0F922E0F8A3E0F583888222F817
:101C6000A3E03400F9746222121C6C22E0FAA3E0B3
:101C7000F5838A8222851082851183121C6CE022F2
:101C8000121C6CE0FAA3E022121C38121C1F221254
:101C90001C382402F8A3E03400F9746222121C4DAF
:101CA000E8FAE9FB741422121C4D740622E0FCA32E
:101CB000E0F5838C82EAF0A3EBF022E024FFF0A3AE
:101CC000E034FFF0740822E8F0A3E9F07402221275
:101CD00011F3F8A3E022EAF0A3EBF0A3E4F0A3F001
:101CE000740622121C6CE8F0A3E9F074142285102B
:101CF00082851183E0240108121D21E8F0A3E9F098
:101D0000740422851082851183E02401F0A3E0345D
:101D100000F0221211EF2401F8121D21E8F0A3E9CE
:101D200022A3E03400F98510828511832274F41215
:101D30000BE8E9FE8A0A8B0B7F008021EEFAE50AA8
:101D40002FF9120198E9C0E08F0875090074002589
:101D500008F58274023509F583D0E0F00FEFC395E2
:101D60000B40D97F04020C5474F7120BE88908EA7F
:101D7000FFEBFEAB08FAEFF91201927F01020C545F
:101D800074F3120BE8E9FFEAFE8B0A8C0B8D0C75DD
:101D90000801750900E50B7808120B7EE50824FFA1
:101DA000F508E50934FFF509E50AC3950B24017828
:101DB00008120B7EE508F5087B01EEFAEFF9120137
:101DC000BC900200E0FBE50CE50AC3950B2401F88A
:101DD000E50CB800028004C333D8FCF50CE50852CA
:101DE0000CE508F4CB5BFBE50CCB4BFBEEFAEFF913
:101DF0001201C27F05020C5474F3120BE8E9FFEAEA
:101E0000FE8B098C0C7B01EEFAEFF91201BC9002FB
:101E100000E0F508E50C6013750A01750B00E50993
:101E2000780A120B7EE50A45088012750A01750BC7
:101E300000E509780A120B7EE50AF45508F508ABAF
:101E400008EEFAEFF91201C27F05020C5474F21287
:101E50000BE8E9FEEAFF8B0A8C0B740E120BDCE038
:101E6000F50CA3E0F50D750801750900E50B780880
:101E7000120B7EE50824FFF508E50934FFF509E5B6
:101E80000AC3950B24017808120B7EE508F5087B40
:101E900001EFFAEEF91201BC900200E0F509E50845
:101EA0005209E509E50AC3950B2401F8E509B800D4
:101EB000028004C313D8FCF509E509850C82850D61
:101EC00083E509F07F06020C54C082C0837D017C4B
:101ED000037B027A6B79D01201C87D007C027B04FF
:101EE0007A1B79D01201C87D007C027B047A1C79B0
:101EF000D01201C87C007B067A6B79D01201CED05B
:101F000083D08202007874F6120BE874FF120B91F2
:101F10008510828511838582088583097808120CD3
:101F20009E7C067B067A7579D01201D47402120B5E
:101F3000A7851082851183E0C333F97401120BA7C2
:101F40007F02020C5474F0120BE874FC120B9174B3
:101F500002120BDCEAF0A3EBF0851082851183EC12
:101F6000F0A3EDF07414120BDCE0F50EA3E0F50F16
:101F70007416120BDCE0F50CA3E0F50D7418120BCF
:101F8000DCE0F50AA3E0F50B741A120BDCE0F508AF
:101F9000A3E0F509741C120BDCE0FEA3E0FF7B0E4E
:101FA0007A3B79D01201BC900200E0F87900E4C8D5
:101FB000F9900201E0FA7B00E84AFAE94BFB74026F
:101FC000120BDCE0F8A3E0F5838882EAF0A3EBF0E3
:101FD000900202E0F87900E4C8F9900203E0FA7B8D
:101FE00000E84AFAE94BFB851082851183E0F8A3EB
:101FF000E0F5838882EAF0A3EBF0900204E0F87940
:1020000000E4C8F9900205E0FA7B00E84AF8E94BE1
:10201000F9850E82850F83E8F0A3E9F0900206E0CF
:10202000F87900E4C8F9900207E0FA7B00E84AF882
:10203000E94BF9850C82850D83E8F0A3E9F0900265
:1020400008E0F87900E4C8F9900209E0FA7B00E8BA
:102050004AF8E94BF9850A82850B83E8F0A3E9F099
:1020600090020AE0F87900E4C8F990020BE0FA7BEC
:1020700000E84AF8E94BF9850882850983E8F0A36E
:10208000E9F090020CE0F87900E4C8F990020DE064
:10209000FA7B00E84AF8E94BF98E828F83E8F0A3D7
:1020A000E9F07404120BA77F08020C547C007D0039
:1020B0008019E82401F8E93400F9C3E89417E99499
:1020C0000240EFEC2401FCED3400FDC3EC9AED9BE3
:1020D00050067800790080E202007875F10075F30F
:1020E0000C53FF3F43868043C50B43C2D8C2E9432C
:1020F000864043A88402007874F7120BE8780079D0
:1021000000801E8A828B83E0F5C18A828B83A3AA1A
:1021100082AB83A2E950FCC2E9E82401F8E934006B
:10212000F9C3E89CE99D40DB7F01020C5453C6BF14
:10213000E59EA2E640FA53C6B802007874A9120BD5
:102140009190020EC082C083744E120BDCAC82AD43
:1021500083D083D0827409120AC37E001201B612A2
:1021600001AA12016E80337C797D02740E120BDCA1
:10217000AA82AB831201F2740E120BDCAA82AB832B
:102180001201F8EAFCEBFD740E120BDCAA82AB83A1
:102190001201B07AD07B071201A41201E0E9FE8E91
:1021A000087509007808120C9E7C177D02741012C5
:1021B0000BDCAA82AB831201F27402120BA7740E1D
:1021C000120BDCAA82AB831201F8EAFCEBFD740E61
:1021D000120BDCAA82AB831201B074686E70881295
:1021E00001DA1201E0E9F8E8FE74686870A574028B
:1021F000120BDC8582088583097808120C9E740610
:10220000120BDC8582088583097808120C9E740AFB
:10221000120BDC8582088583097808120C9E7406EF
:10222000120BDC8582088583097808120C9E7410D5
:10223000120BDC8582088583097808120C9E7414C1
:10224000120BDCAC82AD837416120BDCAA82AB835A
:102250001201E6740A120BA7851082851183E0F53E
:1022600008A3E0F509E5093395E0F50AF50B7808D0
:10227000120230900291780C120A807808790C12C0
:102280000816900295780C120A807808790C1205CD
:10229000FF7402120BDC120CB17406120BDC120C70
:1022A000B1740A120BDC120CB17808120C9A740A81
:1022B000120BDC120CB17414120BDC120CB174187A
:1022C000120BDC120CB1741C120BDC120CB17C4929
:1022D0007D027420120BDCAA82AB831201F274120D
:1022E000120BA7740E120BDCAA82AB831201F8EA60
:1022F000FCEBFD740E120BDCAA82AB831201B07AE8
:10230000D07B071201A40221E2C082C08343FDA05A
:10231000D28712019ED28512019ED083D082020004
:1023200078C082C08343FDA0D28712019ED285125D
:10233000019EC28712019ED083D082020078C082A3
:10234000C08343FDA0C28712019ED28512019ED296
:102350008712019ED083D08202007874F7120BE8B6
:102360007E007F0043FD2053FD7FD28512019EC277
:102370008512019EC3EE942CEF9401400312019E3E
:102380007F01020C5474F7120BE8E9FF43FDA08FA4
:10239000087E008011C28712019ED28512019EE53F
:1023A00008C333F5080EEEC39408500FC28512011E
:1023B0009EE508A2E750DED28780DCC28512019E2E
:1023C000D28512019E7F01020C5474F7120BE87E35
:1023D0000043FD2053FD7FC28512019ED2857F0000
:1023E0008015D28512019EA287E433F8EEC33348EC
:1023F000FEC28512019E0FEFC3940840E5EEF97FFF
:1024000001020C5474F7120BE88908EAFFEBFE1284
:102410000174EEF9120186120180A90812018612D8
:102420000180EFF912018612018012017A7F010208
:102430000C5474F7120BE88908EAFF120174EFF9E3
:10244000120186120180A908120186120180120170
:102450007474014FF912018612018012018CE9FE99
:1024600012017AEEF97F01020C547804800819E910
:10247000C3940150F918E8C394014004790280EF35
:10248000020078C082C0838A828B8312251AE9F009
:102490008A828B83E02401FCA3E03400FD8A828BD6
:1024A00083ECF0A3EDF0D083D08202007874F612B2
:1024B0000BE874FC120B917402120BDCEAF0A3EB34
:1024C000F0ECFAEDFB740E120BDCA882A9838510E8
:1024D00082851183E8F0A3E9F08510828511838558
:1024E00082088583097808120C9E7404120BDC851F
:1024F00082088583097808120C9E7CEC7D0112020B
:10250000047404120BA77402120BDC12251AE4F0F7
:102510007404120BA77F02020C54E0F8A3E0F583C9
:10252000888222C082C0838A828B838001A3E0706C
:10253000FCE582C39AFAE5839BFBD083D08202003C
:012540007822
:040000050000006097
:00000001FF
